:020000040800F2
:10000000780F00204D020008FF380008EF33000889
:10001000FD380008191600085144000800000000CF
:10002000000000000000000000000000A93D0008E2
:10003000D916000800000000053C0008AB3D000890
:1000400067020008670200086702000867020008EC
:1000500067020008670200086702000867020008DC
:1000600067020008670200086702000867020008CC
:100070006702000867020008670200081D160008F2
:10008000670200086702000867020008000000001D
:1000900000000000000000000000000067020008EF
:1000A000670200086702000867020008670200088C
:1000B000553E0008613E00086D3E000867020008DA
:1000C000670200086702000867020008670200086C
:1000D00067020008670200086702000800000000CD
:1000E00067020008670200086702000800000000BD
:1000F000000000000000000000000000670200088F
:100100000000000067020008793E0008670200084E
:1001100000000000000000000000000000000000DF
:100120002916000867020008670200086702000835
:10013000670200080000000000000000000000004E
:10014000000000000000000000000000670200083E
:1001500067020008670200086702000867020008DB
:1001600067020008670200080000000000000000AD
:10017000000000000000000000000000000000007F
:1001800000000000670200080000000000000000FE
:100190006702000800F002F800F049F80AA090E8B1
:1001A000000C82448344AAF10107DA4501D100F032
:1001B0003EF8AFF2090EBAE80F0013F0010F18BFB6
:1001C000FB1A43F001031847BC620000DC62000028
:1001D000103A24BF78C878C1FAD8520724BF30C873
:1001E00030C144BF04680C60704700000023002445
:1001F00000250026103A28BF78C1FBD8520728BF37
:1002000030C148BF0B607047662904F0C9840020E4
:1002100070471FB504F0BFFC00F0E8FB04000020AD
:10022000002104F02BFCE0601FBD10B510BD00F0F4
:10023000E1FC1146FFF7EDFF04F048F900F0FFFC88
:1002400003B4FFF7F2FF03BC04F032F9094880471A
:1002500009480047FEE7FEE7FEE7FEE7FEE7FEE7A8
:10026000FEE7FEE7FEE7FEE704480549054A064BC0
:1002700070470000453E00089501000878090020FD
:10028000780F0020780B0020780B0020704753EA8D
:10029000020C00F069802DE9F04B4FF00006002BB6
:1002A0001FBFB3FA83F503FA05F424FA05F65E409E
:1002B00012BF1643B2FA82F502FA05F4C5F1200521
:1002C0001EBF22FA05FC44EA0C04203556EA044C11
:1002D0004FEA144418BF641C4FF000084FF00009A7
:1002E000904271EB030C39D3002919BFB1FA81F7A1
:1002F00001FA07F6B0FA80F700FA07F6C7F120070F
:100300001EBF20FA07FC46EA0C062037B6FBF4FCB9
:10031000A7EB0507103F07F01F0BCBF120060CFAE7
:100320000BFB2CFA06F644BFB3460026202FA4BFD1
:100330005E464FF0000B5BEA060C08BF4FF0010B66
:1003400019EB0B09ABFB027C48EB0608C01B06FB54
:1003500002CC0BFB03CC71EB0C01C1E70B46024650
:1003600041464846BDE8F08B13B54FF000004FF012
:100370000001AFF30080BDE81C4070470FB4044992
:1003800010B503AA029800F01FFB10BC5DF814FB27
:10039000640000200FB41CB5074B06AA7B446946D5
:1003A0000090059800F0F7FA0020694600F006FB7F
:1003B0001CBC5DF814FB00001D06000070B504466F
:1003C00085690068C10601D5302600E02026C007F7
:1003D00007D070BDD4E9012130469047206A401C07
:1003E00020626D1EF6D570BD70B504468569007833
:1003F000C00707D170BDD4E9012120209047206AB1
:10040000401C20626D1EF6D570BD2DE9F0474FF0FF
:10041000000A89460446C0F820A02046E1688847C3
:10042000002876D0252806D0D4E901219047206AFB
:10043000401C2062F1E7E168204600258847C4F8A7
:100440001CA006460027C4F818A02A2E09D0304662
:1004500004F027F838B304EB8708303EC8F818607A
:1004600019E059F8041B204604EB87029161E1680A
:100470008847012F064618D1E069002820DA25F0C8
:1004800020051DE0D8F8180000EB800006EB4000C6
:100490003038C8F818002046E1688847064604F05E
:1004A00000F80028EED1012F0AD02E2E08D12046C8
:1004B000E16888477F1C0646022F45F02005C4DB13
:1004C000A069002803DA404245F00105A061E80771
:1004D00001D025F01005B6B1A6F14100192802D8C7
:1004E000203645F400654A463146204625604D4693
:1004F000FFF78AFE58B1012806D0ED1D25F0070050
:1005000000F1080989E704E005F1040985E73046B0
:100510008AE7206ABDE8F0874FF0000200B5134675
:1005200094469646203922BFA0E80C50A0E80C5013
:10053000B1F12001BFF4F7AF090728BFA0E80C50C4
:1005400048BF0CC05DF804EB890028BF40F8042BBD
:1005500008BF704748BF20F8022B11F0804F18BF2A
:1005600000F8012B7047704770477047704770471D
:100570002DE9FF4F0C461E464FF0FF378BB0D2E9F6
:100580000001DDF860800A908A46C1F30A5505B97A
:100590003D46002108464FF00000BAF1000F00F47C
:1005A000400005DA00EB80004FF4400101EA500002
:1005B0004FEA9059B9F1010F00DDB9460A9850EAA7
:1005C0004A000ED044F61050A5F2FF3545432F14D3
:1005D000B8F1000F1ED07542291E1EDDC9F10002C0
:1005E0001CE0B8F1010F4FF0000001D0302103E012
:1005F000F24305E02154401CB042FBDB30460022B0
:10060000002121540B99C1F80880C1E900200FB0E6
:10061000BDE8F08FBD1B6D1CDEE74A4600DA69427B
:1006200006A800F06DFA06AB93E8070003AB83E879
:10063000070050460A9900F04BFB8DE80700A0F533
:1006400000501F3800900398002D0ADD42F21F0170
:100650004A460844002303A90390684600F0B4FD0D
:1006600009E0A0F500504A461F38002303A9039073
:10067000684600F0BEFD8DE807000004000C03D0C2
:100680004FF0FF30410800E01046B8F1000F03D0F2
:100690000022009215461EE0751E05D400F0AAF94E
:1006A000303262556D1EF9D5B3460122084302D09F
:1006B00000227F1C04E02078302801D100227F1E18
:1006C000002A099784D01DE0112D07DA00F092F975
:1006D000303262556D1C50EA0102F5D1084302D058
:1006E0000098C8B10EE00021681E05E0235C625C42
:1006F00063542254401E491C8142F7DBAB46A81BC1
:10070000401E0990002004F80B000B98099AC0F8CD
:100710000880C0E9002B7AE711264FF0000857E760
:100720002DE9F04F88460446D21D22F0070191B012
:10073000D1E90001CDE90A0103F08BFE02460B98D6
:10074000C00F01D02D2007E02068810701D52B20A4
:1007500002E0202101EAC000032A099001D0072A03
:1007600005DB03464146204600F08AF90BE120787C
:10077000800601D5E06900E00620B8F1650F8146EA
:1007800006D0B8F1660F18D0B8F1670F70D131E01C
:100790000020B9F1110F009001DB112301E009F1F4
:1007A00001030AAA01A90CA8FFF7E2FEDDE90C701B
:1007B000002609F10105834647E001204B460090E1
:1007C0004FF000470AAA01A90CA8FFF7D1FEDDE906
:1007D0000DB00C995D46002610B909F101000D1805
:1007E000B9EB050003D4C0F1FF3609F10105A5EB13
:1007F00009002BE0B9F1010F01DA4FF001090020E7
:10080000B9F1110F0090484601DD112300E00346C5
:100810000AAA01A90CA8FFF7ABFEDDE90C704D4652
:1008200000268346207800070AD4AB4500DA5D46EF
:1008300001A8012D04DD411911F8011C302907D050
:100840004F4502DA17F1040F04DA012082460FE067
:100850006D1EEEE7002F02DCED1B3E4403E0781C2A
:10086000A84200DD7D1CB81B00F1010A4FF00047D3
:100870002078000703D4AA4501DB4FF0FF3A00219E
:10088000B7F1004F0DF143088DF8431024D002203A
:100890002B23002F01DA7F422D230A21021EA0F113
:1008A000010000DC5FB197FBF1FC97FBF1F201FB6B
:1008B0001C7C17460CF1300C08F801CDEEE7A8F1CE
:1008C000010003702188090501D5452100E065215B
:1008D000A0F1010800F8011C09980FA9A1EB080775
:1008E000FF1D00B10120411901EBEA70A1693844F4
:1008F000081A401EA0612078C00602D42046FFF7E7
:100900005DFD099828B1D4E901219047206A401C77
:1009100020622078C00622D52046FFF74FFD1EE05A
:10092000002E04DBB34502DD01A8805D00E030202D
:10093000D4E901219047206A401C2062761CAAF16C
:1009400001005FEA000A0AD100F050F8C0680168AF
:10095000405CD4E901219047206A401C2062281E97
:10096000A5F10105DCDC07E0D4E9012118F8010B51
:100970009047206A401C2062381EA7F10107F3DC73
:100980002046FFF731FD032011B041E601694A1C02
:1009900002610878704700B58FB0CDE901310021C0
:1009A000059105497944CDE9031011466846FFF7E2
:1009B0002CFD0FB000BD0000E5FFFFFF0A6802F844
:1009C000010B0A6070470000074B70B50D467B4471
:1009D000FFF7E1FF0446284600F004F910B14FF09C
:1009E000FF3070BD204670BDE33A000000487047FC
:1009F0003409002030B5B0F10A024FEA900E71F1CF
:100A000000034EEA817EB0EB0E0061EB91014FEAEC
:100A1000101E4EEA017E10EB0E0041EB11114FEA61
:100A2000102E4EEA016E10EB0E0041EB11214FEA41
:100A3000104E4EEA014E10EB0E0041EB11414018F2
:100A400041F100014FEAD00040EA41704FEAD10184
:100A500010EB80054FEA810444EA907444EB0104F2
:100A60006D1944EB0404521BA3414FF0000348BF2F
:100A70000A3200D530BD401C41F1000130BD0000FC
:100A80002DE9F0411F46044603260168072A01F4B8
:100A9000006004DB08B116A505E016A503E008B167
:100AA00015A500E015A521F010002060A069C01E6A
:100AB000A0610FB1401EA0612046FFF77FFC4FB13F
:100AC000D4E9012138469047206A401C2062C01CAE
:100AD000206206E0206AFAE7D4E9012115F8010B4B
:100AE0009047761EF8D22046FFF77EFCBDE8F081E5
:100AF0004E414E006E616E00494E4600696E6600C2
:100B00002DE9F047814616468AB0354878440DC82D
:100B10008DE80D0032487844801C03AC0DC884E891
:100B20000D0041F69B300844372190FBF1F290FB19
:100B3000F1F5A5F1800501FB12041B3C02D56442CE
:100B4000012000E00020DFF898A080460027FA444A
:100B5000AAF1BE0A0EE0E0070AD03246684607EB6B
:100B6000470101230AEB810100F043FB8DE80700F8
:100B700064107F1C002CEED1194F7F44AE3F19E06A
:100B8000E80715D007EB04100DF1180A90E80E00E5
:100B90008AE80E00C068F04201D1981908903246E8
:100BA000012306A903A800F024FB03AB83E8070098
:100BB0006D10641C002DE3D14FF0010332466946ED
:100BC000B8F1000F03A802D000F0FEFA01E000F037
:100BD00010FBC9E90001C9F808200AB0BDE8F08798
:100BE0005C590000007B00F08000704700487047AF
:100BF000140900207546FFF7F9FFAE460500694667
:100C0000534620F00700854618B020B5FFF72CFBAF
:100C1000BDE820404FF000064FF000074FF00008FD
:100C20004FF0000B21F00701AC46ACE8C009ACE87E
:100C3000C009ACE8C009ACE8C0098D46704710B5E2
:100C40000446AFF300802046BDE81040FFF7F8BA35
:100C50004FF0013C50F8042B51F8043B9A4221D14B
:100C6000A2EB0C03934313EACC1317D150F8042BD7
:100C700051F8043B9A4215D1A2EB0C03934313EABB
:100C8000CC130BD150F8042B51F8043B9A4209D1F4
:100C9000A2EB0C03934313EACC13DBD04FF000001C
:100CA000704700BFD01A01BAB1FA81F101F0180102
:100CB00022FA01F0CB40C1F12001DBB2C0B2C01A70
:100CC0002CFA01F3D11A914311EAC311E6D170470E
:100CD0005FEA400C08BF91F0000F4FEA8C234FEA07
:100CE000C12243EA51514FEA1C5018BF00F5F040B1
:100CF0004FEA300018BF41F000415FEA6C5C00F041
:100D00002980BCF1FF3F08BF40F080407047130CC2
:100D100006BF12044FF0100C4FF0000C130E04BF6E
:100D200012020CF1080C130F04BF12010CF1040C99
:100D3000930F04BF92000CF1020CD30F04BF5200BA
:100D40000CF1010C11464FF00002A0F11F00A0EBC6
:100D50000C00704711F0004F08BF704731F00041A0
:100D60003FF4D5AF0B0C06BF09044FF0100C4FF049
:100D7000000C0B0E04BF09020CF1080C0B0F04BF92
:100D800009010CF1040C8B0F04BF89000CF1020C5B
:100D9000CB0F04BF49000CF1010CCCF12003A0EBF8
:100DA0000C0022FA03F302FA0CF241EA030100F10B
:100DB0000100704720F07F4C80EA030023F07F475A
:100DC000ACEB070303F57C5300F0004003F1FF0395
:100DD0002DE980494FEA154B09B44FEA144325EA3F
:100DE0000B4E24EA03480FF2042606EB13274908AA
:100DF0003E785FEA320203FB0667C7F5000707FB90
:100E000006F64FEA54374FEAD64606F1020607FBCC
:100E1000066CCCF1005C4FEA1C472CEA074C07FB40
:100E200006F40CFB06F504EB15464FEA961634BFA4
:100E300000204FF000404FEAD13706FB07FC4FEA95
:100E40001C4C0CFB0BF7D21B03FB0CF761EB0701EF
:100E50000CFB0EF7B0EB074072EB17420CFB08F7E8
:100E600034BFA2EB0742B2EB074261EB17414FEAF6
:100E70000C444FEA910706FB07FC4FEA1C4C0CFBA5
:100E80000BF7B0EBC74072EB573203FB0CF734BFE4
:100E9000A2EBC742B2EBC74261EB57310CFB0EF736
:100EA000B0EBC70072EB57720CFB08F734BFA2EB34
:100EB000C702B2EBC70261EB5771039F4FEA816132
:100EC00041EA921104EBCC044FEAD1374FEA826237
:100ED00006FB07FC42EA90124FEA80604FEA1C4C86
:100EE0000CFB0BF7D21B03FB0CF761EB07010CFBB0
:100EF0000EF7B0EB074072EB17420CFB08F734BF5C
:100F0000A2EB0742B2EB074261EB17414FEA8C5567
:100F10004FEA910704EB9C2406FB07FC4FEA1C4CAC
:100F20000CFB0BF7B0EBC74072EB573203FB0CF72F
:100F300034BFA2EBC742B2EBC74261EB57310CFBA7
:100F40000EF7B0EBC70072EB57720CFB08F734BF1B
:100F5000A2EBC702B2EBC70261EB577115EB4C2550
:100F60004FEA816141EA92114FEA82624FEAD1373A
:100F700042EA901206FB07FC44F100044FEA80604D
:100F80004FEA1C4C0CFB0BF7D21B03FB0CF761EB7D
:100F900007010CFB0EF7B0EB074072EB17420CFB9E
:100FA00008F734BFA2EB0742B2EB074261EB1741EF
:100FB00015EB1C154FEA813141EA92414FEA82322A
:100FC00042EA90424FEA80304FEA0C7644F1000446
:100FD00048EA03434EEA0B484FF0000EB2EB080C10
:100FE00071EB030724BF624639464EEB0E0E4FF0FD
:100FF000000B0018524149414BEB0B0BB2EB080CB4
:1010000071EB03077BF1000B24BF624639464EEBC0
:101010000E0E4FF0000B0018524149414BEB0B0BE9
:10102000B2EB080C71EB03077BF1000B24BF6246A7
:1010300039464EEB0E0E51EA020718BF46F0010684
:1010400016EB0E7655F1000254F1000103D5BDE810
:101050008901BDE80088BDE88901BDE80048B619EE
:10106000524141EB0101A3F10103704780807F7E73
:101070007D7C7B7A7978777676757473727171700E
:101080006F6E6E6D6C6C6B6A6A69686867666665C0
:101090006464636362616160605F5F5E5E5D5D5C4E
:1010A0005C5B5B5A5A5959585857575656555555BF
:1010B0005454535352525251515050504F4F4F4E1F
:1010C0004E4D4D4D4C4C4C4B4B4B4A4A4A4949496D
:1010D00048484847474747464646454545444444AF
:1010E000444343434342424242414141002B9C46D8
:1010F00030D477002BD01CB54FEA370703B44FF03C
:1011000010004FF01001BAF1000F06D0BCF1000F33
:10111000DCBF40F0080040F008014FF000000FBCB9
:10112000BDE810400BF1010BBBF1010F08BF5FEAF6
:10113000170722BF12F1010211F101014FF0004126
:1011400043F1000300F0004043EA00007047F9D388
:101150005708D0E746EA064613F1400F4FEA164615
:101160001FDD13F1200FDFBF16430A460021203395
:101170005B42BED0C3F1200746EA064602FA07F7F3
:101180004FEA164646EA0706C3F1200722FA03F2A1
:1011900001FA07F721FA03F14FF0000342EA0702D0
:1011A000A7E746EA020646EA06464FEA164646EA38
:1011B0000106BCBF46EA0646360C4FF000034FF06E
:1011C00000024FF0000194E72DE9804C9A469346C7
:1011D00070B491E8380007C831EA400C48BF34EADF
:1011E000430C03D5FFF7E6FDFFF780FFF0BCBDE839
:1011F000008C2DE9804C9A46934670B491E83800F3
:1012000007C810F0804F08BF13F0804F03D100F0E3
:1012100005F8FFF76BFFF0BCBDE8008C20F07F47BE
:1012200080EA030023F07F4C07EB0C03A3F57C530B
:1012300000F00040A3F1FE0392F0000F00F0B38035
:1012400095F0000F00F077802DE901494FEA114039
:101250004FEA144621EA004800FB06FC24EA064750
:1012600008FB06F607FB08F800FB07F718EB064833
:101270004CEB164C4FEA124B18EB07484FEA154659
:101280004CEB174022EA0B4E0BFB06FC25EA064707
:101290000EFB06F607FB0EFE0BFB07F71EEB064EDA
:1012A0004CEB164C4FF000061EEB074E4CEB174B69
:1012B00018EB0B0840F1000018EB0E0B58EB000880
:1012C00040F100008F1A4FF000013CBFC943661B7C
:1012D00014BFB5EB040C00213CBFC943F61B4FEA19
:1012E00017444EEA8E0E27EA04454FEA1C4704FBDA
:1012F00007622CEA074C05FB07F70CFB05F604FB1D
:101300000CFC16EB074642EB174216EB0C4642EB81
:101310001C421BEB060658EB0202414146EA9E06C0
:1013200001D5BDE80189B619524141EB0101A3F194
:101330000103BDE801894FEA14454FEA114724EA49
:10134000054621EA074C05FB07F406FB07F70CFBF3
:1013500006F105FB0CFC11EB074144EB17444FEA87
:10136000124711EB0C4144EB1C4422EA074C05FBED
:1013700007F206FB07F70CFB06F605FB0CFC16EB69
:10138000074642EB174216EB0C4642EB1C456A1827
:1013900054F1000148BF7047B619524141EB0101B9
:1013A000A3F10103704795F0000F37D04FEA1142C7
:1013B0004FEA144721EA024624EA074C02FB07F1F0
:1013C00006FB07F70CFB06F402FB0CFC14EB0744CE
:1013D00041EB17414FEA154714EB0C4441EB1C411C
:1013E00025EA074C02FB07F506FB07F70CFB06F6A0
:1013F00002FB0CFC16EB074645EB174516EB0C46BB
:1014000045EB1C42121951F1000148BF7047B61953
:10141000524141EB0101A3F1010370474FEA14452A
:101420004FEA114724EA054621EA074C05FB07F17C
:1014300006FB07F70CFB06F24FF0000605FB0CFC61
:1014400012EB074241EB174112EB0C4251EB1C41EE
:1014500048BF7047921841EB0101A3F101037047A7
:1014600010B50146806B026C12F0500F05D0026C73
:10147000D20626D500F0DCF910BD016C41F40071F4
:10148000016401688A6812F0405F17D1027EAAB930
:10149000CA6A12F4700F02D08A6852050ED44A68E4
:1014A00022F020024A60016C21F480710164016C19
:1014B000C90403D4016C41F00101016400F0B6F9E4
:1014C00010BD806BC26CBDE810400846104710B5D7
:1014D000806B40210164416C41F00401416400F0E3
:1014E000A7F910BD10B5806B00F0A1F910BD000088
:1014F000464910B54A6822F440324A604A68436857
:101500001A434A6001684A6822F480724A6001689E
:101510004A68036942EA03224A6001684A6822F085
:1015200040724A6001684A6883681A434A600168E9
:101530008A6822F400628A6001688A68C3681A4374
:101540008A60816A6FF07062D14201688A6822F015
:1015500070628A6001688A680CD0836A1A438A6064
:1015600001688A6822F040528A6001688A68C36A0A
:101570001A4301E022F040528A6001688A6822F032
:1015800002028A6001688A68037E42EA43028A6036
:1015900090F82010002901684A680FD042F40062D8
:1015A0004A6001684A6822F460424A6001684A68F9
:1015B000174C436A04EB43331A4301E022F4006200
:1015C0004A600168CA6A22F47002CA620168CA6A83
:1015D000838B104C04EB03531A43CA6201688A6878
:1015E00022F400728A6001688A6890F8303042EA1A
:1015F00043228A6001688A6822F480628A600168F6
:101600008A68406942EA8020886010BD002301405A
:1016100000E0FFFF0000F0FFFEE70000014800F0DF
:1016200021BA000008070020014800F01BBA0000A2
:101630005006002001681823CAB2103AB2FBF3F238
:10164000054B6FF30901032A9B5CC36500D9091D93
:101650008165084670470000D063000810B5014658
:1016600000208B698A6A4FF0C07453B1B3F5005FF4
:1016700015D072B1012A0CD0022A0AD0032A09D14E
:1016800004E01AB1012A06D0022A03D1C96AC901AD
:1016900000D5012010BDC96AA142FAD010BD002AB0
:1016A000F7D0012AF2D0022AF3D0032AF3D010BDDA
:1016B00030B50468256825F48025256004686360DA
:1016C0008368402B036803D099600068C26030BD16
:1016D0009A600068C16030BD704772B6FEE70000D6
:1016E00078B50024009490F83C20012A19D00122FA
:1016F00080F83C200A6807230568092A13D9EE6898
:101700000A3A02EB420293409E43EE600B788A68ED
:101710000A3B03EB43039A400368DD682A43DA601F
:1017200010E0022078BD2E6902EB420293409E43F6
:101730002E610B788A6803EB43039A4003681D69A6
:101740002A431A614A681F23072A13D205686E6B61
:10175000521E02EB820293409E436E630B790A880D
:101760005B1E92B203EB83039A4003685D6B2A43CE
:101770005A6327E005680D2A12D22E6BD21F02EBA6
:10178000820293409E432E630B790A88DB1F92B23C
:1017900003EB83039A4003681D6B2A431A6311E02D
:1017A000EE6A0D3A02EB820293409E43EE620B79A1
:1017B0000A880D3B92B203EB83039A400368DD6A0B
:1017C0002A43DA62164B0568144A9D4206D10D6819
:1017D000122D03D1556845F48005556005689D427A
:1017E00018D10B68102B01D0112B13D1536843F47F
:1017F00000035360096810290CD10A490A4A096894
:10180000B1FBF2F101EB8101490000E0491E0091BA
:101810000029FBD180F83C40002078BD0023014026
:10182000002001407400002040420F0070477047C4
:10183000704770B504004FF0000503D0206C0026FF
:1018400010B107E0012070BD204600F01DF866646D
:1018500084F83C60206CC00610D4206C20F48850C2
:1018600040F0020020642046FFF742FE6664206CD0
:1018700020F0020040F00100206400E0012584F81F
:101880003C60284670BD000070B586B00646142145
:101890006846FEF741FE24493068884242D1234819
:1018A0000025016841F48071016000681F4900F45F
:1018B000807014390590086840F0010008600868DD
:1018C00000F001000590086840F002000860086818
:1018D000032400F002000590C0208DE83100694625
:1018E000134800F031FA009469461248CDE90145E9
:1018F00000F02AFA114C1048C4E900050015A56053
:10190000C4E90350800060618000A0618011C4E9D7
:1019100007052046656200F075F908B1FFF7DDFEA6
:10192000B463A66306B070BD002001404438024095
:1019300000000240000402401064024050060020F3
:10194000F8B5044600200E46009094F83C1001299A
:1019500007D0012184F83C1021688B68DB0702D096
:1019600011E00220F8BD8B6843F001038B6036491B
:10197000364B0968B1FBF3F101EB410100E0491E70
:1019800000910029FBD121688B68DB0503D58B68AA
:1019900023F480738B6021688B68DB0749D0236C4C
:1019A00040F20165AB4343F4807323644968490501
:1019B00005D5216C21F4005141F480512164216C42
:1019C000C90404D5616C21F00601616400E0606423
:1019D00084F83C00A16B1F481D4DC863A16B1E48D5
:1019E0000864A16B1D48C86421686FF0220008607C
:1019F0002068416841F0806141602068816841F45D
:101A0000807181602168134632464C31A06B00F032
:101A100063F96868C006206802D01149884210D175
:101A2000816811F0405F0CD1816841F08041816094
:101A300007E0206C40F010002064606C40F0010072
:101A400060640020F8BD00007400002040420F00D8
:101A50000023014061140008E5140008CF140008B9
:101A6000002001402DE9F84304464FF00009CDF86D
:101A7000009063484FF41651A56D0068B0FBF1F774
:101A80002E6894F85C10082000FA01F131420FD062
:101A900021680A6852070BD50A6822F004020A601E
:101AA00094F85C108840A860606D40F001006065AB
:101AB00094F85C104FF0010808FA01F0304208D0A9
:101AC00021684969090604D5A860606D40F00200EC
:101AD000606594F85C1004208840304208D021688A
:101AE0000968890704D5A860606D40F0040060654E
:101AF00094F85C1010208840304218D021680968A2
:101B0000090714D5A86020680168490304D5006856
:101B1000000308D5A16C07E00168C90503D401687A
:101B200021F008010160216C09B12046884794F832
:101B30005C1020208840304231D021680968C906F5
:101B40002DD5A86094F8350005282068016806D0D6
:101B5000490347D5006800031DD4616C1CE021F0E7
:101B6000160101602068416921F080014161206C0B
:101B700008B9A06C20B12068016821F0080101605B
:101B800094F85C103F208840A86084F8358084F881
:101B90003490216D1FE0E16B09B120468847606DEC
:101BA00000282BD0606DC00714D0052084F83500C4
:101BB0002068016821F0010101600098401C00903C
:101BC000B84203D820680068C007F6D184F8358091
:101BD00084F83490E16C002910D001B02046BDE8B3
:101BE000F04308470168C905D5D4016821F0100108
:101BF000016084F8358084F83490CCE7BDE8F88340
:101C0000740000202DE9F041044600F09FF90646DB
:101C10005CB1022084F83500002584F83450206837
:101C2000016821F0010101600DE00120BDE8F081B3
:101C300000F08CF9801B052805D920206065032061
:101C400084F83500F2E720680068C007F0D1226808
:101C5000116820480140D4E901031843D4E9033650
:101C60003343184363691843A3691843E36918436E
:101C7000236A18430843616A042903D1D4E90B138A
:101C800019430843106020684069666A20F0070124
:101C900030460E43012704280CD1A06A0643E06AAF
:101CA00040B12046FFF7DAFC20B14020606584F89F
:101CB0003570BAE7206846612046FFF7BBFC94F810
:101CC0005C203F2191408160656584F8357000207B
:101CD000ACE700003F8010F02DE9F0410446866D2E
:101CE00090F83400002501280DD0012084F834003C
:101CF00094F835700020012F07D084F834000225B5
:101D00002846BDE8F0810220FBE7022784F8357001
:101D100060652046FFF7CCFC94F85C103F208840BB
:101D2000B0602068016841F016010160206C20B1AC
:101D30002068016841F0080101602068016841F0F5
:101D400001010160DCE700002DE9F84FDFF8B8A1E0
:101D50000022012403254FF00F090AF1040BAAF118
:101D6000040E00BF0B6804FA02F63340B34273D18D
:101D70000F7907F00307012F01D0022F16D18768D2
:101D80004FEA420805FA08FC27EA0C07D1F80CC014
:101D90000CFA08FC4CEA070CC0F808C04768B743C7
:101DA0000E79C6F3001696403E4346600E79F64320
:101DB000B6070DD0C768560005FA06FC27EA0C07DF
:101DC000D1F808C00CFA06FC4CEA070CC0F80CC0AD
:101DD0000E7906F00306022E10D1D60800EB860815
:101DE000D8F8206057074FEAD76C09FA0CF7BE43C2
:101DF0000F6907FA0CF73743C8F8207006684FEAF6
:101E0000420C05FA0CF7BE430F7907F0030707FAF7
:101E10000CF7374307604E6816F4403F6DD03B4ED9
:101E2000376847F480473760366822F0030706F4C6
:101E300080460096364E07EB060CDCF808689707DC
:101E40003F0F09FA07F826EA0806DFF8C880404580
:101E500003D14FF000081EE04FE0DFF8BC804045A2
:101E600002D14FF0010816E0DFF8B080404502D102
:101E70004FF002080FE0DFF8A880404502D14FF094
:101E8000030808E0DFF89C80404502D14FF00408C9
:101E900001E04FF0070808FA07F848EA0608CCF80E
:101EA0000888DAF800605746D1F804C09E435FEA1C
:101EB000CC2C00D51E433E60DBF800605F46D1F8B5
:101EC00004C09E435FEA8C2C00D51E433E60DEF8C2
:101ED00000607746D1F804C09E435FEA8C3C00D591
:101EE0001E433E60084F083F3E68D1F804C09E4341
:101EF0005FEACC3C00D51E433E60521C102AFFF422
:101F000031AFBDE8F88F0000083C01404438024082
:101F1000003001400000024000040240000802407E
:101F2000000C0240001002400069084000D001206F
:101F30007047426921EA02030A4043EA0241816193
:101F400070470AB1816170470904FBE70148806866
:101F50007047000068000020024881680278114440
:101F600081607047680000200B4810B5016841F49B
:101F700000710160016841F480610160016841F411
:101F800080710160032000F06FF80F2000F006F868
:101F900000F024F8002010BD003C024070B50D4D4B
:101FA00004464FF47A712878B1FBF0F00A490968C9
:101FB000B1FBF0F000F02AFC48B9102C07D2002247
:101FC0002146501E00F030F800206C6070BD0120EA
:101FD00070BD000068000020740000200A4808B5A9
:101FE000016841F480410160006800F48040009085
:101FF0000548001F016841F080510160006800F051
:102000008050009008BD000044380240002809DBE1
:1020100000F01F02012191404009800000F1E02002
:10202000C0F8001170470000F0B40E4B1B680C465E
:10203000C3F30223C3F10705042D00D90425191D9C
:10204000072901D2002300E0DB1E012606FA05F174
:10205000491E214099409E40761E16403143F0BCF7
:1020600002F00FBA0CED00E0064900F00702086824
:102070004FF6FF03184040EA0220034A104308606D
:10208000704700000CED00E00000FA052DE9F04774
:102090000E46050065D0DFF81481D8F80000F7B2CD
:1020A00000F00700B04207D288F80070D8F80000AE
:1020B00000F00700B04254D128683D4C810712D58A
:1020C000400703D5206840F4E050206028780007DE
:1020D00003D5206840F4604020602068A96820F0A3
:1020E000F000084320602878C0072DD03049686888
:1020F0000839012812D0022813D0032811D009680A
:10210000890700292DDA216821F0030101432160AC
:10211000FFF71CFF814641F2883A0EE00968890307
:10212000EFE709688901ECE7FFF710FFA0EB090171
:10213000514502D90320BDE8F0872068696800F0A6
:102140000C00B0EB810FEFD1D8F80010404601F041
:102150000701B14207D90770006800F00700B042DC
:1021600001D00120E7E72878400705D52068E96815
:1021700020F4E050084320602878000706D5206846
:10218000296920F4604040EAC100206000F038F87E
:102190002168084AC1F30311515CC8400649086030
:1021A00006480068FFF7FAFE0020C4E7003C024042
:1021B00008380240D8630008740000206C0000203A
:1021C0000448054900680968044AC1F38221515C4A
:1021D000C84070477400002008380240E8630008D7
:1021E0000448054900680968044AC1F34231515C5A
:1021F000C84070477400002008380240E8630008B7
:10220000154810B5006810F00C02144813D014499A
:10221000042A0FD0082A0ED10F4C241F22682368ED
:1022200002F03F025B0207D52068C0F38810A0FBD4
:10223000010106E0084610BD2168C1F38811A1FB29
:1022400000010023FEF723F82168C1F30141491C76
:102250004900B0FBF1F010BD083802400024F40042
:1022600040787D012DE9F84F04006ED02078DFF82A
:102270004C93C007A9F104054AD009F10400016894
:10228000C1F38101012908D00068C0F38100022850
:102290000AD1D9F80000400206D52868800337D556
:1022A00060680028E1D033E06068B0F5803F10D06E
:1022B000B0F5A02F286810D020F48030286028685E
:1022C00020F4802028606068A8B1FFF73FFE064632
:1022D0000DE0286840F48030F4E740F48020286066
:1022E000F7E700BFFFF732FE801B642873D8286829
:1022F0008003F7D50CE0FFF729FE064605E000BF96
:10230000FFF724FE801B6428F0D828688003F7D4E8
:102310002078DFF8AC8280074FF0000A3ED5A7484E
:10232000001D016811F00C0F08D00068C0F3810097
:1023300002280BD1D9F80000400207D42868800792
:1023400016D5E068012800D112E033E1E068B8B1A9
:102350000120C8F80000FFF7F9FD064605E000BFC0
:10236000FFF7F4FD801B0228C0D828688007F7D546
:102370002868216920F0F80040EAC10028600DE0DB
:10238000C8F800A0FFF7E2FD064604E0FFF7DEFD17
:10239000801B02281FD828688007F7D42078000700
:1023A00022D5864F87486169703771B1012101607C
:1023B000FFF7CCFD064604E0FFF7C8FD801B0228AE
:1023C00009D838688007F7D50EE0C0F800A0FFF7FD
:1023D000BDFD064605E082E0FFF7B8FD801B022840
:1023E0007DD838688007F7D42078400768D5DFF8B3
:1023F000CCB100270BF13C0BDBF80000C0000BD484
:10240000DBF8001041F08051CBF80010DBF8000041
:10241000012700F0805000906B4E3068C00510D44A
:10242000306840F480703060FFF790FD009005E068
:10243000FFF78CFD0099401A022850D83068C0057B
:10244000F6D55E4EA0686C3601280FD0052830689E
:1024500010D020F001003060306820F004003060BF
:10246000A068B8B1FFF772FD00900FE0306840F04F
:102470000100F4E740F004003060F7E7FFF766FD85
:102480000099411A41F28830814266D8306880074D
:10249000F4D50EE0FFF75AFD009007E0FFF756FD78
:1024A0000099411A41F28830814256D8306880073D
:1024B000F4D42FB1DBF8001021F08051CBF80010DC
:1024C000A069C8B33D49091D0968C1F3810102290A
:1024D0004AD00228504607D0C8F8600000E03CE02F
:1024E000FFF734FD04463BE04746C8F86000FFF7BD
:1024F0002DFD064605E000BFFFF728FD801B0228E2
:102500002BD828688001F7D4D4E907010843A16AD1
:102510002E4A490802EB0141626A41EA82110843EE
:1025200094F82C1040EA0161C9F8001001203866C7
:10253000FFF70CFD044606E03EE000BFFFF706FD96
:10254000001B022809D828688001F7D534E000BFB5
:10255000FFF7FCFC001B022802D90320BDE8F88F1E
:1025600028688001F4D427E00128F7D0D9F80000CA
:10257000E26900F4800191421CD1226A00F03F011F
:10258000914217D147F6C071626A0140B1EB821FD8
:1025900010D1A26A4FF0FF3300F4403103EB520236
:1025A000B1EB024F06D194F82C1000F07060B0EB44
:1025B000016F01D00120D1E70020CFE704380240AD
:1025C00000004742800E4742007000400000FFFFBD
:1025D000704770B5040009D0606A002540B12561DC
:1025E0006561A56294F8510040B10CE0012070BD16
:1025F0006068B0F5827FF4D0E561F2E784F850506E
:10260000204600F045F8022084F851002068016857
:1026100021F040010160A088218900F4827001F45A
:1026200004410843A18901F400610843217C01F0C1
:1026300002010843217D01F001010843218B01F4CF
:1026400000710843217F01F03801084394F82010FD
:1026500001F080010843218D01F4005108432168F5
:102660000860A069042101EA104094F8241001F0E8
:1026700010010843216848602068C16921F40061A5
:10268000C1616565012084F85100002070BD000023
:1026900070B586B0064614216846FDF73DFF1F4918
:1026A0003068884237D11E480025016841F48041D6
:1026B0000160006800F480400590194810380168F6
:1026C00041F0020101600068694600F002000590D7
:1026D0004FF4044000900220CDE90105032003904F
:1026E000052004900F48FFF72FFB104C0E48C4E95B
:1026F00000054020C4E902050001C4E90405A56104
:10270000E561256220466562FFF77CFA08B1FEF7B5
:10271000E4FFB464A66306B070BD0000003800405A
:102720004038024000040240706002400807002068
:102730002DE9F041044690F850000026012809D008
:10274000012784F8507094F851000025012804D026
:1027500002264EE00220BDE8F08189B182B103205B
:1027600084F8510065652163A286E286A5636564ED
:102770002564A587E587A068B0F5004F02D00BE07F
:10278000012636E02068016821F0400101602068E0
:10279000016841F480410160A16C18480864A16C93
:1027A0001748C863A16C1748C864A06C0565E38E20
:1027B0002268216B0C32A06CFFF78EFA38B1606D85
:1027C00040F010006065012684F8517011E0206827
:1027D0000168490603D4016841F0400101602068A6
:1027E000416841F0200141602068416841F00201E8
:1027F000416084F850503046ADE70000293C0008A5
:10280000333C0008073C00087047704710B5401E75
:10281000B0F1807F01D3012010BD4FF0E024606152
:102820000F21601701F02DFE0020A061072020611C
:10283000002010BD7047704710B590F83C20012A69
:1028400022D0012280F83C20CA688C6822F44072B1
:1028500022434C6822F4806222430C6822F4006216
:1028600022430C6922F4805222434C6922F4005224
:102870002243C969002322F480420A4301684A6462
:1028800080F83C30002010BD022010BD70B590F8DB
:102890003C20012A2CD0012480F83C40022280F800
:1028A0003D2003685A689D6822F070060A6832432A
:1028B0005A60104B02689A420ED0B2F1804F0BD092
:1028C0000D4B9A4208D00D4B9A4205D00C4B9A42C0
:1028D00002D00C4B9A4204D1496825F08003194379
:1028E000916080F83D40002180F83C10084670BDA2
:1028F000022070BD000001400004004000080040BC
:10290000000C00400040014010B5040003D094F8D2
:102910003D0010B107E0012010BD002084F83C000C
:10292000204600F01FF8022084F83D00211D206899
:1029300001F0A8FA012084F8460084F83E0084F8EB
:102940003F0084F8400084F8410084F8420084F895
:10295000430084F8440084F8450084F83D000020DA
:1029600010BD000008B501681A48814209D11A4813
:10297000016841F001010160006800F00100009071
:1029800008BD1548154A001F91420ED1016841F05B
:10299000040101600068002200F0040000900121A1
:1029A0001E20FFF741FB1E2010E00D4A9142E7D1A7
:1029B000016841F0080101600068002200F0080091
:1029C000009011463220FFF72FFB3220BDE808406F
:1029D000FFF71CBB000001404438024000080040E3
:1029E000000C004090F83D10012901D001207047F3
:1029F000022180F83D100168CA6842F00102CA60F5
:102A000000680E4988420ED0B0F1804F0BD00C49BF
:102A1000884208D00B49884205D00B49884202D031
:102A20000A49884204D1816801F00701062903D0D0
:102A3000016841F001010160002070470000014081
:102A40000004004000080040000C0040004001402D
:102A500070B5044690F83C000025012817D00126E7
:102A600084F83C60022084F83D002068826822F0EF
:102A7000770222F47F4282600868502838D00DDC4B
:102A800020284FD005DC90B3102811D14AE0022055
:102A900070BD302846D040280AD13BE060282FD0B6
:102AA00070280DD0B0F5805F03D0B0F5005F12D074
:102AB000012584F83D60002084F83C00284670BD64
:102AC000CB68D1E90121206801F035FA20688168DE
:102AD00041F0770109E0CB68D1E90121206801F0DC
:102AE0002AFA2068816841F480418160E1E719E0B9
:102AF000CA684968206801F0D3FA5021206806E0CE
:102B0000CA684968206801F0DCFA6021206801F099
:102B10001CFACEE7CA684968206801F0C1FA402172
:102B20002068F4E7226801461046F0E72DE9F041FD
:102B30000D46040003D094F83D0018B108E00120D0
:102B4000BDE8F081002084F83C00204600F040F809
:102B5000022084F83D002068816844F20702914316
:102B60008160211D206801F08DF9226890689169CB
:102B7000166A2B68AF69034340F20330814341EA90
:102B80000721A868EF6908434FF6FC418843E968CC
:102B900040EA0720014328692F6A000140EA073014
:102BA000084369686D6926F0AA0646EA05152943B7
:102BB00093602268906154F8460B0162012004F88A
:102BC0001F09E0752076E0762077A0750020B7E732
:102BD00030B587B0044614216846FDF79DFC2A48AD
:102BE00024680022284910380223B4F1804F27D0EE
:102BF000264DAC4222D10C6844F002040C600968F6
:102C000001F002010591016841F0020101600068D4
:102C1000694600F00200059030200090CDE90132B5
:102C20001B48CDE90323FFF78FF8002202211D2066
:102C3000FFF7FAF95FF01D00FFF7E8F907B030BDC4
:102C40000C6844F001040C60096801F00101059171
:102C5000016841F0010101600068694600F001006F
:102C6000059048F202000090CDE901320120CDE943
:102C700003200848FFF768F8002202211C20FFF714
:102C8000D3F91C20D8E7000040380240000400407F
:102C9000000402400000024070B590F83E60044617
:102CA00090F83F5090F8423090F84320022021B134
:102CB00004290ED0012E1BD114E0012E18D1012BB6
:102CC00016D184F83E0084F84200012200212068D9
:102CD00020E0012D0CD1012A0AD184F83F0084F8AC
:102CE000430014E0012D03D1012B01D1012A01D0B1
:102CF000012070BD84F83E0084F83F0084F8420053
:102D000084F8430001220021206801F007F9012224
:102D10000421206801F002F92068016841F00101F6
:102D20000160002070BD704770B5044600680169FD
:102D30004FF00005C943890715D4C168C943890705
:102D400011D4E91E01610120207720688069800785
:102D5000204602D0FFF7E7FF04E000F0C5F8204668
:102D600000F057F9257720680169C943490717D44E
:102D7000C168C943490713D46FF0040101610220FF
:102D800020772068806910F4407F204602D0FFF74A
:102D9000CAFF04E000F0A8F8204600F03AF92577D1
:102DA00020680169C943090716D4C168C9430907E6
:102DB00012D46FF008010161042020772068C069F7
:102DC0008007204602D0FFF7AEFF04E000F08CF849
:102DD000204600F01EF9257720680169C943C9061D
:102DE00017D4C168C943C90613D46FF0100101613B
:102DF000082020772068C06910F4407F204602D068
:102E0000FFF791FF04E000F06FF8204600F001F9B1
:102E1000257720680169C943C90708D1C168C9433A
:102E2000C90704D1891E0161204600F061F92068BC
:102E30000169C943090609D4C168C943090605D413
:102E40006FF0800101612046FFF7F4FC2068016902
:102E5000C943490609D4C168C943490605D46FF07E
:102E600040010161204600F0E9F920680169C94389
:102E700089060BD4C168C943890607D46FF02001C5
:102E800001612046BDE87040FFF7D5BC70BD000071
:102E900010B586B0044614216846FDF73DFB0F4986
:102EA0002068884217D10E480021026842F00102D2
:102EB0000260006800F0010005904FF4407000903F
:102EC0000220CDE90101032003900120049069460E
:102ED0000448FEF739FF06B010BD000000000140B5
:102EE0003038024000000240704770B5044690F848
:102EF0003C0000260D4601280FD0012084F83C003C
:102F00006AB1042A1DD0082A2FD00C2A3FD00126EE
:102F1000002084F83C00304670BD022070BD20685F
:102F200001F01CF82068816941F008018161206886
:102F3000816921F004018161206881692A69114356
:102F400011E0206801F032F82068816941F40061E5
:102F500081612068816921F48061816120688169D3
:102F60002A6941EA02218161D2E7206801F04AF82A
:102F70002068C16941F00801C1612068C16921F080
:102F80000401C1612068C1692A69114311E0206808
:102F900001F064F82068C16941F40061C1612068F2
:102FA000C16921F48061C1612068C1692A6941EA6F
:102FB0000221C161ACE710B5040003D094F83D00D4
:102FC00010B107E0012010BD002084F83C0020462D
:102FD00000F01EF8022084F83D00211D206800F05A
:102FE00051FF012084F8460084F83E0084F83F0039
:102FF00084F8400084F8410084F8420084F84300DB
:1030000084F8440084F8450084F83D00002010BD99
:103010007047704730B500250446022249B10429A3
:1030200012D0082944D094F8410001284BD0012047
:1030300030BD94F83E000128F9D184F83E20206884
:10304000C26842F0020209E094F83F000128EED184
:1030500084F83F202068C26842F00402C260012266
:10306000206800F05BFF1D492068884203D1426C54
:1030700042F400424264206888420ED0B0F1804F92
:103080000BD01749884208D01649884205D0164906
:10309000884202D01549884204D1816801F00701B5
:1030A000062903D0016841F001010160284630BDC6
:1030B00094F840000128BAD184F840202068C26802
:1030C00042F00802CAE784F841200C2901D001250A
:1030D000ECE72068C26842F01002BFE70000014040
:1030E0000004004000080040000C00400040014087
:1030F0002DE9F04100684749474C884202D12189B7
:10310000491C21814549884246D1E0880025401C60
:1031100080B2E080E189491CE1816189491C6181BB
:10312000A189491CA181A169491CA161216B491C8C
:103130002163B0F5FA7F06D3208A401C2082E58007
:1031400037A0FDF71BF901213948FEF7EDFE0126F6
:1031500020B3656465636565364F4FF400413846BA
:10316000FEF7E2FE012828D0A564A563C4F85850F4
:103170004FF480413846FEF7D7FE01282CD0E56495
:10318000E563E5654FF480512B48FEF7CDFE01283D
:1031900031D0256525642566BDE8F081606C401C52
:1031A0006064072807DB606D08B16564D4E7666377
:1031B00066656564D0E76563CEE7A06C401CA064DB
:1031C000072807DBA06D08B1A564D1E7A663A66553
:1031D000A564CDE7A563CBE7E06C401CE06407285D
:1031E00007DBE06D08B1E564CCE7E663E665E5641E
:1031F000C8E7E563C6E7206D401C2065072807DBAC
:10320000206E08B12565C7E7266426662565C3E7F5
:103210002564C1E70008004000000020000C0040C9
:1032200068656C6C6F20776F726C640A0000000038
:10323000000002400008024000040240704770474E
:10324000704770B5040004D094F83D00002510B11B
:1032500006E0012070BD84F83C50204600F022F8C2
:10326000242084F83D002068C16821F40051C16029
:10327000204600F0E1FF2068016921F490410161DE
:103280002068416921F02A0141612068C16841F448
:103290000051C1602564202084F83D0084F83E0080
:1032A000002070BD10B586B0044614216846FDF7B5
:1032B00033F913492068884220D11248002102685E
:1032C00042F010020260006800F0100005900D4806
:1032D0001438026842F002020260006800F0020046
:1032E0000590C02000900220CDE901010320039049
:1032F0000720049069460448FEF726FD06B010BD7D
:1033000000100140443802400004024090F83E3072
:10331000202B0ED159B152B190F83C30012B08D07E
:10332000012380F83C300023036301F00BB8012037
:103330007047022070477047704700002DE9F8433E
:10334000044690F83D001F4616460D4620284CD1F5
:10335000C5B1BEB194F83C00012846D0012084F8E4
:103360003C004FF00008C4F84080212084F83D0064
:10337000FEF7ECFDA6848146E684A068B0F5805F88
:1033800003D004E00120BDE8F883206928B12E466F
:103390005FF0000584F83C800EE00026FAE780210B
:1033A000204601F019F8A0B9AEB116F8010B21685A
:1033B0004860E08C401EE084E08C4B464FF00002F9
:1033C00000970028EBD14FF04001204601F004F8AF
:1033D00030B10320D7E735F8020BC0F30800E6E769
:1033E000202084F83D000020CDE70220CBE7FEE757
:1033F0007FB500212648009101910291234A039153
:10340000026001244FF480320461C0E90121047696
:1034100080F820101F4AC0E90A210425C561C16057
:1034200080F830404161FEF704FA08B1FEF755F923
:103430000620CDE900040724694615480294FEF7EA
:103440004FF908B1FEF749F90220CDE9004069467D
:103450000F48FEF745F908B1FEF73FF90820009044
:103460000320019069460A48FEF73AF908B1FEF7D1
:1034700034F90920CDE9000569460548FEF730F921
:10348000002801D0FEF729F97FBD0000002001408F
:10349000080600200100000F114808B5016841F43A
:1034A00080010160016801F480010091016841F42C
:1034B000001101600068002200F400100090114625
:1034C0000F20FEF7B1FD0F20FEF7A0FD00221146F0
:1034D0003820FEF7A9FDBDE808403820FEF796BD6C
:1034E000303802402DE9F04387B014216846FDF7DB
:1034F00013F83D480024016841F0040101600168AF
:1035000001F004010591016841F08001016001684A
:1035100001F080010591016841F00101016001683D
:1035200001F001010591016841F0020101600068AC
:10353000012200F002002D4F550305902946384620
:10354000FEF7FFFCDFF8A88000221C214046FEF7B2
:10355000F8FCDFF8A090002244F204014846FEF790
:10356000F0FC012229464846FEF7EBFC01229102BD
:103570004046FEF7E6FC00950125CDE90154694679
:1035800038460394FEF7E0FB4FF4404002268DE8F6
:10359000510069463846FEF7D7FB41F201008DE83D
:1035A000310069464046FEF7CFFB40F21C400090D8
:1035B000CDE90154694640460394FEF7C5FB46F247
:1035C00004000090CDE90154694648460394FEF793
:1035D000BBFB28038DE8510069464846FEF7B4FB63
:1035E00007B0BDE8F0830000303802400008024018
:1035F0000000024000040240104810B50E4901606E
:103600004FF48271416000218160C1604FF400720B
:103610000161C0E905121022C0E9072141628162FF
:103620000A21C162FEF7D5FF002803D0BDE8104093
:10363000FEF753B810BD000000380040B00600206F
:1036400010B596B000240F94109411941294139412
:103650001C2168461494FCF75FFF202107A8FCF7A3
:103660005BFF2D482B4901605321C0E9011440F252
:10367000E731C0E903148021C0E90541FFF744F9AF
:1036800008B1FEF72AF84FF480500F900FA9224896
:10369000FFF7DEF908B1FEF720F81F48FFF78BFCB3
:1036A00008B1FEF71AF8139413A91B481494FFF7F6
:1036B000EDF808B1FEF711F86020CDE9000402949E
:1036C0000394049405940022694613480694FFF776
:1036D0000CFC08B1FEF701F8042269460E48FFF71A
:1036E00004FC08B1FDF7F9FF0794089409944FF41E
:1036F00000500A94CDE90B4007A907480E94FFF744
:103700009BF808B1FDF7E9FF0348FFF7C1FB16B0CE
:1037100010BD0000000001406807002010B58CB00B
:1037200024216846FCF7F8FE0024164809944FF05F
:1037300080410A94C0E900144FF6FF71C0E90241CC
:103740008021046181610320CDE900040120CDE9DD
:1037500002040494CDE90540079469460948089499
:10376000FFF7E4F908B1FDF7B8FF099409A9054886
:103770000A94FFF78BF8002801D0FDF7AEFF0CB0DC
:1037800010BD0000B007002010B58CB024216846A1
:10379000FCF7C2FE00241648099414490A94C0E9B3
:1037A00000144FF6FF71C0E902418021046181617C
:1037B0000120CDE90004CDE902040494CDE90540DF
:1037C000079469460A480894FFF7B0F908B1FDF775
:1037D00084FF099409A906480A94FFF757F80028BE
:1037E00001D0FDF77AFF0CB010BD000000040040CE
:1037F000F807002010B586B0002417480094019403
:103800000294039404941349059401605321C0E980
:1038100001146321C0E9031480218161FFF774F86A
:1038200008B1FDF75AFF4FF48050009069460A48EE
:10383000FFF70EF908B1FDF750FF049404A90648FC
:103840000594FFF723F8002801D0FDF746FF06B0E6
:1038500010BD0000000800404008002010B586B0F0
:10386000002417480094019402940394049413498B
:10387000059401605321C0E9011440F2E731C0E929
:10388000031480218161FFF73FF808B1FDF725FFA0
:103890004FF48050009069460948FFF7D9F808B105
:1038A000FDF71BFF049404A905480594FEF7EEFFFD
:1038B000002801D0FDF711FF06B010BD000C00403C
:1038C000880800200C4810B50A4901604FF4E13126
:1038D0004160002181600C22C160C0E90412816155
:1038E000C161FFF7AEFC002803D0BDE81040FDF732
:1038F000F4BE10BD00100140D0080020FEE7FEE736
:1039000010B50446B031C8B2012100F05FF91020B3
:1039100040EA1410012100F059F904F00F00BDE84D
:10392000104040F00100012100F050B970B50024B2
:1039300004F1B000C0B2012100F048F901210020DB
:1039400000F044F90121102000F040F90025002189
:10395000084600F03BF96D1CEDB2802DF7D3641CD6
:10396000E4B2082CE4D370BD10B50121AE2000F004
:103970002DF90121022000F029F90121102000F089
:1039800025F90121402000F021F90121812000F0DA
:103990001DF90121FF2000F019F90121A12000F0FB
:1039A00015F90121C82000F011F90121A82000F02B
:1039B0000DF901213F2000F009F90121D32000F089
:1039C00005F90121002000F001F90121D52000F0C6
:1039D000FDF80121802000F0F9F80121D92000F044
:1039E000F5F80121F12000F0F1F80121DA2000F0D2
:1039F000EDF80121122000F0E9F80121DB2000F0B0
:103A0000E5F80121402000F0E1F80121202000F03C
:103A1000DDF80121022000F0D9F801218D2000F00D
:103A2000D5F80121142000F0D1F80121A42000F0E4
:103A3000CDF80121A62000F0C9F80121AF2000F047
:103A4000C5F8BDE81040FFF771BF00002DE9F04157
:103A50000F4C10484FF400512268A2B100220E46CC
:103A60000746FEF76EFA0C4D2888062809D9012270
:103A700031463846FEF765FAFFF776FF00202060F2
:103A80002880BDE8F081BDE8F0410122FEF759BA77
:103A90002C000020000402400E0000202DE9F0411F
:103AA000203A0024D6B21D4607461A46062B21D0DE
:103AB0004D1C0C2A2ED0102B1AD13846FFF720FFB0
:103AC000234800EB06160021305D00F07FF8641CEF
:103AD000E4B2082CF7D3E9B23846FFF711FF082407
:103AE0000021305D00F072F8641CE4B2102CF7D3B2
:103AF000BDE8F081FFF704FF164806EB460100EB36
:103B000041060021305D00F061F8641CE4B2AC4273
:103B1000F7D3EDE73846FFF7F3FE0F4906EB460013
:103B200001EB80060021305D00F050F8641CE4B227
:103B3000062CF7D3E9B23846FFF7E2FE062400214F
:103B4000305D00F043F8641CE4B20C2CF7D3CFE7EF
:103B500040520008A44B0008CC4D00082DE9F05F4E
:103B6000002491468B4606461F46082B03D900BF0A
:103B70004FEAD70001E04FF00100824602D94FEA38
:103B8000570500E01D464FF08000B0FBF5F0A0F1B6
:103B90000100C0B215FB00F0A0F101080FE03B46A8
:103BA00059463046FFF77AFF7019C6B2B04504DABD
:103BB0000BEB0A00002600F0FF0B641CE4B219F8BE
:103BC0000420002AEBD1BDE8F09F000073B50B4D37
:103BD0004FF4804409B1002200E00122214628462A
:103BE000FEF7AFF9012269460548FEF7A1FD012263
:103BF00021462846FEF7A5F97CBD000000040240DE
:103C0000B0060020704710B5806B01684A6822F04A
:103C100003024A60416D41F010014165012180F8C5
:103C20005110FEF7D5FC10BD10B5806BFEF7EDFD11
:103C300010BD38B50546846BFEF788F90246286842
:103C40000068C00523D42068416821F0200141604C
:103C50002068416821F0020141606421204600F0A3
:103C60001BF818B1606D40F020006065A06800216D
:103C700018B92068C26880680090E186012084F845
:103C80005100606D18B12046FEF7A2FC38BD2046F9
:103C9000FEF7BAFD38BD000038B504461248134B94
:103CA0000068B0FBF3F04FF47A73584300906068FB
:103CB000B0F5827F0DD10B46009200228021204674
:103CC00000F016F870B1606D40F0200060650320D0
:103CD00038BD009830B1401E009020688068C04315
:103CE0000006F6D5002038BD7400002000366E01B5
:103CF0002DE9F8431E46914688460446089DFEF786
:103D000025F9401B351AFEF721F9074625480068BA
:103D1000C0F3CB30684338E0701C37D0FEF716F99B
:103D2000C01BA84203D215B1009860B32CE02068F4
:103D3000416821F0E00141606068B0F5827F0BD1FD
:103D4000A068B0F5004F02D0B0F5806F04D12068B4
:103D5000016821F040010160A06AB0F5005F09D15F
:103D60002068016821F4005101602068016841F475
:103D700000510160012084F85100002084F85000B7
:103D80000320BDE8F8830025401E0090206881686C
:103D900038EA010004D000214945BDD10020F0E7F8
:103DA0000121F9E7740000207047FEF7D5B8000044
:103DB00030B593B030216846FCF7AEFB14210CA857
:103DC000FCF7AAFB1D480025016841F08051016005
:103DD000006800F0805011901948016821F44041BA
:103DE00041F4004101600068022400F44040119059
:103DF00001200090000401908001CDE906401920C7
:103E00000890A820CDE9090404200B906846FEF72D
:103E100029FA08B172B6FEE70CA90F2081E831003B
:103E20004FF48050CDE90F0502210CA8FEF72EF9C2
:103E3000002801D072B6FEE713B030BD4038024012
:103E4000007000400248016841F470010160704751
:103E500088ED00E00148FEF767BF0000B0070020D2
:103E60000148FEF761BF0000F80700200148FEF797
:103E70005BBF0000400800200148FEF755BF00006E
:103E800088080020F0B502681D4B1E4C9F031E4D94
:103E90001E4E984207D0B84205D0A04203D0A84297
:103EA00001D0B04204D122F0700C4A6842EA0C0200
:103EB000984210D0B8420ED0A0420CD0A8420AD0EE
:103EC000B04208D0124CA04205D0124CA04202D001
:103ED000114CA04203D122F44074CA6822434C69B9
:103EE00022F08002224302608A68C2620A6882620B
:103EF000984201D10969016301214161F0BD0000CF
:103F0000000001400004004000080040000C004098
:103F100000400140004401400048014010B501F05C
:103F20001F030121046A99408C430462016A9A408C
:103F30001143016210BD10B5846842EA032224F4E3
:103F40007F440A432243826010BD826822F07002DF
:103F50000A4342F0070181607047000030B5026AF1
:103F600022F001020262026A4368846924F0730548
:103F70000C682C4322F002058A682A430A4DA842A5
:103F80000BD122F00805CA6823F440732A434D6917
:103F900022F004021D438B692B434360846149680E
:103FA0004163026230BD00000000014030B5026A8A
:103FB00022F010020262026A436884690D6824F4E8
:103FC000E64444EA05248D6822F0200242EA051204
:103FD0000B4DA8420ED1CD6822F0800242EA0512B4
:103FE0004D6923F4406343EA85038D6922F0400262
:103FF00043EA85034360846149688163026230BD9E
:104000000000014030B5026A22F480720262036A45
:104010004268C46923F4007324F073050C682C43D0
:104020008D6843EA05230C4DA8420ED1CD6823F4D8
:10403000006343EA05234D6922F4405242EA051227
:104040008D6923F4806342EA05124260C4614968C5
:10405000C163036230BD00000000014030B5026A58
:1040600022F480520262046A4268C3690D6823F434
:10407000E64343EA05238D6824F4005444EA0534FA
:10408000064DA84204D14D6922F4804242EA8512CD
:104090004260C36149680164046230BD00000140B0
:1040A00010B5036A046A24F001040462846924F0F0
:1040B000F00444EA021423F00A020A438461026213
:1040C00010BD10B5036A23F0100303628369046A0C
:1040D00023F4704343EA023224F0A00343EA0111BF
:1040E0008261016210BD70B5846B2068406994F8EC
:1040F0003D10C0F3C0100025212904D118B1E5847A
:10410000204600F08AF82068406994F83E10C0F319
:104110008010222904D118B1E585204600F056F818
:10412000206C40F0100020642046FFF789F870BD35
:1041300010B50146806B09680968C9052FD40021B4
:10414000C18501680C3151E8002F22F4807241E8EA
:104150000023002BF5D10168143151E8002F22F023
:10416000010241E80023002BF5D10168143151E828
:10417000002F22F0400241E80023002BF5D120213E
:1041800080F83E10016B012909D101680C3151E81A
:10419000002F22F0100241E80023002BF5D1016B23
:1041A000012902D0FFF7C7F810BD818DFFF747F84E
:1041B00010BD10B5806B016B012902D0FFF7BCF870
:1041C00010BD818D4908FFF73AF810BD01680C3128
:1041D00051E8002F22F4907241E80023002BF5D122
:1041E0000168143151E8002F22F0010241E8002358
:1041F000002BF5D1016B012909D101680C3151E87F
:10420000002F22F0100241E80023002BF5D12021DD
:1042100080F83E1000210163704701680C3151E8BD
:10422000002F22F0C00241E80023002BF5D120210D
:1042300080F83D107047000070B5044600680169C1
:10424000E26821F44051114301612169A068E269EB
:1042500008436169114308432168CA6849F20C6345
:104260009A430243CA6020684169A26921F44071FF
:104270001143416131492068884202D03049884267
:1042800002D1FDF7ADFF01E0FDF79AFFE2690023DF
:10429000192164253226B2F5004F626828D0A0FBB0
:1042A0000101930F9200FBF7F2FF0146B0FBF5F01E
:1042B0006FF01802504301EB800006EB0010B0FBDA
:1042C000F5F000F0F002B1FBF5F002EB0012B1FBEB
:1042D000F5F06FF01803584301EB800006EB001077
:1042E000B0FBF5F000F00F0021681044886070BD4D
:1042F000A0FB010192185B41FBF7C9FF0146B0FB2F
:10430000F5F00201B1FBF5F06FF01803584301EB33
:10431000800006EBC000B0FBF5F000F0F80002EB07
:104320004002B1FBF5F0584301EB800006EBC00002
:10433000B0FBF5F000F00700D6E7000000100140E8
:104340000014014038B58162828500251346044679
:104350000564222084F83E00A26B1C48D063A26B47
:104360001B481064A26B1B48D064A06B0A4605650D
:104370002168A06B091DFDF7AFFC2068016840684B
:10438000009084F83C50206948B120680C3050E817
:10439000001F41F4807140E80012002AF5D1206826
:1043A000143050E8001F41F0010140E80012002ADB
:1043B000F5D12068143050E8001F41F0400140E87A
:1043C0000012002AF5D1002038BD0000314100085C
:1043D000B3410008E74000082DE9F0419846174630
:1043E0000E460446069D27E0681C25D02DB1FDF73A
:1043F000ADFDA0EB0800A8421ED920680C3050E8A3
:10440000001F21F4D07140E80012002AF5D1206885
:10441000143050E8001F21F0010140E80012002A8A
:10442000F5D1202084F83D0084F83E00002084F877
:104430003C000320BDE8F0812068006836EA0000F7
:1044400004D00020B842CFD00020F3E70120F9E7E4
:10445000FEE703B401984100009850EAC12018BF5C
:1044600004204A0D18BF40F0010040F2FF72B2EB89
:10447000515F08BF40F00200012808BF052002B0CC
:1044800070470907090E002804DB00F1E02080F8DE
:104490000014704700F00F0000F1E02080F8141DB8
:1044A000704730380A2801D2012070470020704739
:1044B0007047000013B54FF6FF73012269460248AA
:1044C000FEF73CFF00981CBDD0080020FDF74CFD16
:1044D000FFF76EFCFFF706F8FEF7DEFFFFF7B0F818
:1044E000FFF71CF9FFF7BAF9FFF7ECF9FFF74CF902
:1044F000FEF77EFFFFF77EF9FFF77EF8F948FEF73B
:1045000071FAF948FEF76EFAF848FEF76BFAF848C8
:10451000FEF768FAF748FEF765FA0021F148FEF762
:1045200079FD0421EF48FEF775FD3C21EE48FEF7CA
:10453000B3FB3C21ED48FEF7AFFB0222EE49EF480A
:10454000FEF7E4FE6422EE49EE48FDF7F9F9FFF7C5
:104550000BFA4FF4FA784FF47A7A40F2DC5B4FF6BC
:1045600098774FF00109E44C0026123C26719FED2C
:10457000E60AE34984ED090A84ED0A0A84ED070A94
:1045800084ED080AF0EE401AB0EE401AF0EE400A50
:10459000207951F82020401C02EE102AC0B2B8EE5B
:1045A000422A51F8202072EE211A02EE102A401CF5
:1045B000C0B2B8EE422A51F8202032EE011A02EEC3
:1045C000102A401CC0B2B8EE422A51F8202072EEE8
:1045D000200A02EE102A401CC0B2B8EE422A207116
:1045E0003C2832EE000AD3D3B2EE0E2AC1EE822A64
:1045F000C1EE021AC4ED072A80EE821AC4ED081A31
:10460000C0EE020A84ED091AC4ED0A0AFFF71EFA89
:10461000206B7B2844DDE06900F04CFA41EC100B84
:10462000BAA153EC102BBD48FBF7B4FE206A00F092
:1046300041FA41EC100BBAA153EC102BBC48FBF72C
:10464000A9FE606A00F036FA41EC100BB9A153ECF8
:10465000102BBB48FBF79EFEA06A00F02BFA41EC42
:10466000100BB8A153EC102BB948FBF793FE0021B7
:104670001023AA4A0846FFF771FA1023AC4A022118
:104680000020FFF76BFA1023AD4A04210020FFF74A
:1046900065FA1023AE4A06210020FFF75FFA266371
:1046A0006078002871D0D4ED070A94ED080AA94972
:1046B00030EEC01AB0EEC11A11EE100A88420CDBBF
:1046C000F4EEC00AF1EE10FA03DD4FF44871A2488F
:1046D0006BE0A1494FF4487067E011EE100A9F4962
:1046E00088420EDBF4EEC00AF1EE10FA04DD9A48BF
:1046F0004FF43E71643058E097494FF43E70643196
:1047000053E011EE100A9649884209DBF4EEC00A24
:10471000F1EE10FA02DD4FF4167141E000210EE0D7
:1047200011EE100A8F4988420CDBF4EEC00AF1EE5C
:1047300010FA03DD4FF41671962036E096214FF4FF
:10474000167032E011EE100A874988420BDBF4EE56
:10475000C00AF1EE10FA03DD4FF41671481024E0A0
:104760004FF49671EBE711EE100A804988420DDB99
:10477000F4EEC00AF1EE10FA04DD4FF416714FF4B6
:10478000E17012E04FF4E171D9E72FE010EE900AEA
:104790007749884206DA10EE100A884202DA0021D0
:1047A000002002E04FF45C70014600F000F925465D
:1047B000D5E90501814219D90021084600F0F7F832
:1047C00000224FF480616B48FDF7BBFB4FF40051B2
:1047D0006948FDF7AEFB287860B100202870002101
:1047E0006E81084600F0E3F82E82AE61606B01280E
:1047F00002D007E00120F1E74FF400515E48FDF7D9
:1048000098FB6663A06B01280FD141035A48FDF75E
:1048100090FB207880B10020207066810021254621
:104820000846A66300F0C3F82E82207830B3608972
:10483000404503D2002205E00120EDE72146504526
:1048400006D201224FF480614A48FDF77AFB11E05D
:104850005845EFD3B0F5FA6FF3D340F6C412904247
:1048600003D28E6184F80190E4E740F6B8329042BA
:10487000E7D36781E06B012802D012E06670F8E7A9
:104880004FF400513C48FDF754FBA07880B1002064
:10489000A070A681002125460846E66300F087F84F
:1048A0002E82A078E0B1A089404503D2002205E025
:1048B0000120EDE72146504506D201224FF48061E8
:1048C0002C48FDF73EFB63E05845EFD3B0F5FA6F97
:1048D000F3D340F6C412904250D284F80390E5E737
:1048E00054E0000068070020B0070020F80700200F
:1048F000400800208808002012000020D008002076
:10490000780400200806002000000000584A5F4C90
:10491000203D2025342E3266200000007800002043
:10492000584A5F52203D2025342E32662000000078
:10493000780100205231203D2025342E326620009F
:10494000780200205232203D2025342E326620008D
:10495000780300200000C8440CFEFFFF00007A44EA
:104960000000164400009643000048430000C8427F
:1049700000004842000002400008024040F6B83201
:1049800090429AD38F8184F8039001E0E670A7816A
:10499000206C012803D1C4F82C90E681266420897C
:1049A0004EF6602188427FF6DEAD2681DBE510B54C
:1049B0000C460146012000F007F82146BDE81040F2
:1049C000022000F001B8000070B52A4A0C46274EBC
:1049D000274D5142012814D0022811D1002C34DA7D
:1049E000944200DA1446002208213046FDF7A9FA65
:1049F000012210213046FDF7A4FA2968604288633D
:104A000070BD1D4B002C10DA944200DA14460022CF
:104A100004211846FDF795FA012204213046FDF7DE
:104A200090FA29686042486370BD8C4200DD0C46F4
:104A3000012204211846FDF784FA002204213046A1
:104A4000FDF77FFA2868446370BD8C4200DD0C4698
:104A5000012208213046FDF774FA00221021304669
:104A6000FDF76FFA2868846370BD00000000024003
:104A70006807002018FCFFFF0004024010B5002961
:104A80000AD00878002807D005487844FCF7E0F8F9
:104A9000002801D0002010BD0248784410BD00005D
:104AA0001A1A0000121A00000808A0F500114FEAB7
:104AB0003101704743004FEAD30C4FEA3C0C4340AE
:104AC0001FBF40070CF1605113F0FE4F70471CF000
:104AD000006F03D100200CF0004170470CF0004340
:104AE00043EA507010B540EACC0000F00EF800BF69
:104AF000000000924FEA0001FFF7D6BF4FF00041DF
:104B00004FF00000A1F5002170470EF1020E2EF0CB
:104B1000030E5EF8044B244204D44FEA4102B2F182
:104B20007F4F11D84FEA4003B3F17F4F0CD80ED11D
:104B30004FEAD07CB2F17F4F0CEB4C0C0CF1020C25
:104B400008BF4CEBD17C04E04FF0080C01E04FEAC9
:104B5000D17C0CEB4C0324FA03F404F00704B4F109
:104B6000040C06D20EEB840CBDE810404CF0010C96
:104B70006047DFE80CF0070802024FF00040A0F5A4
:104B8000800010BD0846420018BFD2F1807288BF75
:104B900000F0004010BD4FF04070E1EE100A704789
:104BA000FBF7BEBD0000000000000000002F000069
:104BB00000000700070000147F147F1400242A7FE0
:104BC0002A1200626408132300364955225000005F
:104BD0000503000000001C224100000041221C00CF
:104BE0000014083E08140008083E0808000000A051
:104BF000600000080808080800006060000000204D
:104C000010080402003E5149453E0000427F40002A
:104C1000004261514946002141454B3100181412B0
:104C20007F10002745454539003C4A49493000017D
:104C30007109050300364949493600064949291ECC
:104C4000000036360000000056360000000814222E
:104C5000410000141414141400004122140800022E
:104C60000151090600324959513E007C1211127C53
:104C7000007F49494936003E41414122007F414180
:104C8000221C007F49494941007F09090901003E72
:104C90004149497A007F0808087F0000417F4100B0
:104CA000002040413F01007F08142241007F404026
:104CB0004040007F020C027F007F0408107F003E0E
:104CC0004141413E007F09090906003E4151215EF4
:104CD000007F091929460046494949310001017FF1
:104CE0000101003F4040403F001F2040201F003F87
:104CF0004038403F00631408146300070870080739
:104D000000615149454300007F41410000552A554B
:104D10002A55000041417F000004020102040040C6
:104D200040404040000001020400002054545478E8
:104D3000007F484444380038444444200038444408
:104D4000487F00385454541800087E0901020018A6
:104D5000A4A4A47C007F080404780000447D4000E3
:104D6000004080847D00007F102844000000417FC7
:104D70004000007C04180478007C080404780038A3
:104D80004444443800FC242424180018242418FC2B
:104D9000007C0804040800485454542000043F4494
:104DA0004020003C4040207C001C2040201C003C57
:104DB0004030403C004428102844001CA0A0A07CA7
:104DC000004464544C4414141414141400000000DF
:104DD000000000000000000000007C000000000057
:104DE00002000000000403040300000000000000B3
:104DF00090FC90FC90000003000300001824FE4487
:104E000088000102070201003844F8D02CC00003DA
:104E100000010201C038E418E02001020201020191
:104E20000403000000000000000000000000F8067D
:104E30000100000000030400000106F80000000467
:104E4000030000009060F860900000000100000086
:104E5000002020F8202000000000000000000000DA
:104E6000000004030000000020202020202000007B
:104E70000000000000000000000000020000000030
:104E80000000C0300C02040300000000F804040419
:104E9000F8000102020201000008FC00000000020C
:104EA00003020000188444241800030202020200D6
:104EB00008042424D800010202020100C0A098FCCA
:104EC00080000000020302007C242424C4000102AC
:104ED00002020100F0482424C8000102020201007D
:104EE0000004C4340C00000003000000D824242473
:104EF000D80001020202010038444424F8000102F3
:104F0000020100000000100000000000020000008C
:104F10000000200000000000060000000060900873
:104F2000040000000001020050505050505000009A
:104F30000000000000040890600000020100000072
:104F40001804C4241800000002000000F008E4F473
:104F5000847800010202020100E09CF0800002035C
:104F60000000030204FC2424D80002030202010012
:104F7000F80404040C0001020202010004FC040411
:104F8000F80002030202010004FC24740C00020376
:104F90000202030004FC24740C000203020000005F
:104FA000F0080444CC4000010202010004FC20206F
:104FB000FC040203000003020404FC0404000202D7
:104FC00003020200000404FC04040C0808070000AB
:104FD00004FC24508C0402030200030204FC0400BD
:104FE0000000020302020203FC3CC03CFC0403007C
:104FF0000300030204FC30C4FC04020302000300AB
:10500000F8040404F80001020202010004FC242454
:105010001800020302000000F8848404F800010272
:105020000207050004FC2464980002030200030246
:10503000182424448C000302020201000C04FC0426
:105040000C0000020302000004FC0000FC0400014C
:1050500002020100047C80E01C0400000300000048
:105060003CC07CC03C00000300030000049C609C2A
:105070000400020300030200043CC03C04000002E0
:10508000030200000C84641C0400020302020300FB
:105090000000FF010100000007040400000638C002
:1050A0000000000000010600000101FF00000004F4
:1050B00004070000000201020000000000000000E0
:1050C00000000000000008080808080800010200AD
:1050D00000000000000000000040A0A0C00000018F
:1050E0000202030202FE2020C000000302020100AF
:1050F00000C02020600000010202010000C0202248
:10510000FE0000010202030200C0A0A0C0000001D6
:10511000020202000020FC2222040002030202001C
:105120000040A0A0602000050A0A0A0402FE202018
:10513000C0000203020003020020E600000000029B
:1051400003020000000020E6000008080807000035
:1051500002FE806020000203000102000202FE0045
:105160000000020203020200E020E020C000030071
:105170000300030020E02020C0000203020003021D
:1051800000C02020C00000010202010020E0202019
:10519000C000080F0A02010000C02020E00000014A
:1051A000020A0F0820E04020200002030200000055
:1051B0000060A0A020000002020203000020F820EE
:1051C000200000000302020020E00020E0000001B7
:1051D0000202030220E000E02000000003000000C3
:1051E0006080E080600000030003000020608060B9
:1051F000200002030003020020E00000E020080875
:10520000050300000020A06020000002030202004D
:10521000000020FF0100000000070400000000FF64
:1052200000000000000F00000001DF20000000046B
:105230000700000002010102010000000000000060
:10524000000000000000000000000000000000005E
:10525000000000F800000000000000330000000023
:1052600000100C02100C0200000000000000000002
:105270000040C07840C0780000043F04043F0400B0
:1052800000708888FC08300000182020FF211E00D4
:10529000F008F0806018000000310C031E211E0091
:1052A00000F00888700000001E21232C192721100F
:1052B00000120E00000000000000000000000000CE
:1052C000000000E018040200000000071820400061
:1052D00000020418E0000000004020180700000051
:1052E000404080F0804040000202010F01020200B5
:1052F00000000000E0000000000101010F010101B9
:10530000000000000000000000907000000000009D
:105310000000000000000000000101010101010087
:10532000000000000000000000303000000000001D
:1053300000000000C03804000060180700000000F2
:1053400000E010080810E000000F102020100F00EF
:1053500000001010F8000000000020203F20200076
:10536000007008080808F0000030282422213000CE
:1053700000300808088870000018202121221C0035
:105380000000804030F8000000060524243F24245B
:1053900000F88888880808000019202020110E00D5
:1053A00000E0108888900000000F112020201F00CE
:1053B00000180808886818000000003E010000007E
:1053C0000070880808887000001C222121221C001F
:1053D00000F008080810E0000001122222110F005E
:1053E000000000C0C00000000000003030000000DD
:1053F0000000008000000000000000E0000000004D
:105400000000804020100800000102040810200065
:105410000040404040404000000202020202020000
:105420000008102040800000002010080402010045
:105430000070480808887000000000303700000045
:10544000C030C828E810E000071827282F281700C8
:105450000000C038E0000000203C23020227382072
:1054600008F8888888700000203F202020110E0056
:10547000C03008080808380007182020201008004D
:1054800008F808080810E000203F202020100F0036
:1054900008F88888E8081000203F20202320180002
:1054A00008F88888E8081000203F2000030000006A
:1054B000C03008080838000007182020221E02000B
:1054C00008F808000008F808203F210101213F20CA
:1054D000000808F8080800000020203F20200000F5
:1054E00000000808F8080800C08080807F000000E5
:1054F00008F888C028180800203F2001263820001E
:1055000008F8080000000000203F20202020300084
:1055100008F8F800F8F80800203F013E013F20009D
:1055200008F830C00008F808203F200007183F00A6
:10553000E01008080810E0000F10202020100F00D5
:1055400008F808080808F000203F210101010000C8
:10555000E01008080810E0000F10282830504F0015
:1055600008F8888888887000203F2000030C3020CD
:1055700000708808080838000038202121221C000B
:10558000180808F8080818000000203F2000000054
:1055900008F808000008F808001F202020201F003D
:1055A0000878880000C83808000007380E0100009D
:1055B00008F800F800F8080000033E013E03000070
:1055C000081868808068180820302C03032C3020CD
:1055D0000838C800C83808000000203F200000003C
:1055E00010080808C8380800203826212020180094
:1055F000000000FE020202000000007F4040400068
:10560000000438C000000000000000010638C0009F
:1056100000020202FE000000004040407F00000047
:10562000000004020204000000000000000000006E
:10563000000000000000000080808080808080806A
:105640000002020400000000000000000000000052
:10565000000080808000000000192424123F2000F8
:1056600010F0008080000000003F112020110E008B
:105670000000008080800000000E1120202011001A
:10568000000080808090F000001F202020103F202C
:105690000000808080800000001F24242424170044
:1056A000008080E0909020000020203F202000001B
:1056B0000000808080808000006B94949493600050
:1056C00010F0008080800000203F210000203F205B
:1056D00000809898000000000020203F202000005B
:1056E000000000809898000000C08080807F00004B
:1056F00010F0000080808000203F24062930200028
:10570000001010F8000000000020203F20200000C2
:105710008080808080808000203F20003F20003FEC
:105720008080008080800000203F210000203F20FA
:105730000000808080800000001F202020201F00AB
:10574000808000808000000080FF912020110E00EA
:105750000000008080008000000E11202091FF805A
:10576000808080008080800020203F212000010078
:1057700000008080808080000033242424241900CD
:10578000008080E0808000000000001F20201000CA
:105790008080000000808000001F202020103F201B
:1057A000808080008080800000030C300C030000AB
:1057B0008080008080008080010E300C0738060158
:1057C00000808080008080000020310E2E3120007B
:1057D000808080000080808000818678180601002B
:1057E00000808080808080000021302C22213000C9
:1057F0000000000000FC020200000000013E4040EA
:1058000000000000FF00000000000000FF0000009A
:105810000202FC000000000040403E0100000000C9
:10582000000201020204020000000000000000006B
:105830000000C0E030101030E0C0000000FFFF00AA
:105840000000000000FFFF00000003070C08080C28
:10585000070300000000202020E0F000000000000E
:105860000000000000FFFF0000000000000008082A
:10587000080F0F080808000000C0A010101010301A
:10588000E0C0000000010100806030180F0300003C
:10589000000C0E0908080808080F000000E0E010DE
:1058A000101030E0C00000000000000008080C17D5
:1058B000F3C00000000707080808080C07030000F1
:1058C00000000000008040F0F00000000060504C3C
:1058D000424140FFFF404040000000000008080F28
:1058E0000F0808000000F010101010101010000039
:1058F00000809F080404040CF8F000000003050871
:105900000808080E070100000000C0E02010101079
:105910007060000000FEFF10080404040CF8F000A2
:10592000000003060C080808040701000000E0302E
:105930001010101090703000000000000080F00C7B
:105940000300000000000000000F0F000000000036
:1059500000C0E0301010101030E0C00000C1E73689
:105960000C08181834E7C1000003070408080808E9
:105970000C0703000080E0601010101060C00000F1
:10598000000F1F302020201088FF7F000000060E2F
:1059900008080804070100000000000000000000E3
:1059A0000000000000000000000E0E0E00000000CD
:1059B00000000000000E0E0E0000000000000000BD
:1059C00000000000000000000000000000000000D7
:1059D00000000000000000000000000000000000C7
:1059E00000000080C0E07030101070E0C080000047
:1059F0000000FCFFFF03000000000001FFFFFC00AF
:105A000000000F7FFFF08000000080E0FF7F0F00AC
:105A10000000000000010303020203010000000077
:105A200000000040404040E0F0F0000000000000B6
:105A300000000000000000FFFFFF00000000000069
:105A400000000000000000FFFFFF00000000000059
:105A5000000000020202030303030302020200002B
:105A6000000080C06030101010103070E0E0800046
:105A700000000707060000000080C0F07F3F0F0015
:105A8000000080C060301C0E0703010080F0F000B1
:105A900000000303030303030303030303030000E2
:105AA0000000C0E0E0301010103070E0C080000056
:105AB000000003030300404040E0F0BF9F0F0000E0
:105AC0000000F0F0F000000000000081FFFF3C004B
:105AD00000000001010302020202030101000000B4
