:020000040800F2
:10000000D80900203502000813230008111E00083B
:1000100011230008AD050008692700080000000052
:10002000000000000000000000000000172300088E
:1000300045060008000000001523000819230008E9
:100040004F0200084F0200084F0200084F0200084C
:100050004F0200084F0200084F0200084F0200083C
:100060004F0200084F0200084F0200084F0200082C
:100070004F0200084F0200084F0200084F0200081C
:10008000B10500084F0200084F0200080000000000
:100090000000000000000000000000004F02000807
:1000A000C12300084F020008DD2300084F020008AA
:1000B0004F0200084F0200084F0200084F020008DC
:1000C0004F0200084F0200084F0200084F020008CC
:1000D0004F0200084F0200084F0200080000000015
:1000E0004F0200084F0200084F0200080000000005
:1000F0000000000000000000000000004F020008A7
:10010000000000004F0200084F0200084F020008E4
:1001100000000000000000000000000000000000DF
:10012000BD0500084F0200084F0200084F020008FA
:100130004F02000800000000000000000000000066
:100140000000000000000000000000004F02000856
:100150004F0200084F0200084F0200084F0200083B
:100160004F0200084F0200080000000000000000DD
:10017000000000000000000000000000000000007F
:10018000000000004F020008000000000000000016
:100190004F02000800F002F800F03CF80AA090E8D6
:1001A000000C82448344AAF10107DA4501D100F032
:1001B00031F8AFF2090EBAE80F0013F0010F18BFC3
:1001C000FB1A43F001031847783100009831000012
:1001D000103A24BF78C878C1FAD8520724BF30C873
:1001E00030C144BF04680C60704700000023002445
:1001F00000250026103A28BF78C1FBD8520728BF37
:1002000030C148BF0B6070471FB502F05DFB1FBDDA
:1002100010B510BD00F0CFF81146FFF7F5FF02F062
:10022000C3FA00F0EDF803B4FFF7F2FF03BC00F0EF
:10023000F5F800000948804709480047FEE7FEE757
:10024000FEE7FEE7FEE7FEE7FEE7FEE7FEE7FEE786
:1002500004480549054A064B70470000B1230008D1
:1002600095010008D8030020D8090020D8050020F7
:10027000D805002053EA020C00F069802DE9F04B0C
:100280004FF00006002B1FBFB3FA83F503FA05F405
:1002900024FA05F65E4012BF1643B2FA82F502FA5E
:1002A00005F4C5F120051EBF22FA05FC44EA0C0442
:1002B000203556EA044C4FEA144418BF641C4FF032
:1002C00000084FF00009904271EB030C39D300296C
:1002D00019BFB1FA81F701FA07F6B0FA80F700FA10
:1002E00007F6C7F120071EBF20FA07FC46EA0C06F6
:1002F0002037B6FBF4FCA7EB0507103F07F01F0BF8
:10030000CBF120060CFA0BFB2CFA06F644BFB346E1
:100310000026202FA4BF5E464FF0000B5BEA060CC0
:1003200008BF4FF0010B19EB0B09ABFB027C48EB4C
:100330000608C01B06FB02CC0BFB03CC71EB0C01C7
:10034000C1E70B46024641464846BDE8F08B13B56F
:100350004FF000004FF00001AFF30080BDE81C40FB
:1003600070474FF0000200B5134694469646203978
:1003700022BFA0E80C50A0E80C50B1F12001BFF45E
:10038000F7AF090728BFA0E80C5048BF0CC05DF8C4
:1003900004EB890028BF40F8042B08BF704748BF12
:1003A00020F8022B11F0804F18BF00F8012B704786
:1003B000704770477047754600F02CF8AE46050050
:1003C0006946534620F00700854618B020B5FFF770
:1003D0003FFFBDE820404FF000064FF000074FF010
:1003E00000084FF0000B21F00701AC46ACE8C00953
:1003F000ACE8C009ACE8C009ACE8C0098D4670475C
:1004000010B50446AFF300802046BDE81040FFF76A
:100410000ABF0000004870477403002001491820FB
:10042000ABBEFEE72600020070470000464910B54B
:100430004A6822F440324A604A6843681A434A6074
:1004400001684A6822F480724A6001684A68036958
:1004500042EA03224A6001684A6822F040724A6018
:1004600001684A6883681A434A6001688A6822F40E
:1004700000628A6001688A68C3681A438A60816A78
:100480006FF07062D14201688A6822F070628A60FF
:1004900001688A680CD0836A1A438A6001688A6896
:1004A00022F040528A6001688A68C36A1A4301E0F8
:1004B00022F040528A6001688A6822F002028A6053
:1004C00001688A68037E42EA43028A6090F820103D
:1004D000002901684A680FD042F400624A6001684E
:1004E0004A6822F460424A6001684A68174C436ACD
:1004F00004EB43331A4301E022F400624A600168CE
:10050000CA6A22F47002CA620168CA6A838B104CFC
:1005100004EB03531A43CA6201688A6822F400722A
:100520008A6001688A6890F8303042EA43228A6023
:1005300001688A6822F480628A6001688A6840697A
:1005400042EA8020886010BD0023014000E0FFFFE8
:100550000000F0FF10B5144CE088401C80B2E08031
:10056000218988421ED361780120012902D1A0800F
:1005700002216170A188628991420ED2E06830F850
:100580002100217802F082F9A088E16801EB800166
:10059000401C49882181A08002E0A0800320607077
:1005A0000020E08010BD000000000020FEE70000F9
:1005B000014800F067B9000020010020014800F068
:1005C00061B900006800002001681823CAB2103A1F
:1005D000B2FBF3F2054B6FF30901032A9B5CC36581
:1005E00000D9091D816508467047000020330008C6
:1005F00010B5014600208B698A6A4FF0C07453B170
:10060000B3F5005F15D072B1012A0CD0022A0AD0CE
:10061000032A09D104E01AB1012A06D0022A03D123
:10062000C96AC90100D5012010BDC96AA142FAD02A
:1006300010BD002AF7D0012AF2D0022AF3D0032AF3
:10064000F3D010BD704772B6FEE7000078B5002405
:10065000009490F83C20012A19D0012280F83C2017
:100660000A6807230568092A13D9EE680A3A02EBDB
:10067000420293409E43EE600B788A680A3B03EB8C
:1006800043039A400368DD682A43DA6010E00220E1
:1006900078BD2E6902EB420293409E432E610B7897
:1006A0008A6803EB43039A4003681D692A431A6171
:1006B0004A681F23072A13D205686E6B521E02EB8D
:1006C000820293409E436E630B790A885B1E92B24E
:1006D00003EB83039A4003685D6B2A435A6327E068
:1006E00005680D2A12D22E6BD21F02EB82029340B4
:1006F0009E432E630B790A88DB1F92B203EB8303C0
:100700009A4003681D6B2A431A6311E0EE6A0D3AA2
:1007100002EB820293409E43EE620B790A880D3B06
:1007200092B203EB83039A400368DD6A2A43DA62DC
:10073000164B0568144A9D4206D10D68122D03D14F
:10074000556845F48005556005689D4218D10B68D1
:10075000102B01D0112B13D1536843F400035360C5
:10076000096810290CD10A490A4A0968B1FBF2F15B
:1007700001EB8101490000E0491E00910029FBD1F5
:1007800080F83C40002078BD00230140002001405B
:100790001C00002040420F0070B504004FF000051F
:1007A00003D0206C002610B107E0012070BD204668
:1007B00000F01CF8666484F83C60206CC00610D41D
:1007C000206C20F4885040F0020020642046FFF79F
:1007D0002DFE6664206C20F0020040F001002064D1
:1007E00000E0012584F83C60284670BD70B586B0F5
:1007F000064614216846FFF7B4FD1D49306888425B
:1008000033D11C480025016841F480710160006803
:1008100000F48070059017481438016841F0010118
:1008200001600068694600F0010005900320009017
:10083000CDE90105104800F05FF9114C0F48C4E9FB
:1008400000050015A560C4E90350800060618000C8
:10085000A0618011C4E907052046656200F0E2F856
:1008600008B1FFF7F0FEB463A66306B070BD0000E8
:100870000020014044380240000002401064024061
:10088000680000202DE9F84304464FF00009CDF838
:10089000009063484FF41651A56D0068B0FBF1F766
:1008A0002E6894F85C10082000FA01F131420FD054
:1008B00021680A6852070BD50A6822F004020A6010
:1008C00094F85C108840A860606D40F0010060659D
:1008D00094F85C104FF0010808FA01F0304208D09B
:1008E00021684969090604D5A860606D40F00200DE
:1008F000606594F85C1004208840304208D021687C
:100900000968890704D5A860606D40F0040060653F
:1009100094F85C1010208840304218D02168096893
:10092000090714D5A86020680168490304D5006848
:10093000000308D5A16C07E00168C90503D401686C
:1009400021F008010160216C09B12046884794F824
:100950005C1020208840304231D021680968C906E7
:100960002DD5A86094F8350005282068016806D0C8
:10097000490347D5006800031DD4616C1CE021F0D9
:10098000160101602068416921F080014161206CFD
:1009900008B9A06C20B12068016821F0080101604D
:1009A00094F85C103F208840A86084F8358084F873
:1009B0003490216D1FE0E16B09B120468847606DDE
:1009C00000282BD0606DC00714D0052084F83500B6
:1009D0002068016821F0010101600098401C00902E
:1009E000B84203D820680068C007F6D184F8358083
:1009F00084F83490E16C002910D001B02046BDE8A5
:100A0000F04308470168C905D5D4016821F01001F9
:100A1000016084F8358084F83490CCE7BDE8F88331
:100A20001C0000202DE9F041044600F063F9064661
:100A30005CB1022084F83500002584F83450206829
:100A4000016821F0010101600DE00120BDE8F081A5
:100A500000F050F9801B052805D92020606503208F
:100A600084F83500F2E720680068C007F0D12268FA
:100A7000116820480140D4E901031843D4E9033642
:100A80003343184363691843A3691843E369184360
:100A9000236A18430843616A042903D1D4E90B137C
:100AA00019430843106020684069666A20F0070116
:100AB00030460E43012704280CD1A06A0643E06AA1
:100AC00040B12046FFF794FD20B14020606584F8D6
:100AD0003570BAE7206846612046FFF775FD94F847
:100AE0005C203F2191408160656584F8357000206D
:100AF000ACE700003F8010F02DE9F84FDFF8B8A117
:100B00000022012403254FF00F090AF1040BAAF17A
:100B1000040E00BF0B6804FA02F63340B34273D1EF
:100B20000F7907F00307012F01D0022F16D1876834
:100B30004FEA420805FA08FC27EA0C07D1F80CC076
:100B40000CFA08FC4CEA070CC0F808C04768B74329
:100B50000E79C6F3001696403E4346600E79F64382
:100B6000B6070DD0C768560005FA06FC27EA0C0741
:100B7000D1F808C00CFA06FC4CEA070CC0F80CC00F
:100B80000E7906F00306022E10D1D60800EB860877
:100B9000D8F8206057074FEAD76C09FA0CF7BE4324
:100BA0000F6907FA0CF73743C8F8207006684FEA58
:100BB000420C05FA0CF7BE430F7907F0030707FA5A
:100BC0000CF7374307604E6816F4403F6DD03B4E3C
:100BD000376847F480473760366822F0030706F429
:100BE00080460096364E07EB060CDCF8086897073F
:100BF0003F0F09FA07F826EA0806DFF8C8804045E3
:100C000003D14FF000081EE04FE0DFF8BC80404504
:100C100002D14FF0010816E0DFF8B080404502D164
:100C20004FF002080FE0DFF8A880404502D14FF0F6
:100C3000030808E0DFF89C80404502D14FF004082B
:100C400001E04FF0070808FA07F848EA0608CCF870
:100C50000888DAF800605746D1F804C09E435FEA7E
:100C6000CC2C00D51E433E60DBF800605F46D1F817
:100C700004C09E435FEA8C2C00D51E433E60DEF824
:100C800000607746D1F804C09E435FEA8C3C00D5F3
:100C90001E433E60084F083F3E68D1F804C09E43A3
:100CA0005FEACC3C00D51E433E60521C102AFFF484
:100CB00031AFBDE8F88F0000083C014044380240E5
:100CC00000300140000002400004024000080240E1
:100CD000000C024000100240426921EA02030A406F
:100CE00043EA0241816170470AB18161704709049A
:100CF000FBE70000014880687047000010000020FA
:100D00000248816802781144816070471000002019
:100D10000B4810B5016841F400710160016841F4AD
:100D200080610160016841F480710160032000F07E
:100D30006FF80F2000F006F800F024F8002010BD36
:100D4000003C024070B50D4D04464FF47A7128788E
:100D5000B1FBF0F00A490968B1FBF0F000F0B8FB14
:100D600048B9102C07D200222146501E00F030F85E
:100D700000206C6070BD012070BD000010000020DC
:100D80001C0000200A4808B5016841F48041016058
:100D9000006800F4804000900548001F016841F0A1
:100DA00080510160006800F08050009008BD000094
:100DB00044380240002809DB00F01F020121914065
:100DC0004009800000F1E020C0F8001170470000E9
:100DD000F0B40E4B1B680C46C3F30223C3F10705A6
:100DE000042D00D90425191D072901D2002300E094
:100DF000DB1E012606FA05F1491E214099409E405E
:100E0000761E16403143F0BC01F0AFBC0CED00E0A3
:100E1000064900F0070208684FF6FF03184040EA51
:100E20000220034A10430860704700000CED00E008
:100E30000000FA052DE9F0470E46050065D0DFF801
:100E40001481D8F80000F7B200F00700B04207D2D2
:100E500088F80070D8F8000000F00700B04254D1C4
:100E600028683D4C810712D5400703D5206840F41F
:100E7000E05020602878000703D5206840F46040E7
:100E800020602068A96820F0F000084320602878DE
:100E9000C0072DD0304968680839012812D00228CF
:100EA00013D0032811D00968890700292DDA216899
:100EB00021F0030101432160FFF71CFF814641F24D
:100EC000883A0EE009688903EFE709688901ECE7D1
:100ED000FFF710FFA0EB0901514502D90320BDE83F
:100EE000F0872068696800F00C00B0EB810FEFD14B
:100EF000D8F80010404601F00701B14207D9077049
:100F0000006800F00700B04201D00120E7E7287830
:100F1000400705D52068E96820F4E05008432060C8
:100F20002878000706D52068296920F4604040EA47
:100F3000C100206000F038F82168084AC1F30311AD
:100F4000515CC8400649086006480068FFF7FAFE91
:100F50000020C4E7003C0240083802402833000863
:100F60001C0000201400002004480549006809689E
:100F7000044AC1F38221515CC84070471C00002024
:100F800008380240383300080448054900680968F9
:100F9000044AC1F34231515CC84070471C00002034
:100FA0000838024038330008154810B5006810F0C2
:100FB0000C02144813D04110042A0FD0082A0ED175
:100FC0000F4C241F2268236802F03F025B0207D502
:100FD0002068C0F38810A0FB010106E0084610BDA0
:100FE0002168C1F38811A1FB00010023FFF742F93A
:100FF0002168C1F30141491C4900B0FBF1F010BD6B
:10100000083802400024F4002DE9F84F04006ED0A7
:101010002078DFF84C93C007A9F104054AD009F104
:1010200004000168C1F38101012908D00068C0F300
:10103000810002280AD1D9F80000400206D52868AC
:10104000800337D560680028E1D033E06068B0F5F0
:10105000803F10D0B0F5A02F286810D020F4803049
:101060002860286820F4802028606068A8B1FFF715
:1010700041FE06460DE0286840F48030F4E740F475
:1010800080202860F7E700BFFFF734FE801B64284C
:1010900073D828688003F7D50CE0FFF72BFE0646CF
:1010A00005E000BFFFF726FE801B6428F0D8286803
:1010B0008003F7D42078DFF8AC8280074FF0000A75
:1010C0003ED5A748001D016811F00C0F08D000683C
:1010D000C0F3810002280BD1D9F80000400207D4E8
:1010E0002868800716D5E068012800D112E033E1B6
:1010F000E068B8B10120C8F80000FFF7FBFD064624
:1011000005E000BFFFF7F6FD801B0228C0D8286865
:101110008007F7D52868216920F0F80040EAC1006F
:1011200028600DE0C8F800A0FFF7E4FD064604E0E3
:10113000FFF7E0FD801B02281FD828688007F7D43E
:101140002078000722D5864F87486169703771B1D2
:1011500001210160FFF7CEFD064604E0FFF7CAFD5E
:10116000801B022809D838688007F7D50EE0C0F840
:1011700000A0FFF7BFFD064605E082E0FFF7BAFDDD
:10118000801B02287DD838688007F7D42078400774
:1011900068D5DFF8CCB100270BF13C0BDBF8000081
:1011A000C0000BD4DBF8001041F08051CBF80010E8
:1011B000DBF80000012700F0805000906B4E306893
:1011C000C00510D4306840F480703060FFF792FDA5
:1011D000009005E0FFF78EFD0099401A022850D8D4
:1011E0003068C005F6D55E4EA0686C3601280FD079
:1011F0000528306810D020F001003060306820F001
:1012000004003060A068B8B1FFF774FD00900FE0F3
:10121000306840F00100F4E740F004003060F7E788
:10122000FFF768FD0099411A41F28830814266D883
:1012300030688007F4D50EE0FFF75CFD009007E012
:10124000FFF758FD0099411A41F28830814256D883
:1012500030688007F4D42FB1DBF8001021F0805102
:10126000CBF80010A069C8B33D49091D0968C1F356
:10127000810102294AD00228504607D0C8F86000F0
:1012800000E03CE0FFF736FD04463BE04746C8F887
:101290006000FFF72FFD064605E000BFFFF72AFDBF
:1012A000801B02282BD828688001F7D4D4E90701D5
:1012B0000843A16A2E4A490802EB0141626A41EAE9
:1012C0008211084394F82C1040EA0161C9F800101B
:1012D00001203866FFF70EFD044606E03EE000BF41
:1012E000FFF708FD001B022809D828688001F7D500
:1012F00034E000BFFFF7FEFC001B022802D90320E8
:10130000BDE8F88F28688001F4D427E00128F7D0E1
:10131000D9F80000E26900F4800191421CD1226AF0
:1013200000F03F01914217D147F6C071626A014057
:10133000B1EB821F10D1A26A4FF0FF3300F44031AD
:1013400003EB5202B1EB024F06D194F82C1000F0DF
:101350007060B0EB016F01D00120D1E70020CFE732
:101360000438024000004742800E474200700040AF
:101370000000FFFF70B5040009D0606A002540B18D
:1013800025616561A56294F8510040B10CE001202F
:1013900070BD6068B0F5827FF4D0E561F2E784F853
:1013A0005050204600F044F8022084F85100206894
:1013B000016821F040010160A088218900F4827059
:1013C00001F404410843A18901F400610843217C30
:1013D00001F002010843217D01F001010843218B46
:1013E00001F400710843217F01F03801084394F8AB
:1013F000201001F080010843218D01F400510843C1
:1014000021680860A069042101EA104094F82410C2
:1014100001F010010843216848602068C16921F487
:101420000061C1616565012084F85100002070BD34
:1014300070B586B0064614216846FEF792FF1F4934
:101440003068884237D11E480025016841F40041C8
:101450000160006800F400400590194810380168E8
:1014600041F0040101600068694600F00400059045
:101470004FF4A05000900220CDE901050320039015
:10148000062004900F48FFF737FB104C0E48C4E9C4
:1014900000054020C4E902050001C4E90405A56176
:1014A000E561256220466562FFF7BCFA08B1FFF7E7
:1014B000CAF8B464A66306B070BD0000003C0040EA
:1014C00040380240000802408860024020010020AD
:1014D00010B5401EB0F1807F01D3012010BD4FF048
:1014E000E02460610F21601701F03FF90020A06146
:1014F00007202061002010BD7047704710B590F89C
:101500003C20012A22D0012280F83C20CA688C6845
:1015100022F4407222434C6822F4806222430C6819
:1015200022F4006222430C6922F4805222434C6967
:1015300022F400522243C969002322F480420A4364
:1015400001684A6480F83C30002010BD022010BDC4
:1015500070B590F83C20012A2CD0012480F83C4042
:10156000022280F83D2003685A689D6822F07006C8
:101570000A6832435A60104B02689A420ED0B2F1A8
:10158000804F0BD00D4B9A4208D00D4B9A4205D09C
:101590000C4B9A4202D00C4B9A4204D1496825F078
:1015A00080031943916080F83D40002180F83C1091
:1015B000084670BD022070BD0000014000040040DC
:1015C00000080040000C00400040014010B504003D
:1015D00003D094F83D0010B107E0012010BD0020B9
:1015E00084F83C00204600F01FF8022084F83D00FB
:1015F000211D206800F000FF012084F8460084F8D7
:101600003E0084F83F0084F8400084F8410084F8EC
:10161000420084F8430084F8440084F8450084F8CC
:101620003D00002010BD000008B5244A0168244890
:10163000914210D1016841F001010160006800226F
:1016400000F00100009011461820FFF7C1FB1820A0
:10165000FFF7B0FB28E01B4A91420ED1016841F42C
:10166000803101600068002200F480300090114653
:101670001820FFF7ADFB18201CE0134A914208D157
:10168000016841F400310160006800F4003000900E
:1016900008BD0E4A9142FBD1016841F480210160EE
:1016A000006800F480200090002211461A20FFF705
:1016B0008FFB1A20BDE80840FFF77CBB000001400B
:1016C00044380240004001400044014000480140CD
:1016D00090F83D10012901D001207047022180F8C7
:1016E0003D100168CA6842F00102CA6000680E49F4
:1016F00088420ED0B0F1804F0BD00C49884208D000
:101700000B49884205D00B49884202D00A498842D9
:1017100004D1816801F00701062903D0016841F076
:1017200001010160002070470000014000040040FA
:1017300000080040000C00400040014070B5044625
:1017400090F83C000025012817D0012684F83C6061
:10175000022084F83D002068826822F0770222F49B
:101760007F4282600868502838D00DDC20284FD096
:1017700005DC90B3102811D14AE0022070BD30285A
:1017800046D040280AD13BE060282FD070280DD0E9
:10179000B0F5805F03D0B0F5005F12D0012584F86A
:1017A0003D60002084F83C00284670BDCB68D1E93C
:1017B0000121206800F079FE2068816841F07701FE
:1017C00009E0CB68D1E90121206800F06EFE2068B5
:1017D000816841F480418160E1E719E0CA684968A5
:1017E000206800F017FF5021206806E0CA684968A9
:1017F000206800F020FF6021206800F060FECEE746
:10180000CA684968206800F005FF40212068F4E7B5
:10181000226801461046F0E72DE9F0410D4604002C
:1018200003D094F83D0018B108E00120BDE8F08134
:10183000002084F83C00204600F040F8022084F8A4
:101840003D002068816844F2070291438160211DB8
:10185000206800F0D1FD226890689169166A2B68B3
:10186000AF69034340F20330814341EA0721A8688E
:10187000EF6908434FF6FC418843E96840EA0720D6
:10188000014328692F6A000140EA0730084369686C
:101890006D6926F0AA0646EA051529439360226879
:1018A000906154F8460B0162012004F81F09E075AD
:1018B0002076E0762077A0750020B7E770B586B077
:1018C000044614216846FEF74CFD21481F4E25684A
:1018D00000221F491038C0240223B54217D10D68D9
:1018E00045F002050D60096801F0020105910168EB
:1018F00041F00401016000680094CDE9013200F07C
:101900000400CDE9043069460392124819E0124EF2
:10191000B54218D10D6845F004050D60096801F065
:1019200004010591016841F0020101600068009422
:10193000CDE9013200F00200CDE90430694603929E
:101940000648FFF7D9F806B070BD0000000400405B
:1019500040380240000802400008004000040240F5
:10196000704770B50446006801694FF00005C9432F
:10197000890715D4C168C943890711D4E91E0161DB
:1019800001202077206880698007204602D0FFF779
:10199000E7FF04E000F0DAF8204600F06CF9257764
:1019A00020680169C943490717D4C168C943490779
:1019B00013D46FF004010161022020772068806950
:1019C00010F4407F204602D0FFF7CAFF04E000F089
:1019D000BDF8204600F04FF9257720680169C9431A
:1019E000090716D4C168C943090712D46FF008016A
:1019F0000161042020772068C0698007204602D05A
:101A0000FFF7AEFF04E000F0A1F8204600F033F944
:101A1000257720680169C943C90617D4C168C9433D
:101A2000C90613D46FF010010161082020772068E7
:101A3000C06910F4407F204602D0FFF791FF04E018
:101A400000F084F8204600F016F925772068016937
:101A5000C943C90708D1C168C943C90704D1891E50
:101A60000161204600F060F920680169C943090658
:101A700009D4C168C943090605D46FF0800101612A
:101A80002046FFF739FD20680169C943490609D49A
:101A9000C168C943490605D46FF040010161204681
:101AA00000F050F920680169C94389060BD4C16868
:101AB000C943890607D46FF0200101612046BDE8C3
:101AC0007040FFF71ABD70BD30B587B004461421D1
:101AD0006846FEF746FC2468174D0021174802228D
:101AE0000123AC4211D1046844F001040460006891
:101AF00000F0010005904FF470600090CDE90121E5
:101B0000CDE9031369460E4812E00E4DAC4211D1E7
:101B1000046844F002040460006800F002000590CC
:101B2000A8158DE80D000320CDE90310694606488D
:101B3000FEF7E2FF07B030BD000001403038024040
:101B4000000002400044014000040240704770B5AC
:101B5000044690F83C0000260D4601280FD00120D5
:101B600084F83C006AB1042A1DD0082A2FD00C2A20
:101B70003FD00126002084F83C00304670BD022092
:101B800070BD206800F0A4FC2068816941F0080164
:101B900081612068816921F0040181612068816987
:101BA0002A69114311E0206800F0BAFC20688169BD
:101BB00041F4006181612068816921F48061816163
:101BC000206881692A6941EA02218161D2E720689F
:101BD00000F0D2FC2068C16941F00801C1612068B1
:101BE000C16921F00401C1612068C1692A691143FA
:101BF00011E0206800F0ECFC2068C16941F400614C
:101C0000C1612068C16921F48061C1612068C16936
:101C10002A6941EA0221C161ACE710B5040003D092
:101C200094F83D0010B107E0012010BD002084F8B9
:101C30003C00204600F01EF8022084F83D00211DE3
:101C4000206800F0D9FB012084F8460084F83E00AB
:101C500084F83F0084F8400084F8410084F8420092
:101C600084F8430084F8440084F8450084F83D007B
:101C7000002010BD7047704710B50446022249B1DC
:101C800004290ED0082913D094F84100012816D059
:101C9000012010BD94F83E000128F9D184F83E20BF
:101CA0000FE094F83F000128F2D184F83F2008E0CB
:101CB00094F840000128EBD184F8402001E084F83A
:101CC00041200122206800F0E3FB1249206888428D
:101CD00003D1426C42F400424264206888420ED034
:101CE000B0F1804F0BD00C49884208D00B49884294
:101CF00005D00B49884202D00A49884204D1816844
:101D000001F00701062903D0016841F001010160DB
:101D1000002010BD00000140000400400008004009
:101D2000000C0040004001400449884205D10449AC
:101D30008878401C887000F06BBD70475802002006
:101D400000000020704770B5040004D094F83D00F6
:101D5000002510B106E0012070BD84F83C502046FB
:101D600000F022F8242084F83D002068C16821F4A6
:101D70000051C160204600F071FC2068016921F427
:101D8000904101612068416921F02A014161206888
:101D9000C16841F40051C1602564202084F83D00F1
:101DA00084F83E00002070BD10B586B004461421B2
:101DB0006846FEF7D6FA13492068884220D11248B7
:101DC0000021026842F400320260006800F4003032
:101DD00005900D481038026842F001020260006868
:101DE00000F0010005900C2000900220CDE90101D7
:101DF000032003900720049069460448FEF77CFE08
:101E000006B010BD004400404038024000000240CF
:101E1000FEE700007FB500241A4800940194029464
:101E200017490394016001254FF480310561C0E931
:101E30000114057680F820401349C0E90A140226EF
:101E4000C661C46080F830504461FEF7A5FC08B15B
:101E5000FEF7F9FB07200094CDE9015069460948D7
:101E6000FEF7F4FB08B1FEF7EEFB69460548019664
:101E7000FEF7ECFB002801D0FEF7E5FB7FBD00007C
:101E800000200140200000200100000F114808B58B
:101E9000016841F400110160016801F40011009132
:101EA000016841F4800101600068002200F48000B4
:101EB000009011461020FEF78BFF1020FEF77AFFEE
:101EC000002211463820FEF783FFBDE80840382085
:101ED000FEF770BF303802402DE9F04186B0142182
:101EE0006846FEF73EFA36480024016841F00401D6
:101EF0000160016801F004010591016841F0800171
:101F00000160016801F080010591016841F0010163
:101F10000160016801F001010591016841F00201D1
:101F20000160016801F002010591016841F00801BA
:101F300001600068234E00F008004FF40055059042
:101F4000002229463046FEF7CFFE1F4F0122042112
:101F50003846FEF7C9FEDFF87480002208214046AB
:101F6000FEF7C2FE00950125CDE9015469463046D1
:101F70000394FEF7C1FD40F231208DE8310069463F
:101F80004046FEF7B9FDE8038DE831006946104888
:101F9000FEF7B2FD04200090CDE9015469463846B1
:101FA0000394FEF7A9FD08200090CDE9015469468D
:101FB00040460394FEF7A0FD06B0BDE8F0810000A6
:101FC0003038024000080240000C02400004024089
:101FD000000002400F4810B50D4901604FF48271B6
:101FE000416000218160C1604FF400720161C0E96D
:101FF0000512C1610162416281620A21C162FFF77B
:10200000B9F9002803D0BDE81040FEF71CBB10BD95
:10201000003C0040C800002010B588B01C21684674
:10202000FEF79FF915481449002401600921C0E911
:1020300001144FF6FF71C0E903148461FFF7C6FA7B
:1020400008B1FEF700FB0D48FFF7E7FD08B1FEF70A
:10205000FAFA6020CDE9000402940022694607489C
:102060000494FFF774FD08B1FEF7EDFA0348FFF79B
:102070002BFD08B010BD000000440140A00200206C
:102080000C4810B50A49016053214160002140F21B
:10209000E732C0E90212016180218161FFF796FAFF
:1020A000002803D0BDE81040FEF7CDBA10BD0000F7
:1020B00000480140E802002010B596B000240F94BB
:1020C00010941194129413941C2168461494FEF7F2
:1020D00048F9202107A8FEF744F935483349016043
:1020E0005321C0E9011440F2E731C0E90314802113
:1020F000C0E90541FFF76AFA08B1FEF7A4FA4FF408
:1021000080500F900FA92A48FFF718FB08B1FEF77F
:102110009AFA2748FFF781FD08B1FEF794FA139465
:1021200013A923481494FFF713FA08B1FEF78BFAAA
:102130006020CDE9000402940394049405940022E5
:1021400069461B480694FFF702FD08B1FEF77BFACB
:10215000042269461648FFF7FAFC08B1FEF773FA45
:10216000082269461248FFF7F2FC08B1FEF76BFA45
:102170000C2269460E48FFF7EAFC08B1FEF763FA45
:102180000794089409944FF400500A94CDE90B4049
:1021900007A907480E94FFF7B1F908B1FEF753FA03
:1021A0000348FFF791FC16B010BD0000000001408D
:1021B0008001002010B58CB024216846FEF7D1F8CC
:1021C00000241648099414490A94C0E900144FF6F3
:1021D000FF71C0E90241046184610320CDE900047C
:1021E0000120CDE902040494CDE905400794694635
:1021F0000A480894FFF710FB08B1FEF724FA099487
:1022000009A906480A94FFF7A3F9002801D0FEF7B0
:102210001AFA0CB010BD000000040040C8010020F4
:1022200010B58CB024216846FEF79BF800241648B0
:10223000099414490A94C0E900144FF6FF71C0E9EB
:102240000241046184610320CDE900040120CDE94D
:1022500002040494CDE90540079469460A480894AD
:10226000FFF7DAFA08B1FEF7EEF9099409A9064872
:102270000A94FFF76DF9002801D0FEF7E4F90CB0DD
:1022800010BD000000080040100200201FB5002112
:1022900010480091019102910D4A0391026042F2AF
:1022A000CF02C0E901216322C0E903218161FFF768
:1022B0008DF908B1FEF7C7F94FF4805000906946D8
:1022C0000448FFF73BFA002801D0FEF7BCF91FBD18
:1022D00000400140580200200C4810B50A49016036
:1022E0004FF4E1314160002181600C22C160C0E9FE
:1022F00004128161C161FFF726FD002803D0BDE80B
:102300001040FEF7A0B910BD00440040300300208B
:10231000FEE7FEE770477047FEF7F2BC30B593B0BA
:1023200030216846FEF71DF814210CA8FEF719F8B5
:102330001D480025016841F080510160006800F0EF
:10234000805011901948016821F4404141F4004146
:1023500001600068022400F44040119001200090C8
:10236000000401908001CDE9064008AA0420542110
:1023700082E813000B906846FEF746FE08B172B67D
:10238000FEE70CA90F2081E831004FF48050CDE921
:102390000F0502210CA8FEF74DFD002801D072B6F2
:1023A000FEE713B030BD000040380240007000402E
:1023B0000248016841F470010160704788ED00E057
:1023C00010B50448FFF7CDFABDE810400248FFF70A
:1023D000C8BA0000800100205802002010B504484F
:1023E000FFF7BFFABDE810400248FFF7BABA000095
:1023F00080010020E8020020F0B502681D4B1E4C51
:102400009F031E4D1E4E984207D0B84205D0A042F1
:1024100003D0A84201D0B04204D122F0700C4A6827
:1024200042EA0C02984210D0B8420ED0A0420CD022
:10243000A8420AD0B04208D0124CA04205D0124C9B
:10244000A04202D0114CA04203D122F44074CA68C9
:1024500022434C6922F08002224302608A68C262F1
:102460000A688262984201D10969016301214161D0
:10247000F0BD0000000001400004004000080040E2
:10248000000C004000400140004401400048014071
:1024900010B501F01F030121046A99408C430462C6
:1024A000016A9A401143016210BD10B5846842EA86
:1024B000032224F47F440A432243826010BD8268D1
:1024C00022F070020A4342F0070181607047000069
:1024D00030B5026A22F001020262026A436884692E
:1024E00024F073050C682C4322F002058A682A4305
:1024F0000A4DA8420BD122F00805CA6823F44073A4
:102500002A434D6922F004021D438B692B4343602B
:10251000846149684163026230BD000000000140EF
:1025200030B5026A22F010020262026A43688469CE
:102530000D6824F4E64444EA05248D6822F0200264
:1025400042EA05120B4DA8420ED1CD6822F080025E
:1025500042EA05124D6923F4406343EA85038D691D
:1025600022F0400243EA8503436084614968816345
:10257000026230BD0000014030B5026A22F4807270
:102580000262036A4268C46923F4007324F073058D
:102590000C682C438D6843EA05230C4DA8420ED1EC
:1025A000CD6823F4006343EA05234D6922F44052C9
:1025B00042EA05128D6923F4806342EA0512426003
:1025C000C4614968C163036230BD0000000001407E
:1025D00030B5026A22F480520262046A4268C3691A
:1025E0000D6823F4E64343EA05238D6824F4005480
:1025F00044EA0534064DA84204D14D6922F48042D4
:1026000042EA85124260C36149680164046230BDD8
:102610000000014010B5036A046A24F0010404625A
:10262000846924F0F00444EA021423F00A020A4305
:102630008461026210BD10B5036A23F010030362C7
:102640008369046A23F4704343EA023224F0A0034E
:1026500043EA01118261016210BD000070B50446B9
:1026600000680169E26821F4405111430161216968
:10267000A068E26908436169114308432168CA6898
:1026800049F20C639A430243CA6020684169A26917
:1026900021F440711143416131492068884202D0E0
:1026A0003049884202D1FEF76FFC01E0FEF75CFC86
:1026B000E2690023192164253226B2F5004F6268D1
:1026C00028D0A0FB0101930F9200FDF7D3FD014636
:1026D000B0FBF5F06FF01802504301EB800006EB01
:1026E0000010B0FBF5F000F0F002B1FBF5F002EBEA
:1026F0000012B1FBF5F06FF01803584301EB8000B6
:1027000006EB0010B0FBF5F000F00F00216810445C
:10271000886070BDA0FB010192185B41FDF7AAFD26
:102720000146B0FBF5F00201B1FBF5F06FF01803C4
:10273000584301EB800006EBC000B0FBF5F000F061
:10274000F80002EB4002B1FBF5F0584301EB8000CA
:1027500006EBC000B0FBF5F000F00700D6E7000084
:102760000010014000140140FEE70907090E00288F
:1027700004DB00F1E02080F80014704700F00F0047
:1027800000F1E02080F8141D7047000010B50448E7
:10279000FEF79EFFBDE8104000210248FFF76CBA2B
:1027A00058020020A0020020FEF7B2FAFFF7B6FDA3
:1027B000FFF792FBFFF76AFBFFF77EFCFFF7FAFCDF
:1027C000FFF72AFCFFF75CFCFFF724FBFFF702FC96
:1027D000FFF726FDFFF780FDFFF758FD0A4C0620A6
:1027E000E070FFF7D3FF0521E07800F01FF8074FF6
:1027F00000254FF40056A0786428FCD931463846AD
:10280000FEF76AFAA570F6E7000000200008024013
:1028100005494878012805D0022803D0097800200E
:1028200000F034B8FDF796BE0000002009291CD244
:10283000DFE801F01B05070A0C0F121417000B4903
:1028400011E00A4914390EE009490CE008499431B5
:1028500009E00749C83106E0064904E0034914319C
:1028600001E00349A43900F007B87047E8280008E0
:10287000442A000844310008034A012353704B885E
:102880005381D160107070470000002070B50C4A71
:10289000A0F1140544F60D6600231468B54201D377
:1028A000636309E0074DB5FBF0F0401E80B2E062C3
:1028B000D060C840116848631068436270BD000072
:1028C000A002002000127A004FF04070E1EE100AE2
:1028D000704700000000040093020F004B020F003D
:1028E0000B020F0000001E000000040017040F0080
:1028F00097040F0027050F0000001E0000002800AD
:1029000020031900E803190020031900E803190047
:1029100020031900E803190020031900E803190037
:1029200020031900E803190020031900E803190027
:1029300020031900E803190020031900E803190017
:1029400020031900E803190020031900E803190007
:1029500020031900E803190020031900E8031900F7
:1029600020031900E803190020031900E8031900E7
:1029700020031900E803190020031900E8031900D7
:1029800020031900E803190020031900E8031900C7
:1029900020031900E803190020031900E8031900B7
:1029A00000002800E803640020036400E8036400DA
:1029B00020036400E803640020036400E80364006B
:1029C00020036400E803640020036400E80364005B
:1029D00020036400E803640020036400E80364004B
:1029E00020036400E803640020036400E80364003B
:1029F00020036400E803640020036400E80364002B
:102A000020036400E803640020036400E80364001A
:102A100020036400E803640020036400E80364000A
:102A200020036400E803640020036400E8036400FA
:102A300020036400E803640020036400E8036400EA
:102A400020036400000025000B0228004B02280030
:102A5000930228000B0228000B0228004B022800DA
:102A6000930228000B02280093022800BA022800D3
:102A7000100328000000280093022800BA02280052
:102A80001003280000002800100314007003140035
:102A900010031400BA021400930228000B0228004D
:102AA000100314007003140010031400BA02140081
:102AB000930228000B0228000B022800880128003E
:102AC0000B022800000028000B02280088012800C3
:102AD0000B0228000000280000000D00200619004D
:102AE00027050D0017040D009704190010031900A5
:102AF00010030D00DC030D0097040D0075050D009B
:102B000027051900170419000000190000008C01A6
:102B100027050F0027051E0027050F0000000F00E6
:102B200017040F0027051E0020061E0000001E00CF
:102B300010031E0000001E0017041E0000000F00FE
:102B400010030F0000001E0093021E0000000F0083
:102B500070031E00DC030F0000000F00C1030F0014
:102B600070031E0010031E0027051E0020061E0015
:102B7000E0061E0075050F0020060F0000000F0084
:102B800027051E0017040F0097040F00DC031E002A
:102B900000000F0017041E0000000F0010030F00BC
:102BA00000001E0093021E0000000F0070031E00B4
:102BB000DC030F0000000F00C1030F0070031E00B4
:102BC00010031E0027051E0020061E00E0061E0042
:102BD00075050F0020060F0000000F0027051E00DE
:102BE00017040F0097040F00DC031E0000000F0005
:102BF00000001E0020060F00CA050F0075050F001B
:102C0000E4041E0027050F0000000F0040030F0022
:102C100070030F0017040F0000000F0070030F0077
:102C200017040F0097040F0000001E0020060F007D
:102C3000CA050F0075050F00E4041E0027050F00EC
:102C400000000F002C081E002C080F002C081E008E
:102C500000001E0000001E0020060F00CA050F0025
:102C600075050F00E4041E0027050F0000000F008B
:102C700040030F0070030F0017040F0000000F0047
:102C800070030F0017040F0097040F0000001E00D0
:102C900020061E0000000F0075051E0000000F003A
:102CA00027051E0000001E0000003C0000001E0062
:102CB00020060F00CA050F0075050F00E4041E0072
:102CC00027050F0000000F0040030F0070030F00E6
:102CD00017040F0000000F0070030F0017040F000F
:102CE00097040F0000001E0020060F00CA050F0009
:102CF00075050F00E4041E0027050F0000000F00FB
:102D00002C081E002C080F002C081E0000001E00BE
:102D100000001E0020060F00CA050F0075050F00F9
:102D2000E4041E0027050F0000000F0040030F0001
:102D300070030F0017040F0000000F0070030F0056
:102D400017040F0097040F0000001E0020061E004D
:102D500000000F0075051E0000000F0027051E0073
:102D600000001E0000003C0017040F0017041E00A6
:102D700017040F0000000F0017040F0097041E0037
:102D800027050F0017041E0070030F0010031E001C
:102D900000001E0017040F0017041E0017040F0088
:102DA00000000F0017040F0097040F0027050F0005
:102DB0000000780017040F0017041E0017040F000E
:102DC00000000F0017040F0097041E0027050F00D6
:102DD00017041E0070030F0010031E0000001E00E9
:102DE00027050F0027051E0027050F0000000F0014
:102DF00017040F0027051E0020061E0000001E00FD
:102E000010031E0000001E0017041E0000000F002B
:102E100010030F0000001E0093021E0000000F00B0
:102E200070031E00DC030F0000000F00C1030F0041
:102E300070031E0010031E0027051E0020061E0042
:102E4000E0061E0075050F0020060F0000000F00B1
:102E500027051E0017040F0097040F00DC031E0057
:102E600000000F0017041E0000000F0010030F00E9
:102E700000001E0093021E0000000F0070031E00E1
:102E8000DC030F0000000F00C1030F0070031E00E1
:102E900010031E0027051E0020061E00E0061E006F
:102EA00075050F0020060F0000000F0027051E000B
:102EB00017040F0097040F00DC031E0000000F0032
:102EC00027050F0017041E0010030F0000001E004E
:102ED00040031E0070030F0075051E0075050F00EE
:102EE00070031E0000001E00DC031E00E0061E0032
:102EF000E0061E00E0061E0020061E0075051E00EE
:102F000027050F0017041E0070030F0010031E009A
:102F100000001E0027050F0017041E0010030F00FD
:102F200000001E0040031E0070030F0075051E0008
:102F300075050F0070031E0000001E00DC030F006B
:102F400075051E0075050F0075051E0027051E007E
:102F500097041E0017041E0000001E0000003C0025
:102F600027050F0017041E0010030F0000001E00AD
:102F700040031E0070030F0075051E0075050F004D
:102F800070031E0000001E00DC031E00E0061E0091
:102F9000E0061E00E0061E0020061E0075051E004D
:102FA00027050F0017041E0070030F0010031E00FA
:102FB00000001E0027050F0017041E0010030F005D
:102FC00000001E0040031E0070030F0075051E0068
:102FD00075050F0070031E0000001E00DC030F00CB
:102FE00075051E0075050F0075051E0027051E00DE
:102FF00097041E0017041E0000001E0000003C0085
:1030000017040F0017041E0017040F0000000F0024
:1030100017040F0097041E0027050F0017041E0059
:1030200070030F0010031E0000001E0017040F00A5
:1030300017041E0017040F0000000F0017040F00F4
:1030400097040F0027050F000000780017040F00F9
:1030500017041E0017040F0000000F0017040F00D4
:1030600097041E0027050F0017041E0070030F00B1
:1030700010031E0000001E0027050F0027051E007C
:1030800027050F0000000F0017040F0027051E0082
:1030900020061E0000001E0010031E0000001E007F
:1030A00027050F0017041E0010030F0000001E006C
:1030B00040031E0070030F0075051E0075050F000C
:1030C00070031E0000001E00DC031E00E0061E0050
:1030D000E0061E00E0061E0020061E0075051E000C
:1030E00027050F0017041E0070030F0010031E00B9
:1030F00000001E0027050F0017041E0010030F001C
:1031000000001E0040031E0070030F0075051E0026
:1031100075050F0070031E0000001E00DC030F0089
:1031200075051E0075050F0075051E0027051E009C
:1031300097041E0017041E0000001E0000003C0043
:1031400000001E000000520093023C0093021E008B
:103150004B021E000B023C000B021E00B8011E00B9
:103160004B021E0093021E004B021E0093021E0023
:1031700088013C0088013C00B8013C00B8011E00F9
:1031800088011E00B8013C000B023C0010031E0029
:1031900070031E0093021E0010031E004B023C0031
:1031A0004B023C0093023C0093021E004B021E00A7
:1031B00093023C0010033C0070031E0070031E00CD
:1031C00070031E0017041E0070033C0010031E0055
:1031D00093021E004B023C004B021E0093021E0095
:1031E00010033C0088013C004B021E0093021E00AD
:1031F0004B021E0093021E000B023C000B023C001F
:1032000093023C0093021E004B021E0093023C00FE
:1032100010033C0070031E0017041E0070031E0004
:1032200010031E0070033C0010031E0093021E00DA
:103230004B023C004B021E0093021E0010033C0098
:1032400088013C004B021E0093021E004B021E0030
:1032500093021E000B023C000B023C004B021E00BE
:103260004B021E004B021E0093021E0010033C0086
:1032700010031E0070031E0017043C0070033C0086
:1032800017043C0017043C0000003C00000025002F
:103290000B0228004B022800930228000B02280092
:1032A0000B0228004B022800930228000B02280082
:1032B00093022800BA02280010032800000028000A
:1032C00093022800BA0228001003280000002800FA
:1032D000100314007003140010031400BA02140049
:1032E000930228000B02280010031400700314003E
:1032F00010031400BA021400930228000B022800E5
:103300000B022800880128000B022800000028007A
:103310000B022800880128000B022800000028006A
:103320000006101600061016000000000000000045
:10333000010203040607080900000000010203045B
:10334000603300080000002020000000D0010008C9
:103350008033000820000020B8090000EC010008BC
:10336000000000000000000000000000000000005D
:103370000100000010000000000000000024F40024
:040000050800019559
:00000001FF
