:020000040800F2
:10000000700F00204D0200085F380008AB33000875
:100010005D3800081916000895430008000000002C
:10002000000000000000000000000000013D00088A
:10003000D9160008000000005D3B0008033D0008E1
:1000400067020008670200086702000867020008EC
:1000500067020008670200086702000867020008DC
:1000600067020008670200086702000867020008CC
:1000700067020008670200086702000867020008BC
:100080001D16000867020008670200080000000053
:1000900000000000000000000000000067020008EF
:1000A0006702000867020008AD3D0008670200080B
:1000B000670200086702000867020008670200087C
:1000C000670200086702000867020008670200086C
:1000D00067020008670200086702000800000000CD
:1000E00067020008670200086702000800000000BD
:1000F000000000000000000000000000670200088F
:10010000000000006702000867020008670200089C
:1001100000000000000000000000000000000000DF
:100120002916000867020008670200086702000835
:10013000670200080000000000000000000000004E
:10014000000000000000000000000000670200083E
:1001500067020008670200086702000867020008DB
:1001600067020008670200080000000000000000AD
:10017000000000000000000000000000000000007F
:1001800000000000670200080000000000000000FE
:100190006702000800F002F800F049F80AA090E8B1
:1001A000000C82448344AAF10107DA4501D100F032
:1001B0003EF8AFF2090EBAE80F0013F0010F18BFB6
:1001C000FB1A43F001031847F060000010610000C3
:1001D000103A24BF78C878C1FAD8520724BF30C873
:1001E00030C144BF04680C60704700000023002445
:1001F00000250026103A28BF78C1FBD8520728BF37
:1002000030C148BF0B607047662904F0E3830020CB
:1002100070471FB504F0D9FB00F0E8FB0400002094
:10022000002104F045FBE0601FBD10B510BD00F0DB
:10023000E1FC1146FFF7EDFF04F0EAF800F0FFFCE7
:1002400003B4FFF7F2FF03BC04F0D4F80948804779
:1002500009480047FEE7FEE7FEE7FEE7FEE7FEE7A8
:10026000FEE7FEE7FEE7FEE704480549054A064BC0
:10027000704700009D3D00089501000870090020AE
:10028000700F0020700B0020700B0020704753EAA5
:10029000020C00F069802DE9F04B4FF00006002BB6
:1002A0001FBFB3FA83F503FA05F424FA05F65E409E
:1002B00012BF1643B2FA82F502FA05F4C5F1200521
:1002C0001EBF22FA05FC44EA0C04203556EA044C11
:1002D0004FEA144418BF641C4FF000084FF00009A7
:1002E000904271EB030C39D3002919BFB1FA81F7A1
:1002F00001FA07F6B0FA80F700FA07F6C7F120070F
:100300001EBF20FA07FC46EA0C062037B6FBF4FCB9
:10031000A7EB0507103F07F01F0BCBF120060CFAE7
:100320000BFB2CFA06F644BFB3460026202FA4BFD1
:100330005E464FF0000B5BEA060C08BF4FF0010B66
:1003400019EB0B09ABFB027C48EB0608C01B06FB54
:1003500002CC0BFB03CC71EB0C01C1E70B46024650
:1003600041464846BDE8F08B13B54FF000004FF012
:100370000001AFF30080BDE81C4070470FB4044992
:1003800010B503AA029800F01FFB10BC5DF814FB27
:10039000600000200FB41CB5074B06AA7B446946D9
:1003A0000090059800F0F7FA0020694600F006FB7F
:1003B0001CBC5DF814FB00001D06000070B504466F
:1003C00085690068C10601D5302600E02026C007F7
:1003D00007D070BDD4E9012130469047206A401C07
:1003E00020626D1EF6D570BD70B504468569007833
:1003F000C00707D170BDD4E9012120209047206AB1
:10040000401C20626D1EF6D570BD2DE9F0474FF0FF
:10041000000A89460446C0F820A02046E1688847C3
:10042000002876D0252806D0D4E901219047206AFB
:10043000401C2062F1E7E168204600258847C4F8A7
:100440001CA006460027C4F818A02A2E09D0304662
:1004500003F0C9FF38B304EB8708303EC8F81860D2
:1004600019E059F8041B204604EB87029161E1680A
:100470008847012F064618D1E069002820DA25F0C8
:1004800020051DE0D8F8180000EB800006EB4000C6
:100490003038C8F818002046E1688847064603F05F
:1004A000A2FF0028EED1012F0AD02E2E08D120461F
:1004B000E16888477F1C0646022F45F02005C4DB13
:1004C000A069002803DA404245F00105A061E80771
:1004D00001D025F01005B6B1A6F14100192802D8C7
:1004E000203645F400654A463146204625604D4693
:1004F000FFF78AFE58B1012806D0ED1D25F0070050
:1005000000F1080989E704E005F1040985E73046B0
:100510008AE7206ABDE8F0874FF0000200B5134675
:1005200094469646203922BFA0E80C50A0E80C5013
:10053000B1F12001BFF4F7AF090728BFA0E80C50C4
:1005400048BF0CC05DF804EB890028BF40F8042BBD
:1005500008BF704748BF20F8022B11F0804F18BF2A
:1005600000F8012B7047704770477047704770471D
:100570002DE9FF4F0C461E464FF0FF378BB0D2E9F6
:100580000001DDF860800A908A46C1F30A5505B97A
:100590003D46002108464FF00000BAF1000F00F47C
:1005A000400005DA00EB80004FF4400101EA500002
:1005B0004FEA9059B9F1010F00DDB9460A9850EAA7
:1005C0004A000ED044F61050A5F2FF3545432F14D3
:1005D000B8F1000F1ED07542291E1EDDC9F10002C0
:1005E0001CE0B8F1010F4FF0000001D0302103E012
:1005F000F24305E02154401CB042FBDB30460022B0
:10060000002121540B99C1F80880C1E900200FB0E6
:10061000BDE8F08FBD1B6D1CDEE74A4600DA69427B
:1006200006A800F06DFA06AB93E8070003AB83E879
:10063000070050460A9900F04BFB8DE80700A0F533
:1006400000501F3800900398002D0ADD42F21F0170
:100650004A460844002303A90390684600F0B4FD0D
:1006600009E0A0F500504A461F38002303A9039073
:10067000684600F0BEFD8DE807000004000C03D0C2
:100680004FF0FF30410800E01046B8F1000F03D0F2
:100690000022009215461EE0751E05D400F0AAF94E
:1006A000303262556D1EF9D5B3460122084302D09F
:1006B00000227F1C04E02078302801D100227F1E18
:1006C000002A099784D01DE0112D07DA00F092F975
:1006D000303262556D1C50EA0102F5D1084302D058
:1006E0000098C8B10EE00021681E05E0235C625C42
:1006F00063542254401E491C8142F7DBAB46A81BC1
:10070000401E0990002004F80B000B98099AC0F8CD
:100710000880C0E9002B7AE711264FF0000857E760
:100720002DE9F04F88460446D21D22F0070191B012
:10073000D1E90001CDE90A0103F02DFE02460B9834
:10074000C00F01D02D2007E02068810701D52B20A4
:1007500002E0202101EAC000032A099001D0072A03
:1007600005DB03464146204600F08AF90BE120787C
:10077000800601D5E06900E00620B8F1650F8146EA
:1007800006D0B8F1660F18D0B8F1670F70D131E01C
:100790000020B9F1110F009001DB112301E009F1F4
:1007A00001030AAA01A90CA8FFF7E2FEDDE90C701B
:1007B000002609F10105834647E001204B460090E1
:1007C0004FF000470AAA01A90CA8FFF7D1FEDDE906
:1007D0000DB00C995D46002610B909F101000D1805
:1007E000B9EB050003D4C0F1FF3609F10105A5EB13
:1007F00009002BE0B9F1010F01DA4FF001090020E7
:10080000B9F1110F0090484601DD112300E00346C5
:100810000AAA01A90CA8FFF7ABFEDDE90C704D4652
:1008200000268346207800070AD4AB4500DA5D46EF
:1008300001A8012D04DD411911F8011C302907D050
:100840004F4502DA17F1040F04DA012082460FE067
:100850006D1EEEE7002F02DCED1B3E4403E0781C2A
:10086000A84200DD7D1CB81B00F1010A4FF00047D3
:100870002078000703D4AA4501DB4FF0FF3A00219E
:10088000B7F1004F0DF143088DF8431024D002203A
:100890002B23002F01DA7F422D230A21021EA0F113
:1008A000010000DC5FB197FBF1FC97FBF1F201FB6B
:1008B0001C7C17460CF1300C08F801CDEEE7A8F1CE
:1008C000010003702188090501D5452100E065215B
:1008D000A0F1010800F8011C09980FA9A1EB080775
:1008E000FF1D00B10120411901EBEA70A1693844F4
:1008F000081A401EA0612078C00602D42046FFF7E7
:100900005DFD099828B1D4E901219047206A401C77
:1009100020622078C00622D52046FFF74FFD1EE05A
:10092000002E04DBB34502DD01A8805D00E030202D
:10093000D4E901219047206A401C2062761CAAF16C
:1009400001005FEA000A0AD100F050F8C0680168AF
:10095000405CD4E901219047206A401C2062281E97
:10096000A5F10105DCDC07E0D4E9012118F8010B51
:100970009047206A401C2062381EA7F10107F3DC73
:100980002046FFF731FD032011B041E601694A1C02
:1009900002610878704700B58FB0CDE901310021C0
:1009A000059105497944CDE9031011466846FFF7E2
:1009B0002CFD0FB000BD0000E5FFFFFF0A6802F844
:1009C000010B0A6070470000074B70B50D467B4471
:1009D000FFF7E1FF0446284600F004F910B14FF09C
:1009E000FF3070BD204670BD273A000000487047B8
:1009F0003009002030B5B0F10A024FEA900E71F1D3
:100A000000034EEA817EB0EB0E0061EB91014FEAEC
:100A1000101E4EEA017E10EB0E0041EB11114FEA61
:100A2000102E4EEA016E10EB0E0041EB11214FEA41
:100A3000104E4EEA014E10EB0E0041EB11414018F2
:100A400041F100014FEAD00040EA41704FEAD10184
:100A500010EB80054FEA810444EA907444EB0104F2
:100A60006D1944EB0404521BA3414FF0000348BF2F
:100A70000A3200D530BD401C41F1000130BD0000FC
:100A80002DE9F0411F46044603260168072A01F4B8
:100A9000006004DB08B116A505E016A503E008B167
:100AA00015A500E015A521F010002060A069C01E6A
:100AB000A0610FB1401EA0612046FFF77FFC4FB13F
:100AC000D4E9012138469047206A401C2062C01CAE
:100AD000206206E0206AFAE7D4E9012115F8010B4B
:100AE0009047761EF8D22046FFF77EFCBDE8F081E5
:100AF0004E414E006E616E00494E4600696E6600C2
:100B00002DE9F047814616468AB0354878440DC82D
:100B10008DE80D0032487844801C03AC0DC884E891
:100B20000D0041F69B300844372190FBF1F290FB19
:100B3000F1F5A5F1800501FB12041B3C02D56442CE
:100B4000012000E00020DFF898A080460027FA444A
:100B5000AAF1BE0A0EE0E0070AD03246684607EB6B
:100B6000470101230AEB810100F043FB8DE80700F8
:100B700064107F1C002CEED1194F7F44AE3F19E06A
:100B8000E80715D007EB04100DF1180A90E80E00E5
:100B90008AE80E00C068F04201D1981908903246E8
:100BA000012306A903A800F024FB03AB83E8070098
:100BB0006D10641C002DE3D14FF0010332466946ED
:100BC000B8F1000F03A802D000F0FEFA01E000F037
:100BD00010FBC9E90001C9F808200AB0BDE8F08798
:100BE00090570000007B00F080007047004870477D
:100BF000100900207546FFF7F9FFAE46050069466B
:100C0000534620F00700854618B020B5FFF72CFBAF
:100C1000BDE820404FF000064FF000074FF00008FD
:100C20004FF0000B21F00701AC46ACE8C009ACE87E
:100C3000C009ACE8C009ACE8C0098D46704710B5E2
:100C40000446AFF300802046BDE81040FFF7F8BA35
:100C50004FF0013C50F8042B51F8043B9A4221D14B
:100C6000A2EB0C03934313EACC1317D150F8042BD7
:100C700051F8043B9A4215D1A2EB0C03934313EABB
:100C8000CC130BD150F8042B51F8043B9A4209D1F4
:100C9000A2EB0C03934313EACC13DBD04FF000001C
:100CA000704700BFD01A01BAB1FA81F101F0180102
:100CB00022FA01F0CB40C1F12001DBB2C0B2C01A70
:100CC0002CFA01F3D11A914311EAC311E6D170470E
:100CD0005FEA400C08BF91F0000F4FEA8C234FEA07
:100CE000C12243EA51514FEA1C5018BF00F5F040B1
:100CF0004FEA300018BF41F000415FEA6C5C00F041
:100D00002980BCF1FF3F08BF40F080407047130CC2
:100D100006BF12044FF0100C4FF0000C130E04BF6E
:100D200012020CF1080C130F04BF12010CF1040C99
:100D3000930F04BF92000CF1020CD30F04BF5200BA
:100D40000CF1010C11464FF00002A0F11F00A0EBC6
:100D50000C00704711F0004F08BF704731F00041A0
:100D60003FF4D5AF0B0C06BF09044FF0100C4FF049
:100D7000000C0B0E04BF09020CF1080C0B0F04BF92
:100D800009010CF1040C8B0F04BF89000CF1020C5B
:100D9000CB0F04BF49000CF1010CCCF12003A0EBF8
:100DA0000C0022FA03F302FA0CF241EA030100F10B
:100DB0000100704720F07F4C80EA030023F07F475A
:100DC000ACEB070303F57C5300F0004003F1FF0395
:100DD0002DE980494FEA154B09B44FEA144325EA3F
:100DE0000B4E24EA03480FF2042606EB13274908AA
:100DF0003E785FEA320203FB0667C7F5000707FB90
:100E000006F64FEA54374FEAD64606F1020607FBCC
:100E1000066CCCF1005C4FEA1C472CEA074C07FB40
:100E200006F40CFB06F504EB15464FEA961634BFA4
:100E300000204FF000404FEAD13706FB07FC4FEA95
:100E40001C4C0CFB0BF7D21B03FB0CF761EB0701EF
:100E50000CFB0EF7B0EB074072EB17420CFB08F7E8
:100E600034BFA2EB0742B2EB074261EB17414FEAF6
:100E70000C444FEA910706FB07FC4FEA1C4C0CFBA5
:100E80000BF7B0EBC74072EB573203FB0CF734BFE4
:100E9000A2EBC742B2EBC74261EB57310CFB0EF736
:100EA000B0EBC70072EB57720CFB08F734BFA2EB34
:100EB000C702B2EBC70261EB5771039F4FEA816132
:100EC00041EA921104EBCC044FEAD1374FEA826237
:100ED00006FB07FC42EA90124FEA80604FEA1C4C86
:100EE0000CFB0BF7D21B03FB0CF761EB07010CFBB0
:100EF0000EF7B0EB074072EB17420CFB08F734BF5C
:100F0000A2EB0742B2EB074261EB17414FEA8C5567
:100F10004FEA910704EB9C2406FB07FC4FEA1C4CAC
:100F20000CFB0BF7B0EBC74072EB573203FB0CF72F
:100F300034BFA2EBC742B2EBC74261EB57310CFBA7
:100F40000EF7B0EBC70072EB57720CFB08F734BF1B
:100F5000A2EBC702B2EBC70261EB577115EB4C2550
:100F60004FEA816141EA92114FEA82624FEAD1373A
:100F700042EA901206FB07FC44F100044FEA80604D
:100F80004FEA1C4C0CFB0BF7D21B03FB0CF761EB7D
:100F900007010CFB0EF7B0EB074072EB17420CFB9E
:100FA00008F734BFA2EB0742B2EB074261EB1741EF
:100FB00015EB1C154FEA813141EA92414FEA82322A
:100FC00042EA90424FEA80304FEA0C7644F1000446
:100FD00048EA03434EEA0B484FF0000EB2EB080C10
:100FE00071EB030724BF624639464EEB0E0E4FF0FD
:100FF000000B0018524149414BEB0B0BB2EB080CB4
:1010000071EB03077BF1000B24BF624639464EEBC0
:101010000E0E4FF0000B0018524149414BEB0B0BE9
:10102000B2EB080C71EB03077BF1000B24BF6246A7
:1010300039464EEB0E0E51EA020718BF46F0010684
:1010400016EB0E7655F1000254F1000103D5BDE810
:101050008901BDE80088BDE88901BDE80048B619EE
:10106000524141EB0101A3F10103704780807F7E73
:101070007D7C7B7A7978777676757473727171700E
:101080006F6E6E6D6C6C6B6A6A69686867666665C0
:101090006464636362616160605F5F5E5E5D5D5C4E
:1010A0005C5B5B5A5A5959585857575656555555BF
:1010B0005454535352525251515050504F4F4F4E1F
:1010C0004E4D4D4D4C4C4C4B4B4B4A4A4A4949496D
:1010D00048484847474747464646454545444444AF
:1010E000444343434342424242414141002B9C46D8
:1010F00030D477002BD01CB54FEA370703B44FF03C
:1011000010004FF01001BAF1000F06D0BCF1000F33
:10111000DCBF40F0080040F008014FF000000FBCB9
:10112000BDE810400BF1010BBBF1010F08BF5FEAF6
:10113000170722BF12F1010211F101014FF0004126
:1011400043F1000300F0004043EA00007047F9D388
:101150005708D0E746EA064613F1400F4FEA164615
:101160001FDD13F1200FDFBF16430A460021203395
:101170005B42BED0C3F1200746EA064602FA07F7F3
:101180004FEA164646EA0706C3F1200722FA03F2A1
:1011900001FA07F721FA03F14FF0000342EA0702D0
:1011A000A7E746EA020646EA06464FEA164646EA38
:1011B0000106BCBF46EA0646360C4FF000034FF06E
:1011C00000024FF0000194E72DE9804C9A469346C7
:1011D00070B491E8380007C831EA400C48BF34EADF
:1011E000430C03D5FFF7E6FDFFF780FFF0BCBDE839
:1011F000008C2DE9804C9A46934670B491E83800F3
:1012000007C810F0804F08BF13F0804F03D100F0E3
:1012100005F8FFF76BFFF0BCBDE8008C20F07F47BE
:1012200080EA030023F07F4C07EB0C03A3F57C530B
:1012300000F00040A3F1FE0392F0000F00F0B38035
:1012400095F0000F00F077802DE901494FEA114039
:101250004FEA144621EA004800FB06FC24EA064750
:1012600008FB06F607FB08F800FB07F718EB064833
:101270004CEB164C4FEA124B18EB07484FEA154659
:101280004CEB174022EA0B4E0BFB06FC25EA064707
:101290000EFB06F607FB0EFE0BFB07F71EEB064EDA
:1012A0004CEB164C4FF000061EEB074E4CEB174B69
:1012B00018EB0B0840F1000018EB0E0B58EB000880
:1012C00040F100008F1A4FF000013CBFC943661B7C
:1012D00014BFB5EB040C00213CBFC943F61B4FEA19
:1012E00017444EEA8E0E27EA04454FEA1C4704FBDA
:1012F00007622CEA074C05FB07F70CFB05F604FB1D
:101300000CFC16EB074642EB174216EB0C4642EB81
:101310001C421BEB060658EB0202414146EA9E06C0
:1013200001D5BDE80189B619524141EB0101A3F194
:101330000103BDE801894FEA14454FEA114724EA49
:10134000054621EA074C05FB07F406FB07F70CFBF3
:1013500006F105FB0CFC11EB074144EB17444FEA87
:10136000124711EB0C4144EB1C4422EA074C05FBED
:1013700007F206FB07F70CFB06F605FB0CFC16EB69
:10138000074642EB174216EB0C4642EB1C456A1827
:1013900054F1000148BF7047B619524141EB0101B9
:1013A000A3F10103704795F0000F37D04FEA1142C7
:1013B0004FEA144721EA024624EA074C02FB07F1F0
:1013C00006FB07F70CFB06F402FB0CFC14EB0744CE
:1013D00041EB17414FEA154714EB0C4441EB1C411C
:1013E00025EA074C02FB07F506FB07F70CFB06F6A0
:1013F00002FB0CFC16EB074645EB174516EB0C46BB
:1014000045EB1C42121951F1000148BF7047B61953
:10141000524141EB0101A3F1010370474FEA14452A
:101420004FEA114724EA054621EA074C05FB07F17C
:1014300006FB07F70CFB06F24FF0000605FB0CFC61
:1014400012EB074241EB174112EB0C4251EB1C41EE
:1014500048BF7047921841EB0101A3F101037047A7
:1014600010B50146806B026C12F0500F05D0026C73
:10147000D20626D500F0DCF910BD016C41F40071F4
:10148000016401688A6812F0405F17D1027EAAB930
:10149000CA6A12F4700F02D08A6852050ED44A68E4
:1014A00022F020024A60016C21F480710164016C19
:1014B000C90403D4016C41F00101016400F0B6F9E4
:1014C00010BD806BC26CBDE810400846104710B5D7
:1014D000806B40210164416C41F00401416400F0E3
:1014E000A7F910BD10B5806B00F0A1F910BD000088
:1014F000464910B54A6822F440324A604A68436857
:101500001A434A6001684A6822F480724A6001689E
:101510004A68036942EA03224A6001684A6822F085
:1015200040724A6001684A6883681A434A600168E9
:101530008A6822F400628A6001688A68C3681A4374
:101540008A60816A6FF07062D14201688A6822F015
:1015500070628A6001688A680CD0836A1A438A6064
:1015600001688A6822F040528A6001688A68C36A0A
:101570001A4301E022F040528A6001688A6822F032
:1015800002028A6001688A68037E42EA43028A6036
:1015900090F82010002901684A680FD042F40062D8
:1015A0004A6001684A6822F460424A6001684A68F9
:1015B000174C436A04EB43331A4301E022F4006200
:1015C0004A600168CA6A22F47002CA620168CA6A83
:1015D000838B104C04EB03531A43CA6201688A6878
:1015E00022F400728A6001688A6890F8303042EA1A
:1015F00043228A6001688A6822F480628A600168F6
:101600008A68406942EA8020886010BD002301405A
:1016100000E0FFFF0000F0FFFEE70000014800F0DF
:1016200011BA000004070020014800F00BBA0000C6
:101630004C06002001681823CAB2103AB2FBF3F23C
:10164000054B6FF30901032A9B5CC36500D9091D93
:1016500081650846704700000462000810B5014625
:1016600000208B698A6A4FF0C07453B1B3F5005FF4
:1016700015D072B1012A0CD0022A0AD0032A09D14E
:1016800004E01AB1012A06D0022A03D1C96AC901AD
:1016900000D5012010BDC96AA142FAD010BD002AB0
:1016A000F7D0012AF2D0022AF3D0032AF3D010BDDA
:1016B00030B50468256825F48025256004686360DA
:1016C0008368402B036803D099600068C26030BD16
:1016D0009A600068C16030BD704772B6FEE70000D6
:1016E00078B50024009490F83C20012A19D00122FA
:1016F00080F83C200A6807230568092A13D9EE6898
:101700000A3A02EB420293409E43EE600B788A68ED
:101710000A3B03EB43039A400368DD682A43DA601F
:1017200010E0022078BD2E6902EB420293409E43F6
:101730002E610B788A6803EB43039A4003681D69A6
:101740002A431A614A681F23072A13D205686E6B61
:10175000521E02EB820293409E436E630B790A880D
:101760005B1E92B203EB83039A4003685D6B2A43CE
:101770005A6327E005680D2A12D22E6BD21F02EBA6
:10178000820293409E432E630B790A88DB1F92B23C
:1017900003EB83039A4003681D6B2A431A6311E02D
:1017A000EE6A0D3A02EB820293409E43EE620B79A1
:1017B0000A880D3B92B203EB83039A400368DD6A0B
:1017C0002A43DA62164B0568144A9D4206D10D6819
:1017D000122D03D1556845F48005556005689D427A
:1017E00018D10B68102B01D0112B13D1536843F47F
:1017F00000035360096810290CD10A490A4A096894
:10180000B1FBF2F101EB8101490000E0491E0091BA
:101810000029FBD180F83C40002078BD0023014026
:10182000002001407000002040420F0070477047C8
:10183000704770B504004FF0000503D0206C0026FF
:1018400010B107E0012070BD204600F01DF866646D
:1018500084F83C60206CC00610D4206C20F48850C2
:1018600040F0020020642046FFF742FE6664206CD0
:1018700020F0020040F00100206400E0012584F81F
:101880003C60284670BD000070B586B00646142145
:101890006846FEF741FE1D493068884233D11C4836
:1018A0000025016841F480710160006800F48070D7
:1018B000059017481438016841F001010160006883
:1018C000694600F00100059003200090CDE9010574
:1018D000104800F029FA114C0F48C4E90005001522
:1018E000A560C4E90350800060618000A0618011A0
:1018F000C4E907052046656200F074F908B1FFF7F6
:10190000ECFEB463A66306B070BD00000020014089
:101910004438024000000240106402404C0600209F
:10192000F8B5044600200E46009094F83C100129BA
:1019300007D0012184F83C1021688B68DB0702D0B6
:1019400011E00220F8BD8B6843F001038B6036493B
:10195000364B0968B1FBF3F101EB410100E0491E90
:1019600000910029FBD121688B68DB0503D58B68CA
:1019700023F480738B6021688B68DB0749D0236C6C
:1019800040F20165AB4343F4807323644968490521
:1019900005D5216C21F4005141F480512164216C62
:1019A000C90404D5616C21F00601616400E0606443
:1019B00084F83C00A16B1F481D4DC863A16B1E48F5
:1019C0000864A16B1D48C86421686FF0220008609C
:1019D0002068416841F0806141602068816841F47D
:1019E000807181602168134632464C31A06B00F053
:1019F00063F96868C006206802D01149884210D196
:101A0000816811F0405F0CD1816841F080418160B4
:101A100007E0206C40F010002064606C40F0010092
:101A200060640020F8BD00007000002040420F00FC
:101A30000023014061140008E5140008CF140008D9
:101A4000002001402DE9F84304464FF00009CDF88D
:101A5000009063484FF41651A56D0068B0FBF1F794
:101A60002E6894F85C10082000FA01F131420FD082
:101A700021680A6852070BD50A6822F004020A603E
:101A800094F85C108840A860606D40F001006065CB
:101A900094F85C104FF0010808FA01F0304208D0C9
:101AA00021684969090604D5A860606D40F002000C
:101AB000606594F85C1004208840304208D02168AA
:101AC0000968890704D5A860606D40F0040060656E
:101AD00094F85C1010208840304218D021680968C2
:101AE000090714D5A86020680168490304D5006877
:101AF000000308D5A16C07E00168C90503D401689B
:101B000021F008010160216C09B12046884794F852
:101B10005C1020208840304231D021680968C90615
:101B20002DD5A86094F8350005282068016806D0F6
:101B3000490347D5006800031DD4616C1CE021F007
:101B4000160101602068416921F080014161206C2B
:101B500008B9A06C20B12068016821F0080101607B
:101B600094F85C103F208840A86084F8358084F8A1
:101B70003490216D1FE0E16B09B120468847606D0C
:101B800000282BD0606DC00714D0052084F83500E4
:101B90002068016821F0010101600098401C00905C
:101BA000B84203D820680068C007F6D184F83580B1
:101BB00084F83490E16C002910D001B02046BDE8D3
:101BC000F04308470168C905D5D4016821F0100128
:101BD000016084F8358084F83490CCE7BDE8F88360
:101BE000700000202DE9F041044600F09FF9064600
:101BF0005CB1022084F83500002584F83450206858
:101C0000016821F0010101600DE00120BDE8F081D3
:101C100000F08CF9801B052805D920206065032081
:101C200084F83500F2E720680068C007F0D1226828
:101C3000116820480140D4E901031843D4E9033670
:101C40003343184363691843A3691843E36918438E
:101C5000236A18430843616A042903D1D4E90B13AA
:101C600019430843106020684069666A20F0070144
:101C700030460E43012704280CD1A06A0643E06ACF
:101C800040B12046FFF7EAFC20B14020606584F8AF
:101C90003570BAE7206846612046FFF7CBFC94F820
:101CA0005C203F2191408160656584F8357000209B
:101CB000ACE700003F8010F02DE9F0410446866D4E
:101CC00090F83400002501280DD0012084F834005C
:101CD00094F835700020012F07D084F834000225D5
:101CE0002846BDE8F0810220FBE7022784F8357022
:101CF00060652046FFF7DCFC94F85C103F208840CC
:101D0000B0602068016841F016010160206C20B1CC
:101D10002068016841F0080101602068016841F015
:101D200001010160DCE700002DE9F84FDFF8B8A100
:101D30000022012403254FF00F090AF1040BAAF138
:101D4000040E00BF0B6804FA02F63340B34273D1AD
:101D50000F7907F00307012F01D0022F16D18768F2
:101D60004FEA420805FA08FC27EA0C07D1F80CC034
:101D70000CFA08FC4CEA070CC0F808C04768B743E7
:101D80000E79C6F3001696403E4346600E79F64340
:101D9000B6070DD0C768560005FA06FC27EA0C07FF
:101DA000D1F808C00CFA06FC4CEA070CC0F80CC0CD
:101DB0000E7906F00306022E10D1D60800EB860835
:101DC000D8F8206057074FEAD76C09FA0CF7BE43E2
:101DD0000F6907FA0CF73743C8F8207006684FEA16
:101DE000420C05FA0CF7BE430F7907F0030707FA18
:101DF0000CF7374307604E6816F4403F6DD03B4EFA
:101E0000376847F480473760366822F0030706F4E6
:101E100080460096364E07EB060CDCF808689707FC
:101E20003F0F09FA07F826EA0806DFF8C8804045A0
:101E300003D14FF000081EE04FE0DFF8BC804045C2
:101E400002D14FF0010816E0DFF8B080404502D122
:101E50004FF002080FE0DFF8A880404502D14FF0B4
:101E6000030808E0DFF89C80404502D14FF00408E9
:101E700001E04FF0070808FA07F848EA0608CCF82E
:101E80000888DAF800605746D1F804C09E435FEA3C
:101E9000CC2C00D51E433E60DBF800605F46D1F8D5
:101EA00004C09E435FEA8C2C00D51E433E60DEF8E2
:101EB00000607746D1F804C09E435FEA8C3C00D5B1
:101EC0001E433E60084F083F3E68D1F804C09E4361
:101ED0005FEACC3C00D51E433E60521C102AFFF442
:101EE00031AFBDE8F88F0000083C014044380240A3
:101EF000003001400000024000040240000802409F
:101F0000000C0240001002400069084000D001208F
:101F10007047426921EA02030A4043EA02418161B3
:101F200070470AB1816170470904FBE70148806886
:101F30007047000064000020024881680278114464
:101F400081607047640000200B4810B5016841F4BF
:101F500000710160016841F480610160016841F431
:101F600080710160032000F06FF80F2000F006F888
:101F700000F024F8002010BD003C024070B50D4D6B
:101F800004464FF47A712878B1FBF0F00A490968E9
:101F9000B1FBF0F000F028FC48B9102C07D2002269
:101FA0002146501E00F030F800206C6070BD01200A
:101FB00070BD000064000020700000200A4808B5D1
:101FC000016841F480410160006800F480400090A5
:101FD0000548001F016841F080510160006800F071
:101FE0008050009008BD000044380240002809DB02
:101FF00000F01F02012191404009800000F1E02023
:10200000C0F8001170470000F0B40E4B1B680C467E
:10201000C3F30223C3F10705042D00D90425191DBC
:10202000072901D2002300E0DB1E012606FA05F194
:10203000491E214099409E40761E16403143F0BC17
:1020400002F0C1B90CED00E0064900F00702086893
:102050004FF6FF03184040EA0220034A104308608D
:10206000704700000CED00E00000FA052DE9F04794
:102070000E46050065D0DFF81481D8F80000F7B2ED
:1020800000F00700B04207D288F80070D8F80000CE
:1020900000F00700B04254D128683D4C810712D5AA
:1020A000400703D5206840F4E050206028780007FE
:1020B00003D5206840F4604020602068A96820F0C3
:1020C000F000084320602878C0072DD030496868A8
:1020D0000839012812D0022813D0032811D009682A
:1020E000890700292DDA216821F0030101432160CD
:1020F000FFF71CFF814641F2883A0EE00968890328
:10210000EFE709688901ECE7FFF710FFA0EB090191
:10211000514502D90320BDE8F0872068696800F0C6
:102120000C00B0EB810FEFD1D8F80010404601F061
:102130000701B14207D90770006800F00700B042FC
:1021400001D00120E7E72878400705D52068E96835
:1021500020F4E050084320602878000706D5206866
:10216000296920F4604040EAC100206000F038F89E
:102170002168084AC1F30311515CC8400649086050
:1021800006480068FFF7FAFE0020C4E7003C024062
:10219000083802400C62000870000020680000202F
:1021A0000448054900680968044AC1F38221515C6A
:1021B000C840704770000020083802401C620008C8
:1021C0000448054900680968044AC1F34231515C7A
:1021D000C840704770000020083802401C620008A8
:1021E000154810B5006810F00C02144813D04110C7
:1021F000042A0FD0082A0ED10F4C241F226823680E
:1022000002F03F025B0207D52068C0F38810A0FBF4
:10221000010106E0084610BD2168C1F38811A1FB49
:1022200000010023FEF733F82168C1F30141491C86
:102230004900B0FBF1F010BD083802400024F40062
:102240002DE9F84F04006ED02078DFF84C93C007DA
:10225000A9F104054AD009F104000168C1F3810124
:10226000012908D00068C0F3810002280AD1D9F8FA
:102270000000400206D52868800337D56068002832
:10228000E1D033E06068B0F5803F10D0B0F5A02F0A
:10229000286810D020F480302860286820F480203E
:1022A00028606068A8B1FFF741FE06460DE0286887
:1022B00040F48030F4E740F480202860F7E700BF66
:1022C000FFF734FE801B642873D828688003F7D595
:1022D0000CE0FFF72BFE064605E000BFFFF726FEE9
:1022E000801B6428F0D828688003F7D42078DFF8B2
:1022F000AC8280074FF0000A3ED5A748001D016858
:1023000011F00C0F08D00068C0F3810002280BD137
:10231000D9F80000400207D42868800716D5E06885
:10232000012800D112E033E1E068B8B10120C8F81B
:102330000000FFF7FBFD064605E000BFFFF7F6FDD6
:10234000801B0228C0D828688007F7D52868216933
:1023500020F0F80040EAC10028600DE0C8F800A0B5
:10236000FFF7E4FD064604E0FFF7E0FD801B0228CE
:102370001FD828688007F7D42078000722D5864F19
:1023800087486169703771B101210160FFF7CEFDA7
:10239000064604E0FFF7CAFD801B022809D838680A
:1023A0008007F7D50EE0C0F800A0FFF7BFFD064696
:1023B00005E082E0FFF7BAFD801B02287DD838686F
:1023C0008007F7D42078400768D5DFF8CCB1002724
:1023D0000BF13C0BDBF80000C0000BD4DBF8001065
:1023E00041F08051CBF80010DBF80000012700F02D
:1023F000805000906B4E3068C00510D4306840F4B7
:1024000080703060FFF792FD009005E0FFF78EFDD1
:102410000099401A022850D83068C005F6D55E4EA3
:10242000A0686C3601280FD00528306810D020F045
:1024300001003060306820F004003060A068B8B15E
:10244000FFF774FD00900FE0306840F00100F4E702
:1024500040F004003060F7E7FFF768FD0099411A8B
:1024600041F28830814266D830688007F4D50EE0AA
:10247000FFF75CFD009007E0FFF758FD0099411A57
:1024800041F28830814256D830688007F4D42FB1A9
:10249000DBF8001021F08051CBF80010A069C8B320
:1024A0003D49091D0968C1F3810102294AD002286A
:1024B000504607D0C8F8600000E03CE0FFF736FD6A
:1024C00004463BE04746C8F86000FFF72FFD06468C
:1024D00005E000BFFFF72AFD801B02282BD82868E3
:1024E0008001F7D4D4E907010843A16A2E4A4908BC
:1024F00002EB0141626A41EA8211084394F82C1010
:1025000040EA0161C9F8001001203866FFF70EFDAE
:10251000044606E03EE000BFFFF708FD001B02286E
:1025200009D828688001F7D534E000BFFFF7FEFC2A
:10253000001B022802D90320BDE8F88F286880011B
:10254000F4D427E00128F7D0D9F80000E26900F4BC
:10255000800191421CD1226A00F03F01914217D1C3
:1025600047F6C071626A0140B1EB821F10D1A26AC6
:102570004FF0FF3300F4403103EB5202B1EB024F56
:1025800006D194F82C1000F07060B0EB016F01D010
:102590000120D1E70020CFE7043802400000474285
:1025A000800E4742007000400000FFFF704770B58A
:1025B000040009D0606A002540B125616561A5620B
:1025C00094F8510040B10CE0012070BD6068B0F596
:1025D000827FF4D0E561F2E784F85050204600F0A5
:1025E00045F8022084F851002068016821F040017C
:1025F0000160A088218900F4827001F4044108433D
:10260000A18901F400610843217C01F00201084323
:10261000217D01F001010843218B01F40071084381
:10262000217F01F03801084394F8201001F0800167
:102630000843218D01F40051084321680860A06916
:10264000042101EA104094F8241001F0100108431D
:10265000216848602068C16921F40061C161656535
:10266000012084F85100002070BD000070B586B0D4
:10267000064614216846FDF74FFF1F49306888421F
:1026800037D11E480025016841F40041016000680F
:1026900000F40040059019481038016841F0040129
:1026A00001600068694600F0040005904FF4A050F6
:1026B00000900220CDE9010503200390062004903C
:1026C0000F48FFF731FB104C0E48C4E900054020CD
:1026D000C4E902050001C4E90405A561E5612562BC
:1026E00020466562FFF77EFA08B1FEF7F6FFB46494
:1026F000A66306B070BD0000003C004040380240B8
:102700000008024088600240040700202DE9F041E3
:10271000044690F850000026012809D0012784F8CB
:10272000507094F851000025012804D002264EE094
:102730000220BDE8F08189B182B1032084F8510004
:1027400065652163A286E286A56365642564A58725
:10275000E587A068B0F5004F02D00BE0012636E017
:102760002068016821F0400101602068016841F49F
:1027700080410160A16C18480864A16C1748C863C7
:10278000A16C1748C864A06C0565E38E2268216BB4
:102790000C32A06CFFF790FA38B1606D40F0100079
:1027A0006065012684F8517011E0206801684906CF
:1027B00003D4016841F0400101602068416841F0A4
:1027C000200141602068416841F00201416084F8C5
:1027D00050503046ADE70000813B00088B3B0008BD
:1027E0005F3B00087047704710B5401EB0F1807F16
:1027F00001D3012010BD4FF0E02460610F2160176C
:1028000001F0E1FD0020A06107202061002010BD43
:102810007047704710B590F83C20012A22D0012261
:1028200080F83C20CA688C6822F4407222434C68CD
:1028300022F4806222430C6822F4006222430C6975
:1028400022F4805222434C6922F400522243C96987
:10285000002322F480420A4301684A6480F83C3035
:10286000002010BD022010BD70B590F83C20012A58
:102870002CD0012480F83C40022280F83D200368DF
:102880005A689D6822F070060A6832435A60104BFD
:1028900002689A420ED0B2F1804F0BD00D4B9A4293
:1028A00008D00D4B9A4205D00C4B9A4202D00C4BEB
:1028B0009A4204D1496825F080031943916080F859
:1028C0003D40002180F83C10084670BD022070BDDC
:1028D000000001400004004000080040000C0040DF
:1028E0000040014010B5040003D094F83D0010B141
:1028F00007E0012010BD002084F83C00204600F0D5
:102900001FF8022084F83D00211D206801F05CFAC8
:10291000012084F8460084F83E0084F83F0084F8E3
:10292000400084F8410084F8420084F8430084F8B1
:10293000440084F8450084F83D00002010BD0000EC
:1029400008B5174A01681748914207D1016841F05C
:1029500001010160006800F0010015E0124A914297
:1029600008D1016841F400310160006800F40030D2
:10297000009008BD0D4A9142FBD1016841F48021CD
:102980000160006800F480200022009011461A20A7
:10299000FFF73AFBBDE808401A20FFF727BB00000D
:1029A000000001404438024000440140004801401A
:1029B00090F83D10012901D001207047022180F8D4
:1029C0003D100168CA6842F00102CA6000680E4901
:1029D00088420ED0B0F1804F0BD00C49884208D00D
:1029E0000B49884205D00B49884202D00A498842E7
:1029F00004D1816801F00701062903D0016841F084
:102A00000101016000207047000001400004004007
:102A100000080040000C00400040014070B5044632
:102A200090F83C000025012817D0012684F83C606E
:102A3000022084F83D002068826822F0770222F4A8
:102A40007F4282600868502838D00DDC20284FD0A3
:102A500005DC90B3102811D14AE0022070BD302867
:102A600046D040280AD13BE060282FD070280DD0F6
:102A7000B0F5805F03D0B0F5005F12D0012584F877
:102A80003D60002084F83C00284670BDCB68D1E949
:102A90000121206801F0F1F92068816841F0770197
:102AA00009E0CB68D1E90121206801F0E6F920684E
:102AB000816841F480418160E1E719E0CA684968B2
:102AC000206801F08FFA5021206806E0CA68496842
:102AD000206801F098FA6021206801F0D8F9CEE76B
:102AE000CA684968206801F07DFA40212068F4E74F
:102AF000226801461046F0E72DE9F0410D4604003A
:102B000003D094F83D0018B108E00120BDE8F08141
:102B1000002084F83C00204600F040F8022084F8B1
:102B20003D002068816844F2070291438160211DC5
:102B3000206801F049F9226890689169166A2B684B
:102B4000AF69034340F20330814341EA0721A8689B
:102B5000EF6908434FF6FC418843E96840EA0720E3
:102B6000014328692F6A000140EA07300843696879
:102B70006D6926F0AA0646EA051529439360226886
:102B8000906154F8460B0162012004F81F09E075BA
:102B90002076E0762077A0750020B7E770B586B084
:102BA000044614216846FDF7B7FC21481F4E2568EE
:102BB00000221F491038C0240223B54217D10D68E6
:102BC00045F002050D60096801F0020105910168F8
:102BD00041F00401016000680094CDE9013200F089
:102BE0000400CDE9043069460392124819E0124E00
:102BF000B54218D10D6845F004050D60096801F073
:102C000004010591016841F002010160006800942F
:102C1000CDE9013200F00200CDE9043069460392AB
:102C20000648FFF781F806B070BD000000040040C0
:102C30004038024000080240000800400004024002
:102C400070B590F83E60044690F83F5090F84230DE
:102C500090F84320022021B104290ED0012E1BD16F
:102C600014E0012E18D1012B16D184F83E0084F80F
:102C7000420001220021206820E0012D0CD1012A10
:102C80000AD184F83F0084F8430014E0012D03D1F9
:102C9000012B01D1012A01D0012070BD84F83E0032
:102CA00084F83F0084F8420084F8430001220021A8
:102CB000206801F0D5F801220421206801F0D0F845
:102CC0002068016841F001010160002070BD70477B
:102CD00070B50446006801694FF00005C9438907D3
:102CE00015D4C168C943890711D4E91E01610120C7
:102CF0002077206880698007204602D0FFF7E7FF31
:102D000004E000F0DBF8204600F06DF9257720683C
:102D10000169C943490717D4C168C943490713D496
:102D20006FF004010161022020772068806910F4AF
:102D3000407F204602D0FFF7CAFF04E000F0BEF853
:102D4000204600F050F9257720680169C94309073A
:102D500016D4C168C943090712D46FF00801016194
:102D6000042020772068C0698007204602D0FFF742
:102D7000AEFF04E000F0A2F8204600F034F9257719
:102D800020680169C943C90617D4C168C943C90687
:102D900013D46FF010010161082020772068C0690A
:102DA00010F4407F204602D0FFF791FF04E000F0CE
:102DB00085F8204600F017F9257720680169C94396
:102DC000C90708D1C168C943C90704D1891E016177
:102DD000204600F077F920680169C943090609D443
:102DE000C168C943090605D46FF08001016120461E
:102DF000FFF70EFD20680169C943490609D4C1687F
:102E0000C943490605D46FF040010161204600F036
:102E1000F3F920680169C94389060BD4C168C94325
:102E2000890607D46FF0200101612046BDE870409B
:102E3000FFF7EFBC70BD000030B587B00446142129
:102E40006846FDF769FB2468174D002117480222E8
:102E50000123AC4211D1046844F00104046000680D
:102E600000F0010005904FF470600090CDE9012161
:102E7000CDE9031369460E4812E00E4DAC4211D164
:102E8000046844F002040460006800F00200059049
:102E9000A8158DE80D000320CDE90310694606480A
:102EA000FEF742FF07B030BD00000140303802405D
:102EB000000002400044014000040240704770B529
:102EC000044690F83C0000260D4601280FD0012052
:102ED00084F83C006AB1042A1DD0082A2FD00C2A9D
:102EE0003FD00126002084F83C00304670BD02200F
:102EF00070BD206800F0D4FF2068816941F00801AE
:102F000081612068816921F0040181612068816903
:102F10002A69114311E0206800F0EAFF2068816906
:102F200041F4006181612068816921F480618161DF
:102F3000206881692A6941EA02218161D2E720681B
:102F400001F002F82068C16941F00801C161206800
:102F5000C16921F00401C1612068C1692A69114376
:102F600011E0206801F01CF82068C16941F400619B
:102F7000C1612068C16921F48061C1612068C169B3
:102F80002A6941EA0221C161ACE710B5040003D00F
:102F900094F83D0010B107E0012010BD002084F836
:102FA0003C00204600F01EF8022084F83D00211D60
:102FB000206800F009FF012084F8460084F83E00F4
:102FC00084F83F0084F8400084F8410084F842000F
:102FD00084F8430084F8440084F8450084F83D00F8
:102FE000002010BD7047704730B50025044602220E
:102FF00049B1042912D0082944D094F8410001288D
:103000004BD0012030BD94F83E000128F9D184F85E
:103010003E202068C26842F0020209E094F83F00B6
:103020000128EED184F83F202068C26842F00402F3
:10303000C2600122206800F013FF1D492068884209
:1030400003D1426C42F400424264206888420ED0B0
:10305000B0F1804F0BD01749884208D016498842FA
:1030600005D01649884202D01549884204D18168AA
:1030700001F00701062903D0016841F00101016058
:10308000284630BD94F840000128BAD184F8402089
:103090002068C26842F00802CAE784F841200C297F
:1030A00001D00125ECE72068C26842F01002BFE7BA
:1030B000000001400004004000080040000C0040F7
:1030C000004001402DE9F04100684349884245D164
:1030D000424C0025A088401C80B2A0806189491C18
:1030E0006181E188491CE1802189491C2181616954
:1030F000491C6161E16A491CE162B0F5FA7F06D3BF
:10310000A089401CA081A58035A0FDF737F9384F74
:103110004FF400713846FEF7F7FE012600B3256430
:10312000256325654FF400413248FEF7EDFE012886
:1031300025D065646563656510213846FEF7E4FEB9
:1031400001282BD0A564A563A56520213846FEF78C
:10315000DBFE012831D0E564E563E565BDE8F0817B
:10316000206C401C2064072807DB206D08B1256413
:10317000D8E7266326652564D4E72563D2E7606C2B
:10318000401C6064072807DB606D08B16564D3E705
:10319000666366656564CFE76563CDE7A06C401C38
:1031A000A064072807DBA06D08B1A564CDE7A6637E
:1031B000A665A564C9E7A563C7E7E06C401CE064A9
:1031C000072807DBE06D08B1E564C7E7E663E6655D
:1031D000E564C3E7E563C1E7004801400000002063
:1031E00068656C6C6F20776F726C640A0000000079
:1031F000000402400000024070477047704770B5FD
:10320000040004D094F83D00002510B106E0012030
:1032100070BD84F83C50204600F022F8242084F849
:103220003D002068C16821F40051C160204600F0D3
:10323000A5FF2068016921F490410161206841697E
:1032400021F02A0141612068C16841F40051C16048
:103250002564202084F83D0084F83E00002070BDE5
:1032600010B586B0044614216846FDF755F9134998
:103270002068884220D112480021026842F40032BE
:103280000260006800F4003005900D4810380268B4
:1032900042F001020260006800F0010005900C207D
:1032A00000900220CDE90101032003900720049043
:1032B00069460448FEF738FD06B010BD00440040E2
:1032C000403802400000024090F83E30202B0ED1E2
:1032D00059B152B190F83C30012B08D0012380F84D
:1032E0003C300023036300F0CFBF01207047022071
:1032F00070477047704700002DE9F843044690F886
:103300003D001F4616460D4620284CD1C5B1BEB122
:1033100094F83C00012846D0012084F83C004FF08E
:103320000008C4F84080212084F83D00FEF7FEFD2F
:10333000A6848146E684A068B0F5805F03D004E0EF
:103340000120BDE8F883206928B12E465FF0000512
:1033500084F83C800EE00026FAE78021204600F049
:10336000DDFFA0B9AEB116F8010B21684860E08C12
:10337000401EE084E08C4B464FF00002009700288E
:10338000EBD14FF04001204600F0C8FF30B10320E0
:10339000D7E735F8020BC0F30800E6E7202084F8F1
:1033A0003D000020CDE70220CBE7FEE77FB50024FB
:1033B0001A4800940194029417490394016001256E
:1033C0004FF480310561C0E90114057680F8204092
:1033D0001349C0E90A140226C661C46080F830505F
:1033E0004461FEF726FA08B1FEF777F9072000944A
:1033F000CDE9015069460948FEF772F908B1FEF7B8
:103400006CF9694605480196FEF76AF9002801D073
:10341000FEF763F97FBD0000002001400406002094
:103420000100000F114808B5016841F40011016066
:10343000016801F400110091016841F4800101600C
:103440000068002200F48000009011461020FEF772
:10345000DBFD1020FEF7CAFD002211463820FEF7E2
:10346000D3FDBDE808403820FEF7C0BD303802402B
:103470002DE9F04186B014216846FDF74DF8364835
:103480000024016841F004010160016801F00401B9
:103490000591016841F080010160016801F080013F
:1034A0000591016841F001010160016801F001012D
:1034B0000591016841F002010160016801F002011B
:1034C0000591016841F0080101600068234E00F099
:1034D00008004FF400550590002229463046FEF7BB
:1034E00020FD1F4F012204213846FEF71AFDDFF8A8
:1034F0007480002208214046FEF713FD0095012547
:10350000CDE90154694630460394FEF70DFC40F2C4
:1035100031208DE8310069464046FEF705FCE8039E
:103520008DE8310069461048FEF7FEFB042000904C
:10353000CDE90154694638460394FEF7F5FB0820AF
:103540000090CDE90154694640460394FEF7ECFB38
:1035500006B0BDE8F08100003038024000080240AB
:10356000000C024000040240000002400F4810B569
:103570000D4901604FF48271416000218160C1609A
:103580004FF400720161C0E90512C161016241623C
:1035900081620A21C162FFF70AF8002803D0BDE862
:1035A0001040FEF79AB810BD003C0040AC06002069
:1035B00010B588B01C216846FCF7AEFF15481449C9
:1035C000002401605321C0E9011440F2E731C0E951
:1035D000031480218161FFF785F908B1FEF77DF8BA
:1035E0000C48FFF7D2FC08B1FEF777F86020CDE970
:1035F000000402940022694606480494FFF75FFC29
:1036000008B1FEF76AF80348FFF716FC08B010BDD2
:10361000004401403C0800200C4810B50A490160F4
:1036200053214160002140F2E732C0E902120161FA
:1036300080218161FFF756F9002803D0BDE81040D2
:10364000FEF74BB810BD0000004801408408002080
:1036500010B596B000240F94109411941294139402
:103660001C2168461494FCF757FF202107A8FCF79B
:1036700053FF3548334901605321C0E9011440F23A
:10368000E731C0E903148021C0E90541FFF72AF9B9
:1036900008B1FEF722F84FF480500F900FA92A4886
:1036A000FFF7BCF908B1FEF718F82748FFF76DFCE3
:1036B00008B1FEF712F8139413A923481494FFF7E6
:1036C000D3F808B1FEF709F86020CDE900040294B0
:1036D000039404940594002269461B480694FFF75E
:1036E000EEFB08B1FDF7F9FF042269461648FFF723
:1036F000E6FB08B1FDF7F1FF082269461248FFF723
:10370000DEFB08B1FDF7E9FF0C2269460E48FFF722
:10371000D6FB08B1FDF7E1FF0794089409944FF434
:1037200000500A94CDE90B4007A907480E94FFF713
:1037300071F808B1FDF7D1FF0348FFF77DFB16B024
:1037400010BD0000000001406407002010B58CB0DF
:1037500024216846FCF7E0FE002416480994144929
:103760000A94C0E900144FF6FF71C0E902410461F8
:1037700084610320CDE900040120CDE90204049412
:10378000CDE90540079469460A480894FFF7B4F963
:1037900008B1FDF7A2FF099409A906480A94FFF7AA
:1037A00063F8002801D0FDF798FF0CB010BD0000B1
:1037B00000040040AC07002010B58CB024216846FE
:1037C000FCF7AAFE00241648099414490A94C0E99B
:1037D00000144FF6FF71C0E90241046184610320C7
:1037E000CDE900040120CDE902040494CDE90540AF
:1037F000079469460A480894FFF77EF908B1FDF777
:103800006CFF099409A906480A94FFF72DF80028CF
:1038100001D0FDF762FF0CB010BD000000080040B1
:10382000F40700200C4810B50A4901604FF4E1315B
:103830004160002181600C22C160C0E904128161F5
:10384000C161FFF7DCFC002803D0BDE81040FDF7A4
:1038500044BF10BD00440040CC080020FEE7FEE756
:1038600010B50446B031C8B2012100F05DF9102056
:1038700040EA1410012100F057F904F00F00BDE8F0
:10388000104040F00100012100F04EB970B5002455
:1038900004F1B000C0B2012100F046F9012100207E
:1038A00000F042F90121102000F03EF9002500212E
:1038B000084600F039F96D1CEDB2802DF7D3641C79
:1038C000E4B2082CE4D370BD10B50121AE2000F0A5
:1038D0002BF90121022000F027F90121102000F02E
:1038E00023F90121402000F01FF90121812000F07F
:1038F0001BF90121FF2000F017F90121A12000F0A0
:1039000013F90121C82000F00FF90121A82000F0CF
:103910000BF901213F2000F007F90121D32000F02D
:1039200003F90121002000F0FFF80121D52000F06B
:10393000FBF80121802000F0F7F80121D92000F0E8
:10394000F3F80121F12000F0EFF80121DA2000F076
:10395000EBF80121122000F0E7F80121DB2000F054
:10396000E3F80121402000F0DFF80121202000F0E1
:10397000DBF80121022000F0D7F801218D2000F0B2
:10398000D3F80121142000F0CFF80121A42000F089
:10399000CBF80121A62000F0C7F80121AF2000F0EC
:1039A000C3F8BDE81040FFF771BF000070B50F4CC1
:1039B0000F48216899B1002204210646FEF7B1FAAA
:1039C0000C4D2888062809D9012204213046FEF72B
:1039D000A8FAFFF779FF00202060288070BDBDE8BD
:1039E000704001220421FEF79CBA0000280000204C
:1039F000000C02400A0000202DE9F041203A00248A
:103A0000D6B21D4607461A46062B21D04D1C0C2A5D
:103A10002ED0102B1AD13846FFF722FF234800EB97
:103A200006160021305D00F07FF8641CE4B2082C1B
:103A3000F7D3E9B23846FFF713FF08240021305DC1
:103A400000F072F8641CE4B2102CF7D3BDE8F081EA
:103A5000FFF706FF164806EB460100EB4106002182
:103A6000305D00F061F8641CE4B2AC42F7D3EDE7DE
:103A70003846FFF7F5FE0F4906EB460001EB8006DE
:103A80000021305D00F050F8641CE4B2062CF7D33E
:103A9000E9B23846FFF7E4FE06240021305D00F06D
:103AA00043F8641CE4B20C2CF7D3CFE77450000841
:103AB000D8490008004C00082DE9F05F0024914629
:103AC0008B4606461F46082B03D900BF4FEAD70096
:103AD00001E04FF00100824602D94FEA570500E0AD
:103AE0001D464FF08000B0FBF5F0A0F10100C0B220
:103AF00015FB00F0A0F101080FE03B4659463046A7
:103B0000FFF77AFF7019C6B2B04504DA0BEB0A0072
:103B1000002600F0FF0B641CE4B219F80420002A10
:103B2000EBD1BDE8F09F000013B50A4C09B10022AB
:103B300000E0012208212046FEF7F3F90122694640
:103B40000548FEF7E3FD012208212046FEF7E9F9CA
:103B50001CBD000000040240AC060020704710B5F8
:103B6000806B01684A6822F003024A60416D41F0AF
:103B700010014165012180F85110FEF717FD10BDBD
:103B800010B5806BFEF72FFE10BD38B50546846B6F
:103B9000FEF7CCF9024628680068C00523D42068E7
:103BA000416821F0200141602068416821F0020154
:103BB00041606421204600F01BF818B1606D40F0B0
:103BC00020006065A068002118B92068C26880687C
:103BD0000090E186012084F85100606D18B1204604
:103BE000FEF7E4FC38BD2046FEF7FCFD38BD0000C2
:103BF00038B504461248134B0068B0FBF3F04FF49D
:103C00007A73584300906068B0F5827F0DD10B46FF
:103C1000009200228021204600F016F870B1606DFD
:103C200040F020006065032038BD009830B1401E90
:103C3000009020688068C0430006F6D5002038BD9B
:103C40007000002000366E012DE9F8431E469146B3
:103C500088460446089DFEF769F9401B351AFEF7B1
:103C600065F9074625480068C0F3CB30684338E063
:103C7000701C37D0FEF75AF9C01BA84203D215B109
:103C8000009860B32CE02068416821F0E0014160B9
:103C90006068B0F5827F0BD1A068B0F5004F02D00C
:103CA000B0F5806F04D12068016821F04001016007
:103CB000A06AB0F5005F09D12068016821F40051C5
:103CC00001602068016841F400510160012084F81E
:103CD0005100002084F850000320BDE8F88300253F
:103CE000401E00902068816838EA010004D000215D
:103CF0004945BDD10020F0E70121F9E7700000201F
:103D00007047FEF719B9000030B593B0302168460E
:103D1000FCF702FC14210CA8FCF7FEFB1D48002553
:103D2000016841F080510160006800F080501190FE
:103D30001948016821F4404141F4004101600068E4
:103D4000022400F4404011900120009000040190F2
:103D50008001CDE9064008AA0420542182E813001E
:103D60000B906846FEF76CFA08B172B6FEE70CA934
:103D70000F2081E831004FF48050CDE90F0502217A
:103D80000CA8FEF773F9002801D072B6FEE713B055
:103D900030BD000040380240007000400248016819
:103DA00041F470010160704788ED00E010B50448EF
:103DB000FEF78EFFBDE810400248FEF789BF000005
:103DC0006407002084080020F0B502681D4B1E4CDB
:103DD0009F031E4D1E4E984207D0B84205D0A04208
:103DE00003D0A84201D0B04204D122F0700C4A683E
:103DF00042EA0C02984210D0B8420ED0A0420CD039
:103E0000A8420AD0B04208D0124CA04205D0124CB1
:103E1000A04202D0114CA04203D122F44074CA68DF
:103E200022434C6922F08002224302608A68C26207
:103E30000A688262984201D10969016301214161E6
:103E4000F0BD0000000001400004004000080040F8
:103E5000000C004000400140004401400048014087
:103E600010B501F01F030121046A99408C430462DC
:103E7000016A9A401143016210BD10B5846842EA9C
:103E8000032224F47F440A432243826010BD8268E7
:103E900022F070020A4342F007018160704700007F
:103EA00030B5026A22F001020262026A4368846944
:103EB00024F073050C682C4322F002058A682A431B
:103EC0000A4DA8420BD122F00805CA6823F44073BA
:103ED0002A434D6922F004021D438B692B43436042
:103EE000846149684163026230BD00000000014006
:103EF00030B5026A22F010020262026A43688469E5
:103F00000D6824F4E64444EA05248D6822F020027A
:103F100042EA05120B4DA8420ED1CD6822F0800274
:103F200042EA05124D6923F4406343EA85038D6933
:103F300022F0400243EA850343608461496881635B
:103F4000026230BD0000014030B5026A22F4807286
:103F50000262036A4268C46923F4007324F07305A3
:103F60000C682C438D6843EA05230C4DA8420ED102
:103F7000CD6823F4006343EA05234D6922F44052DF
:103F800042EA05128D6923F4806342EA0512426019
:103F9000C4614968C163036230BD00000000014094
:103FA00030B5026A22F480520262046A4268C36930
:103FB0000D6823F4E64343EA05238D6824F4005496
:103FC00044EA0534064DA84204D14D6922F48042EA
:103FD00042EA85124260C36149680164046230BDEF
:103FE0000000014010B5036A046A24F00104046271
:103FF000846924F0F00444EA021423F00A020A431C
:104000008461026210BD10B5036A23F010030362DD
:104010008369046A23F4704343EA023224F0A00364
:1040200043EA01118261016210BD70B5846B2068A2
:10403000406994F83D10C0F3C0100025212904D137
:1040400018B1E584204600F08AF82068406994F8A9
:104050003E10C0F38010222904D118B1E585204616
:1040600000F056F8206C40F0100020642046FFF766
:10407000C5F870BD10B50146806B09680968C905AF
:104080002FD40021C18501680C3151E8002F22F4A2
:10409000807241E80023002BF5D10168143151E80A
:1040A000002F22F0010241E80023002BF5D1016826
:1040B000143151E8002F22F0400241E80023002B88
:1040C000F5D1202180F83E10016B012909D101684A
:1040D0000C3151E8002F22F0100241E80023002BA0
:1040E000F5D1016B012902D0FFF703F910BD818DD5
:1040F000FFF783F810BD10B5806B016B012902D06A
:10410000FFF7F8F810BD818D4908FFF776F810BD6C
:1041100001680C3151E8002F22F4907241E800232D
:10412000002BF5D10168143151E8002F22F0010273
:1041300041E80023002BF5D1016B012909D1016869
:104140000C3151E8002F22F0100241E80023002B2F
:10415000F5D1202180F83E100021016370470168ED
:104160000C3151E8002F22F0C00241E80023002B5F
:10417000F5D1202180F83D107047000070B504464D
:1041800000680169E26821F440511143016121692D
:10419000A068E26908436169114308432168CA685D
:1041A00049F20C639A430243CA6020684169A269DC
:1041B00021F440711143416131492068884202D0A5
:1041C0003049884202D1FDF7FBFF01E0FDF7E8FF2F
:1041D000E2690023192164253226B2F5004F626896
:1041E00028D0A0FB0101930F9200FCF750F8014684
:1041F000B0FBF5F06FF01802504301EB800006EBC6
:104200000010B0FBF5F000F0F002B1FBF5F002EBAE
:104210000012B1FBF5F06FF01803584301EB80007A
:1042200006EB0010B0FBF5F000F00F002168104421
:10423000886070BDA0FB010192185B41FCF727F874
:104240000146B0FBF5F00201B1FBF5F06FF0180389
:10425000584301EB800006EBC000B0FBF5F000F026
:10426000F80002EB4002B1FBF5F0584301EB80008F
:1042700006EBC000B0FBF5F000F00700D6E7000049
:10428000001001400014014038B58162828500258C
:10429000134604460564222084F83E00A26B1C48A5
:1042A000D063A26B1B481064A26B1B48D064A06B48
:1042B0000A4605652168A06B091DFDF7FDFC206815
:1042C00001684068009084F83C50206948B120683B
:1042D0000C3050E8001F41F4807140E80012002AC1
:1042E000F5D12068143050E8001F41F0010140E88A
:1042F0000012002AF5D12068143050E8001F41F068
:10430000400140E80012002AF5D1002038BD00002D
:1043100075400008F74000082B4000082DE9F041E7
:10432000984617460E460446069D27E0681C25D091
:104330002DB1FDF7FBFDA0EB0800A8421ED92068B7
:104340000C3050E8001F21F4D07140E80012002A20
:10435000F5D12068143050E8001F21F0010140E839
:104360000012002AF5D1202084F83D0084F83E0098
:10437000002084F83C000320BDE8F081206800683C
:1043800036EA000004D00020B842CFD00020F3E786
:104390000120F9E7FEE703B401984100009850EAD4
:1043A000C12018BF04204A0D18BF40F0010040F2A0
:1043B000FF72B2EB515F08BF40F00200012808BF56
:1043C000052002B070470907090E002804DB00F140
:1043D000E02080F80014704700F00F0000F1E020AA
:1043E00080F8141D704730380A2801D20120704728
:1043F000002070477047000013B54FF6FF7301228D
:1044000069460248FEF778FF00981CBDCC080020E2
:104410002DED028BFDF798FDFFF776FCFFF728F8EE
:10442000FFF700F8FFF714F9FFF790F9FFF7C0F86E
:10443000FFF7F2F8FEF7BAFFFFF798F8FFF7BCF9BD
:10444000FFF7F0F9D548FEF7B3FA0021D448FEF79C
:10445000CBFD0421D248FEF7C7FD0821D048FEF766
:10446000C3FD0C21CE48FEF7BFFD3C21CD48FEF731
:10447000E7FB3C21CC48FEF7E3FB0222CB49CC48CA
:10448000FEF722FF6422CB49CB48FDF749FAFFF73C
:104490001BFA9FEDCA8AC54DDFF81883DFF820A309
:1044A00000264FF448794FF4967B0E3DB0EE480A53
:1044B000EE7085ED080A85ED090A85ED060A2C46A1
:1044C00085ED070AF0EE401AB0EE401AF0EE400A11
:1044D000E07858F82010401C02EE101AC0B2B8EE76
:1044E000422A58F8201072EE211A02EE101A401CCF
:1044F000C0B2B8EE422A58F8201032EE011A02EE8D
:10450000101A401CC0B2B8EE422A58F8201072EEC1
:10451000200A02EE101A401CC0B2B8EE422AE07027
:104520003C2832EE000AD3D3B2EE0E2AC1EE822A24
:10453000C1EE021AC4ED062A80EE821AC4ED071AF3
:10454000C0EE020A84ED081AC4ED090AFFF72EFA3C
:10455000E06A7B2844DDA06900F0C6F941EC100B4D
:1045600098A153EC102B9B48FBF714FFE06900F077
:10457000BBF941EC100B98A153EC102B9A48FBF7B8
:1045800009FF206A00F0B0F941EC100B97A153EC41
:10459000102B9948FBF7FEFE606A00F0A5F941EC8C
:1045A000100B96A153EC102B9748FBF7F3FE00215C
:1045B0001023884A0846FFF77FFA10238A4A02210F
:1045C0000020FFF779FA10238B4A04210020FFF71F
:1045D00073FA10238C4A06210020FFF76DFAE66279
:1045E000607800287AD0D4ED060A94ED071A87493E
:1045F00030EEC10AB0EEC00A10EE100A88420ADBA3
:10460000F4EEC10AF1EE10FA02DD4946504669E0C7
:104610005146484666E010EE100A7D4988420EDB9E
:10462000F4EEC10AF1EE10FA04DD65484FF43E7174
:10463000643057E062494FF43E70643152E010EE4E
:10464000100A7449884209DBF4EEC10AF1EE10FA4F
:1046500002DD4FF416713FE000210EE010EE100A6B
:104660006D4988420CDBF4EEC10AF1EE10FA03DD6D
:104670004FF41671962035E096214FF4167031E014
:1046800010EE100A654988420ADBF4EEC10AF1EE29
:1046900010FA03DD4FF41671584623E05946ECE753
:1046A00010EE100A5E4988420CDBF4EEC10AF1EE0E
:1046B00010FA04DD4FF416714FF4E17012E04FF47C
:1046C000E171DAE710EE901A5648814207DA11EEEE
:1046D000101A814203DA0021002003E01DE04FF4AC
:1046E0005C70014600F0A2F82746D7E90401814238
:1046F00013D90021084600F099F84FF400514A48B8
:10470000FDF707FC387860B1002038700021FE808A
:10471000084600F08BF8BE817E61206B012802D034
:1047200007E00120F1E74FF400513F48FDF7F1FBAE
:104730002663606B01280FD141033B48FDF7E9FB7D
:10474000207868B100202070E680002127460846C6
:10475000666300F06BF8BE81A06B012802D012E006
:104760000120F0E74FF400512F48FDF7D2FBA0786D
:1047700088B10020A0702681002127460846A66344
:1047800000F054F8BE81E06B01287FF48FAEA06288
:104790006681E6638AE60120ECE7000084080020D9
:1047A00064070020AC070020F40700200E00002062
:1047B000CC08002074040020040600200000000043
:1047C0000CFEFFFF584A5F4C203D2025342E3266F8
:1047D0002000000074000020584A5F52203D202530
:1047E000342E326620000000740100205231203D3A
:1047F0002025342E32662000740200205232203DE3
:104800002025342E32662000740300200000C844A6
:1048100000007A440000164400009643000048431C
:104820000000C842000048420008024010B50C4693
:104830000146012000F006F82146BDE810400220A4
:10484000AFF3008030B5184A184D6B421468012848
:104850000CD0022809D100291CDAA94200DA294625
:1048600001F57A71E1631068036430BD002908DA4C
:10487000A94200DA294601F57A7161631068836301
:1048800030BD994200DD19466363C1F57A70116845
:10489000886330BD994200DD1946E363C1F57A7043
:1048A0001168086430BD00006407002018FCFFFF99
:1048B00010B500290AD00878002807D005487844A8
:1048C000FCF7C6F9002801D0002010BD024878444A
:1048D00010BD00001A1A0000121A00000808A0F506
:1048E00000114FEA3101704743004FEAD30C4FEA01
:1048F0003C0C43401FBF40070CF1605113F0FE4FCA
:1049000070471CF0006F03D100200CF0004170478D
:104910000CF0004343EA507010B540EACC0000F0C0
:104920000EF800BF000000924FEA0001FFF7D6BF6B
:104930004FF000414FF00000A1F5002170470EF14B
:10494000020E2EF0030E5EF8044B244204D44FEA0C
:104950004102B2F17F4F11D84FEA4003B3F17F4FCC
:104960000CD80ED14FEAD07CB2F17F4F0CEB4C0C3F
:104970000CF1020C08BF4CEBD17C04E04FF0080CAA
:1049800001E04FEAD17C0CEB4C0324FA03F404F071
:104990000704B4F1040C06D20EEB840CBDE8104001
:1049A0004CF0010C6047DFE80CF0070802024FF002
:1049B0000040A0F5800010BD0846420018BFD2F1AB
:1049C000807288BF00F0004010BD4FF04070E1EEF3
:1049D000100A7047FBF7A4BE0000000000000000B2
:1049E000002F000000000700070000147F147F1450
:1049F00000242A7F2A1200626408132300364955D6
:104A0000225000000503000000001C2241000000AD
:104A100041221C000014083E08140008083E080843
:104A2000000000A06000000808080808000060609E
:104A30000000002010080402003E5149453E0000DD
:104A4000427F4000004261514946002141454B31BF
:104A5000001814127F10002745454539003C4A498B
:104A600049300001710905030036494949360006FD
:104A70004949291E00003636000000005636000065
:104A800000081422410000141414141400004122E0
:104A9000140800020151090600324959513E007CB8
:104AA0001211127C007F49494936003E41414122A2
:104AB000007F4141221C007F49494941007F09098B
:104AC0000901003E4149497A007F0808087F00003B
:104AD000417F4100002040413F01007F08142241F6
:104AE000007F40404040007F020C027F007F0408AE
:104AF000107F003E4141413E007F09090906003E0A
:104B00004151215E007F0919294600464949493132
:104B10000001017F0101003F4040403F001F204055
:104B2000201F003F4038403F006314081463000713
:104B30000870080700615149454300007F4141006A
:104B400000552A552A55000041417F00000402010A
:104B500002040040404040400000010204000020E8
:104B600054545478007F4844443800384444442026
:104B700000384444487F00385454541800087E09D3
:104B800001020018A4A4A47C007F0804047800009B
:104B9000447D4000004080847D00007F1028440058
:104BA0000000417F4000007C04180478007C080469
:104BB000047800384444443800FC242424180018A5
:104BC000242418FC007C0804040800485454542091
:104BD00000043F444020003C4040207C001C20401A
:104BE000201C003C4030403C004428102844001C5D
:104BF000A0A0A07C004464544C4414141414141455
:104C000000000000000000000000000000007C0028
:104C10000000000002000000000403040300000084
:104C20000000000090FC90FC9000000300030000D6
:104C30001824FE4488000102070201003844F8D01D
:104C40002CC0000300010201C038E418E02001027A
:104C50000201020104030000000000000000000047
:104C60000000F8060100000000030400000106F83F
:104C700000000004030000009060F8609000000055
:104C800001000000002020F82020000000000000AB
:104C9000000000000000040300000000202020208D
:104CA00020200000000000000000000000000002C2
:104CB000000000000000C0300C02040300000000EF
:104CC000F8040404F8000102020201000008FC00DC
:104CD00000000002030200001884442418000302AC
:104CE0000202020008042424D8000102020201008A
:104CF000C0A098FC80000000020302007C24242451
:104D0000C400010202020100F0482424C80001028C
:104D1000020201000004C4340C0000000300000083
:104D2000D8242424D800010202020100384444247B
:104D3000F800010202010000000010000000000065
:104D4000020000000000200000000000060000003B
:104D50000060900804000000000102005050505014
:104D600050500000000000000004089060000002A5
:104D7000010000001804C424180000000200000014
:104D8000F008E4F4847800010202020100E09CF0E3
:104D9000800002030000030204FC2424D800020364
:104DA00002020100F80404040C00010202020100E6
:104DB00004FC0404F80002030202010004FC247451
:104DC0000C0002030202030004FC24740C00020322
:104DD00002000000F0080444CC400001020201007F
:104DE00004FC2020FC040203000003020404FC0471
:104DF0000400020203020200000404FC04040C0884
:104E00000807000004FC24508C0402030200030283
:104E100004FC04000000020302020203FC3CC03C4C
:104E2000FC0403000300030204FC30C4FC0402037E
:104E300002000300F8040404F80001020202010069
:104E400004FC24241800020302000000F8848404F7
:104E5000F80001020207050004FC24649800020324
:104E600002000302182424448C0003020202010001
:104E70000C04FC040C0000020302000004FC00000F
:104E8000FC04000102020100047C80E01C0400001C
:104E9000030000003CC07CC03C0000030003000095
:104EA000049C609C0400020300030200043CC03C1C
:104EB00004000002030200000C84641C04000203CE
:104EC000020203000000FF010100000007040400CB
:104ED000000638C00000000000010600000101FFCC
:104EE00000000004040700000002010200000000AE
:104EF0000000000000000000000008080808080882
:104F00000001020000000000000000000040A0A01E
:104F1000C00000010202030202FE2020C0000003C4
:104F20000202010000C02020600000010202010016
:104F300000C02022FE0000010202030200C0A0A067
:104F4000C0000001020202000020FC222204000234
:104F5000030202000040A0A0602000050A0A0A0423
:104F600002FE2020C0000203020003020020E6002F
:104F70000000000203020000000020E60000080814
:104F80000807000002FE806020000203000102000A
:104F90000202FE000000020203020200E020E02004
:104FA000C00003000300030020E02020C000020333
:104FB0000200030200C02020C00000010202010024
:104FC00020E02020C000080F0A02010000C02020BD
:104FD000E0000001020A0F0820E040202000020348
:104FE000020000000060A0A02000000202020300F6
:104FF0000020F820200000000302020020E0002032
:10500000E00000010202030220E000E020000000B6
:10501000030000006080E0806000000300030000E7
:1050200020608060200002030003020020E00000F6
:10503000E0200808050300000020A0602000000216
:1050400003020200000020FF01000000000704002E
:10505000000000FF00000000000F00000001DF2042
:10506000000000040700000002010102010000002E
:105070000000000000000000000000000000000030
:1050800000000000000000F80000000000000033F5
:105090000000000000100C02100C020000000000D4
:1050A000000000000040C07840C0780000043F04C9
:1050B000043F040000708888FC083000001820209D
:1050C000FF211E00F008F0806018000000310C0382
:1050D0001E211E0000F00888700000001E21232CF5
:1050E0001927211000120E0000000000000000002F
:1050F00000000000000000E01804020000000007AB
:105100001820400000020418E000000000402018B1
:1051100007000000404080F0804040000202010F84
:105120000102020000000000E00000000001010197
:105130000F0101010000000000000000009070005D
:10514000000000000000000000000000000101015C
:1051500001010100000000000000000000303000EC
:105160000000000000000000C038040000601807C4
:105170000000000000E010080810E000000F102000
:1051800020100F0000001010F80000000000202088
:105190003F202000007008080808F0000030282494
:1051A00022213000003008080888700000182021F3
:1051B00021221C000000804030F800000006052479
:1051C000243F242400F8888888080800001920203B
:1051D00020110E0000E0108888900000000F1120C0
:1051E00020201F0000180808886818000000003EF2
:1051F000010000000070880808887000001C22214F
:1052000021221C0000F008080810E0000001122212
:1052100022110F00000000C0C0000000000000309C
:10522000300000000000008000000000000000E0EE
:10523000000000000000804020100800000102046F
:1052400008102000004040404040400000020202A0
:105250000202020000081020408000000020100818
:105260000402010000704808088870000000003047
:1052700037000000C030C828E810E00007182728D1
:105280002F2817000000C038E0000000203C230257
:105290000227382008F8888888700000203F2020E6
:1052A00020110E00C0300808080838000718202018
:1052B0002010080008F808080810E000203F20200F
:1052C00020100F0008F88888E8081000203F2020F0
:1052D0002320180008F88888E8081000203F2000E4
:1052E00003000000C030080808380000071820201C
:1052F000221E020008F808000008F808203F2101DB
:1053000001213F20000808F8080800000020203F85
:105310002020000000000808F8080800C0808080F5
:105320007F00000008F888C028180800203F2001EE
:105330002638200008F8080000000000203F202048
:105340002020300008F8F800F8F80800203F013E5F
:10535000013F200008F830C00008F808203F200076
:1053600007183F00E01008080810E0000F10202088
:1053700020100F0008F808080808F000203F21015D
:1053800001010000E01008080810E0000F102828B4
:1053900030504F0008F8888888887000203F20002F
:1053A000030C3020007088080808380000382021DD
:1053B00021221C00180808F8080818000000203FE7
:1053C0002000000008F808000008F808001F20204E
:1053D00020201F000878880000C83808000007381F
:1053E0000E01000008F800F800F8080000033E0174
:1053F0003E030000081868808068180820302C03DD
:10540000032C30200838C800C83808000000203FAE
:105410002000000010080808C8380800203826219D
:1054200020201800000000FE020202000000007FA1
:1054300040404000000438C00000000000000001AF
:105440000638C00000020202FE000000004040409A
:105450007F000000000004020204000000000000C1
:10546000000000000000000000000000808080803C
:105470008080808000020204000000000000000024
:10548000000000000000808080000000001924243B
:10549000123F200010F0008080000000003F11202B
:1054A00020110E000000008080800000000E1120FE
:1054B00020201100000080808090F000001F20203C
:1054C00020103F200000808080800000001F2424E6
:1054D00024241700008080E0909020000020203FCE
:1054E000202000000000808080808000006B949469
:1054F0009493600010F0008080800000203F210025
:1055000000203F2000809898000000000020203FED
:1055100020200000000000809898000000C08080DB
:10552000807F000010F0000080808000203F240673
:1055300029302000001010F8000000000020203F5B
:10554000202000008080808080808000203F20001C
:105550003F20003F8080008080800000203F2100AD
:1055600000203F200000808080800000001F20205D
:1055700020201F00808000808000000080FF91209C
:1055800020110E000000008080008000000E11201D
:105590002091FF80808080008080800020203F213B
:1055A00020000100000080808080800000332424DF
:1055B00024241900008080E0808000000000001F8B
:1055C000202010008080000000808000001F20202C
:1055D00020103F20808080008080800000030C30FD
:1055E0000C0300008080008080008080010E300C61
:1055F0000738060100808080008080000020310E86
:105600002E3120008080800000808080008186789C
:105610001806010000808080808080000021302CEE
:10562000222130000000000000FC02020000000007
:10563000013E404000000000FF00000000000000AC
:10564000FF0000000202FC000000000040403E019C
:10565000000000000002010202040200000000003D
:10566000000000000000C0E030101030E0C000007A
:1056700000FFFF000000000000FFFF000000030724
:105680000C08080C070300000000202020E0F000B8
:10569000000000000000000000FFFF00000000000C
:1056A00000000808080F0F080808000000C0A0103C
:1056B00010101030E0C000000001010080603018C0
:1056C0000F030000000C0E0908080808080F00006E
:1056D00000E0E010101030E0C0000000000000000A
:1056E00008080C17F3C00000000707080808080C9A
:1056F0000703000000000000008040F0F000000000
:105700000060504C424140FFFF404040000000001C
:105710000008080F0F0808000000F010101010100B
:105720001010000000809F080404040CF8F0000032
:10573000000305080808080E070100000000C0E08B
:10574000201010107060000000FEFF100804040418
:105750000CF8F000000003060C080808040701001C
:105760000000E030101010109070300000000000B9
:105770000080F00C0300000000000000000F0F008C
:105780000000000000C0E0301010101030E0C00039
:1057900000C1E7360C08181834E7C10000030704FD
:1057A000080808080C0703000080E06010101010C3
:1057B00060C00000000F1F302020201088FF7F00F5
:1057C0000000060E080808040701000000000000A1
:1057D000000000000000000000000000000E0E0E9F
:1057E0000000000000000000000E0E0E000000008F
:1057F00000000000000000000000000000000000A9
:105800000000000000000000000000000000000098
:105810000000000000000080C0E07030101070E058
:10582000C08000000000FCFFFF030000000000013A
:10583000FFFFFC0000000F7FFFF08000000080E011
:10584000FF7F0F00000000000001030302020301BC
:105850000000000000000040404040E0F0F0000088
:105860000000000000000000000000FFFFFF00003B
:105870000000000000000000000000FFFFFF00002B
:105880000000000000000002020203030303030201
:1058900002020000000080C0603010101010307054
:1058A000E0E0800000000707060000000080C0F074
:1058B0007F3F0F00000080C060301C0E0703010016
:1058C00080F0F0000000030303030303030303035A
:1058D000030300000000C0E0E0301010103070E062
:1058E000C0800000000003030300404040E0F0BF20
:1058F0009F0F00000000F0F0F000000000000081A9
:10590000FFFF3C000000000101030202020203014C
:10591000010000000000000000000000C0F0F0F0F6
:105920000000000000000080E0781C0703FFFFFF7C
:1059300000000000000C0F0B0908080808FFFFFF1B
:105940000808080000000000000002020203030330
:1059500002020200000000C0F03030303030303041
:1059600030303000000000FFFF6030101010307049
:10597000E0C000000000F0F030000000000000C0B7
:10598000FFFF3F00000000010103020202020301C9
:105990000100000000000000C0E06030101010F0B6
:1059A000E0E000000000F8FFFFE130301010307040
:1059B000E0C0000000001F7FFFE0800000000080CA
:1059C000FFFF3F0000000000010103030202030388
:1059D00001000000000080F0F0303030303030B096
:1059E000F07030000000030300000000C0F83E0724
:1059F00001000000000000000000F0FFFF000000B8
:105A0000000000000000000000000303030000008D
:105A100000000000000080C0E070301010103070F6
:105A2000E0C0800000000F9FBFFC7070E0C0E0B0DD
:105A30009F1F0700007CFFFF830000000001038719
:105A4000FFFF7C00000000010103020202020301CB
:105A5000010000000000C0E0E0301010101030E045
:105A6000C0800000007FFFFFC0000000000080C079
:105A7000FFFFFE000000C0C1C30302020283C1F9A0
:105A80007F1F07000000010103020202030301005F
:105A90000000000000000000000000000000000006
:105AA000000000000000000000003078787830002E
:105AB0000000000000000000000080C0C0C08000A6
:105AC00000000000000000000000010303030100CB
:105AD00000000000000000000000000000000000C6
