:020000040800F2
:10000000780F002065020008133B000897350008B0
:10001000113B000831160008CD4600080000000022
:10002000000000000000000000000000B93F0008D0
:10003000F116000800000000153E0008BB3F000854
:100040007F0200087F0200087F0200087F0200088C
:100050007F0200087F0200087F0200087F0200087C
:100060007F0200087F0200087F0200087F0200086C
:100070007F0200087F0200087F0200087F0200085C
:100080007F0200087F0200087F0200087F0200084C
:100090007F0200087F0200087F0200087F0200083C
:1000A0007F0200087F0200087F0200087F0200082C
:1000B0007F0200086D4000087F0200087F020008F0
:1000C0007F0200087F0200087F0200087F0200080C
:1000D0007F0200087F0200087F0200087F020008FC
:1000E0007F0200087F0200087F0200087F020008EC
:1000F0007F0200087F0200087F0200087F020008DC
:100100007F0200087F020008794000087F02000893
:100110007F0200087F0200087F0200088540000877
:10012000351600087F0200087F020008411600080B
:100130007F0200087F0200087F0200087F0200089B
:100140007F0200087F0200087F0200087F0200088B
:100150007F0200087F0200087F0200087F0200087B
:100160007F0200087F0200087F0200087F0200086B
:100170007F0200087F0200087F02000800000000E4
:100180007F0200087F0200087F0200087F0200084B
:100190007F0200087F0200087F0200087F0200083B
:1001A0007F0200087F0200087F02000800F002F8CA
:1001B00000F049F80AA090E8000C82448344AAF1B8
:1001C0000107DA4501D100F03EF8AFF2090EBAE8B6
:1001D0000F0013F0010F18BFFB1A43F0010318477B
:1001E000E866000008670000103A24BF78C878C1AC
:1001F000FAD8520724BF30C830C144BF04680C602D
:10020000704700000023002400250026103A28BF74
:1002100078C1FBD8520728BF30C148BF0B60704778
:10022000662904F0DF86002070471FB504F0D5FE74
:1002300000F0E8FB04000020002104F041FEE06033
:100240001FBD10B510BD00F0E1FC1146FFF7EDFF3A
:1002500004F07AFA00F0FFFC03B4FFF7F2FF03BCEE
:1002600004F064FA0948804709480047FEE7FEE7C2
:10027000FEE7FEE7FEE7FEE7FEE7FEE7FEE7FEE756
:1002800004480549054A064B704700005D400008D8
:10029000AD01000878090020780F0020780B0020BD
:1002A000780B0020704753EA020C00F069802DE9BA
:1002B000F04B4FF00006002B1FBFB3FA83F503FA93
:1002C00005F424FA05F65E4012BF1643B2FA82F531
:1002D00002FA05F4C5F120051EBF22FA05FC44EA26
:1002E0000C04203556EA044C4FEA144418BF641C31
:1002F0004FF000084FF00009904271EB030C39D326
:10030000002919BFB1FA81F701FA07F6B0FA80F7B0
:1003100000FA07F6C7F120071EBF20FA07FC46EADD
:100320000C062037B6FBF4FCA7EB0507103F07F0DF
:100330001F0BCBF120060CFA0BFB2CFA06F644BF80
:10034000B3460026202FA4BF5E464FF0000B5BEAA9
:10035000060C08BF4FF0010B19EB0B09ABFB027C3D
:1003600048EB0608C01B06FB02CC0BFB03CC71EB71
:100370000C01C1E70B46024641464846BDE8F08BFA
:1003800013B54FF000004FF00001AFF30080BDE85F
:100390001C4070470FB4044910B503AA029800F03E
:1003A0001FFB10BC5DF814FB680000200FB41CB5E7
:1003B000074B06AA7B4469460090059800F0F7FABF
:1003C0000020694600F006FB1CBC5DF814FB000031
:1003D0001D06000070B5044685690068C10601D598
:1003E000302600E02026C00707D070BDD4E90121E7
:1003F00030469047206A401C20626D1EF6D570BDC5
:1004000070B5044685690078C00707D170BDD4E98E
:10041000012120209047206A401C20626D1EF6D5E5
:1004200070BD2DE9F0474FF0000A89460446C0F838
:1004300020A02046E1688847002876D0252806D0ED
:10044000D4E901219047206A401C2062F1E7E1686D
:10045000204600258847C4F81CA006460027C4F89B
:1004600018A02A2E09D0304604F059F938B304EB0D
:100470008708303EC8F8186019E059F8041B204678
:1004800004EB87029161E1688847012F064618D185
:10049000E069002820DA25F020051DE0D8F81800D2
:1004A00000EB800006EB40003038C8F8180020460A
:1004B000E1688847064604F032F90028EED1012FA2
:1004C0000AD02E2E08D12046E16888477F1C0646B8
:1004D000022F45F02005C4DBA069002803DA404262
:1004E00045F00105A061E80701D025F01005B6B17F
:1004F000A6F14100192802D8203645F400654A4685
:100500003146204625604D46FFF78AFE58B1012846
:1005100006D0ED1D25F0070000F1080989E704E089
:1005200005F1040985E730468AE7206ABDE8F087CF
:100530004FF0000200B5134694469646203922BF7C
:10054000A0E80C50A0E80C50B1F12001BFF4F7AFC7
:10055000090728BFA0E80C5048BF0CC05DF804EBA9
:10056000890028BF40F8042B08BF704748BF20F817
:10057000022B11F0804F18BF00F8012B7047704715
:1005800070477047704770472DE9FF4F0C461E4675
:100590004FF0FF378BB0D2E90001DDF860800A90A0
:1005A0008A46C1F30A5505B93D46002108464FF079
:1005B0000000BAF1000F00F4400005DA00EB800003
:1005C0004FF4400101EA50004FEA9059B9F1010F90
:1005D00000DDB9460A9850EA4A000ED044F61050A1
:1005E000A5F2FF3545432F14B8F1000F1ED0754218
:1005F000291E1EDDC9F100021CE0B8F1010F4FF009
:10060000000001D0302103E0F24305E02154401CFA
:10061000B042FBDB30460022002121540B99C1F887
:100620000880C1E900200FB0BDE8F08FBD1B6D1C34
:10063000DEE74A4600DA694206A800F06DFA06AB2A
:1006400093E8070003AB83E8070050460A9900F0DF
:100650004BFB8DE80700A0F500501F380090039871
:10066000002D0ADD42F21F014A460844002303A977
:100670000390684600F0B4FD09E0A0F500504A463A
:100680001F38002303A90390684600F0BEFD8DE8E3
:1006900007000004000C03D04FF0FF30410800E0D9
:1006A0001046B8F1000F03D00022009215461EE05C
:1006B000751E05D400F0AAF9303262556D1EF9D5C9
:1006C000B3460122084302D000227F1C04E02078B8
:1006D000302801D100227F1E002A099784D01DE016
:1006E000112D07DA00F092F9303262556D1C50EA94
:1006F0000102F5D1084302D00098C8B10EE00021F4
:10070000681E05E0235C625C63542254401E491C51
:100710008142F7DBAB46A81B401E0990002004F87D
:100720000B000B98099AC0F80880C0E9002B7AE703
:1007300011264FF0000857E72DE9F04F8846044690
:10074000D21D22F0070191B0D1E90001CDE90A01E3
:1007500003F0BDFF02460B98C00F01D02D2007E02B
:100760002068810701D52B2002E0202101EAC0008A
:10077000032A099001D0072A05DB0346414620469B
:1007800000F08AF90BE12078800601D5E06900E0ED
:100790000620B8F1650F814606D0B8F1660F18D073
:1007A000B8F1670F70D131E00020B9F1110F00905E
:1007B00001DB112301E009F101030AAA01A90CA838
:1007C000FFF7E2FEDDE90C70002609F10105834622
:1007D00047E001204B4600904FF000470AAA01A9CC
:1007E0000CA8FFF7D1FEDDE90DB00C995D4600269F
:1007F00010B909F101000D18B9EB050003D4C0F1DF
:10080000FF3609F10105A5EB09002BE0B9F1010F55
:1008100001DA4FF001090020B9F1110F00904846AC
:1008200001DD112300E003460AAA01A90CA8FFF785
:10083000ABFEDDE90C704D460026834620780007AC
:100840000AD4AB4500DA5D4601A8012D04DD41194B
:1008500011F8011C302907D04F4502DA17F1040FB7
:1008600004DA012082460FE06D1EEEE7002F02DC65
:10087000ED1B3E4403E0781CA84200DD7D1CB81B44
:1008800000F1010A4FF000472078000703D4AA4581
:1008900001DB4FF0FF3A0021B7F1004F0DF14308A3
:1008A0008DF8431024D002202B23002F01DA7F4241
:1008B0002D230A21021EA0F1010000DC5FB197FB8D
:1008C000F1FC97FBF1F201FB1C7C17460CF1300C9C
:1008D00008F801CDEEE7A8F10100037021880905B1
:1008E00001D5452100E06521A0F1010800F8011CB7
:1008F00009980FA9A1EB0807FF1D00B101204119BC
:1009000001EBEA70A1693844081A401EA061207802
:10091000C00602D42046FFF75DFD099828B1D4E94E
:1009200001219047206A401C20622078C00622D511
:100930002046FFF74FFD1EE0002E04DBB34502DD2D
:1009400001A8805D00E03020D4E901219047206AB1
:10095000401C2062761CAAF101005FEA000A0AD15D
:1009600000F050F8C0680168405CD4E9012190476C
:10097000206A401C2062281EA5F10105DCDC07E08E
:10098000D4E9012118F8010B9047206A401C20622D
:10099000381EA7F10107F3DC2046FFF731FD0320E5
:1009A00011B041E601694A1C02610878704700B540
:1009B0008FB0CDE901310021059105497944CDE998
:1009C000031011466846FFF72CFD0FB000BD000074
:1009D000E5FFFFFF0A6802F8010B0A60704700009C
:1009E000074B70B50D467B44FFF7E1FF04462846F0
:1009F00000F004F910B14FF0FF3070BD204670BD1B
:100A0000473D0000004870473809002030B5B0F17C
:100A10000A024FEA900E71F100034EEA817EB0EBBC
:100A20000E0061EB91014FEA101E4EEA017E10EBC1
:100A30000E0041EB11114FEA102E4EEA016E10EB41
:100A40000E0041EB11214FEA104E4EEA014E10EB21
:100A50000E0041EB1141401841F100014FEAD00076
:100A600040EA41704FEAD10110EB80054FEA810462
:100A700044EA907444EB01046D1944EB0404521BE6
:100A8000A3414FF0000348BF0A3200D530BD401CDF
:100A900041F1000130BD00002DE9F0411F46044640
:100AA00003260168072A01F4006004DB08B116A5DB
:100AB00005E016A503E008B115A500E015A521F095
:100AC00010002060A069C01EA0610FB1401EA0618F
:100AD0002046FFF77FFC4FB1D4E90121384690470B
:100AE000206A401C2062C01C206206E0206AFAE7EF
:100AF000D4E9012115F8010B9047761EF8D2204663
:100B0000FFF77EFCBDE8F0814E414E006E616E0045
:100B1000494E4600696E66002DE9F047814616464B
:100B20008AB0354878440DC88DE80D0032487844C5
:100B3000801C03AC0DC884E80D0041F69B300844CE
:100B4000372190FBF1F290FBF1F5A5F1800501FB57
:100B500012041B3C02D56442012000E00020DFF8B3
:100B600098A080460027FA44AAF1BE0A0EE0E007EA
:100B70000AD03246684607EB470101230AEB8101A0
:100B800000F043FB8DE8070064107F1C002CEED1C1
:100B9000194F7F44AE3F19E0E80715D007EB04106A
:100BA0000DF1180A90E80E008AE80E00C068F042C5
:100BB00001D1981908903246012306A903A800F034
:100BC00024FB03AB83E807006D10641C002DE3D108
:100BD0004FF0010332466946B8F1000F03A802D076
:100BE00000F0FEFA01E000F010FBC9E90001C9F8CD
:100BF00008200AB0BDE8F087885D0000007B00F0A7
:100C00008000704700487047180900207546FFF7BC
:100C1000F9FFAE4605006946534620F007008546B9
:100C200018B020B5FFF72CFBBDE820404FF00006C0
:100C30004FF000074FF000084FF0000B21F00701C4
:100C4000AC46ACE8C009ACE8C009ACE8C009ACE807
:100C5000C0098D46704710B50446AFF300802046AA
:100C6000BDE81040FFF7F8BA4FF0013C50F8042BF4
:100C700051F8043B9A4221D1A2EB0C03934313EAAF
:100C8000CC1317D150F8042B51F8043B9A4215D1DC
:100C9000A2EB0C03934313EACC130BD150F8042BB3
:100CA00051F8043B9A4209D1A2EB0C03934313EA97
:100CB000CC13DBD04FF00000704700BFD01A01BA50
:100CC000B1FA81F101F0180122FA01F0CB40C1F133
:100CD0002001DBB2C0B2C01A2CFA01F3D11A914341
:100CE00011EAC311E6D170475FEA400C08BF91F0EA
:100CF000000F4FEA8C234FEAC12243EA51514FEAD9
:100D00001C5018BF00F5F0404FEA300018BF41F00A
:100D100000415FEA6C5C00F02980BCF1FF3F08BF36
:100D200040F080407047130C06BF12044FF0100CC7
:100D30004FF0000C130E04BF12020CF1080C130F3D
:100D400004BF12010CF1040C930F04BF92000CF1CC
:100D5000020CD30F04BF52000CF1010C11464FF0EE
:100D60000002A0F11F00A0EB0C00704711F0004F33
:100D700008BF704731F000413FF4D5AF0B0C06BF00
:100D800009044FF0100C4FF0000C0B0E04BF0902C9
:100D90000CF1080C0B0F04BF09010CF1040C8B0FB4
:100DA00004BF89000CF1020CCB0F04BF49000CF109
:100DB000010CCCF12003A0EB0C0022FA03F302FAA1
:100DC0000CF241EA030100F10100704720F07F4C72
:100DD00080EA030023F07F47ACEB070303F57C5365
:100DE00000F0004003F1FF032DE980494FEA154B65
:100DF00009B44FEA144325EA0B4E24EA03480FF2E4
:100E0000042606EB132749083E785FEA320203FB0B
:100E10000667C7F5000707FB06F64FEA54374FEAA7
:100E2000D64606F1020607FB066CCCF1005C4FEAE1
:100E30001C472CEA074C07FB06F40CFB06F504EBF9
:100E400015464FEA961634BF00204FF000404FEA97
:100E5000D13706FB07FC4FEA1C4C0CFB0BF7D21BEF
:100E600003FB0CF761EB07010CFB0EF7B0EB07403F
:100E700072EB17420CFB08F734BFA2EB0742B2EB50
:100E8000074261EB17414FEA0C444FEA910706FB1A
:100E900007FC4FEA1C4C0CFB0BF7B0EBC74072EBA6
:100EA000573203FB0CF734BFA2EBC742B2EBC74289
:100EB00061EB57310CFB0EF7B0EBC70072EB5772CA
:100EC0000CFB08F734BFA2EBC702B2EBC70261EB21
:100ED0005771039F4FEA816141EA921104EBCC0400
:100EE0004FEAD1374FEA826206FB07FC42EA9012D2
:100EF0004FEA80604FEA1C4C0CFB0BF7D21B03FB44
:100F00000CF761EB07010CFB0EF7B0EB074072EB3F
:100F100017420CFB08F734BFA2EB0742B2EB0742C3
:100F200061EB17414FEA8C554FEA910704EB9C2483
:100F300006FB07FC4FEA1C4C0CFB0BF7B0EBC74061
:100F400072EB573203FB0CF734BFA2EBC742B2EB94
:100F5000C74261EB57310CFB0EF7B0EBC70072EBE9
:100F600057720CFB08F734BFA2EBC702B2EBC70203
:100F700061EB577115EB4C254FEA816141EA921103
:100F80004FEA82624FEAD13742EA901206FB07FC31
:100F900044F100044FEA80604FEA1C4C0CFB0BF755
:100FA000D21B03FB0CF761EB07010CFB0EF7B0EB58
:100FB000074072EB17420CFB08F734BFA2EB074265
:100FC000B2EB074261EB174115EB1C154FEA81317B
:100FD00041EA92414FEA823242EA90424FEA80303F
:100FE0004FEA0C7644F1000448EA03434EEA0B480A
:100FF0004FF0000EB2EB080C71EB030724BF624602
:1010000039464EEB0E0E4FF0000B0018524149418D
:101010004BEB0B0BB2EB080C71EB03077BF1000BF6
:1010200024BF624639464EEB0E0E4FF0000B0018FF
:10103000524149414BEB0B0BB2EB080C71EB030730
:101040007BF1000B24BF624639464EEB0E0E51EA8F
:10105000020718BF46F0010616EB0E7655F10002A6
:1010600054F1000103D5BDE88901BDE80088BDE861
:101070008901BDE80048B619524141EB0101A3F1D5
:101080000103704780807F7E7D7C7B7A79787776DC
:1010900076757473727171706F6E6E6D6C6C6B6A55
:1010A0006A696868676666656464636362616160F3
:1010B000605F5F5E5E5D5D5C5C5B5B5A5A59595870
:1010C00058575756565555555454535352525251DA
:1010D000515050504F4F4F4E4E4D4D4D4C4C4C4B30
:1010E0004B4B4A4A4A494949484848474747474677
:1010F00046464545454444444443434343424242B3
:1011000042414141002B9C4630D477002BD01CB586
:101110004FEA370703B44FF010004FF01001BAF157
:10112000000F06D0BCF1000FDCBF40F0080040F01B
:1011300008014FF000000FBCBDE810400BF1010B9F
:10114000BBF1010F08BF5FEA170722BF12F10102CE
:1011500011F101014FF0004143F1000300F00040A4
:1011600043EA00007047F9D35708D0E746EA06463D
:1011700013F1400F4FEA16461FDD13F1200FDFBFBA
:1011800016430A46002120335B42BED0C3F120073C
:1011900046EA064602FA07F74FEA164646EA070607
:1011A000C3F1200722FA03F201FA07F721FA03F14B
:1011B0004FF0000342EA0702A7E746EA020646EAC2
:1011C00006464FEA164646EA0106BCBF46EA064610
:1011D000360C4FF000034FF000024FF0000194E78F
:1011E0002DE9804C9A46934670B491E8380007C8C0
:1011F00031EA400C48BF34EA430C03D5FFF7E6FD63
:10120000FFF780FFF0BCBDE8008C2DE9804C9A46CA
:10121000934670B491E8380007C810F0804F08BFBB
:1012200013F0804F03D100F005F8FFF76BFFF0BC1F
:10123000BDE8008C20F07F4780EA030023F07F4C5C
:1012400007EB0C03A3F57C5300F00040A3F1FE0371
:1012500092F0000F00F0B38095F0000F00F077805F
:101260002DE901494FEA11404FEA144621EA0048AE
:1012700000FB06FC24EA064708FB06F607FB08F815
:1012800000FB07F718EB06484CEB164C4FEA124BE5
:1012900018EB07484FEA15464CEB174022EA0B4E75
:1012A0000BFB06FC25EA06470EFB06F607FB0EFEC7
:1012B0000BFB07F71EEB064E4CEB164C4FF00006EF
:1012C0001EEB074E4CEB174B18EB0B0840F10000E0
:1012D00018EB0E0B58EB000840F100008F1A4FF08E
:1012E00000013CBFC943661B14BFB5EB040C0021D1
:1012F0003CBFC943F61B4FEA17444EEA8E0E27EA5D
:1013000004454FEA1C4704FB07622CEA074C05FB27
:1013100007F70CFB05F604FB0CFC16EB074642EB4B
:10132000174216EB0C4642EB1C421BEB060658EB31
:101330000202414146EA9E0601D5BDE80189B6197F
:10134000524141EB0101A3F10103BDE801894FEADC
:1013500014454FEA114724EA054621EA074C05FBEC
:1013600007F406FB07F70CFB06F105FB0CFC11EB81
:10137000074144EB17444FEA124711EB0C4144EB91
:101380001C4422EA074C05FB07F206FB07F70CFB9F
:1013900006F605FB0CFC16EB074642EB174216EB74
:1013A0000C4642EB1C456A1854F1000148BF7047D7
:1013B000B619524141EB0101A3F10103704795F0C9
:1013C000000F37D04FEA11424FEA144721EA024694
:1013D00024EA074C02FB07F106FB07F70CFB06F4B7
:1013E00002FB0CFC14EB074441EB17414FEA154795
:1013F00014EB0C4441EB1C4125EA074C02FB07F5BA
:1014000006FB07F70CFB06F602FB0CFC16EB074687
:1014100045EB174516EB0C4645EB1C42121951F1F2
:10142000000148BF7047B619524141EB0101A3F1D9
:10143000010370474FEA14454FEA114724EA054675
:1014400021EA074C05FB07F106FB07F70CFB06F248
:101450004FF0000605FB0CFC12EB074241EB174175
:1014600012EB0C4251EB1C4148BF7047921841EB04
:101470000101A3F10103704710B50146806B026CB6
:1014800012F0500F05D0026CD20626D500F0E8F914
:1014900010BD016C41F40071016401688A6812F0AA
:1014A000405F17D1027EAAB9CA6A12F4700F02D047
:1014B0008A6852050ED44A6822F020024A60016C04
:1014C00021F480710164016CC90403D4016C41F002
:1014D0000101016400F0C2F910BD806BC26CBDE86F
:1014E00010400846104710B5806B40210164416CE4
:1014F00041F00401416400F0B3F910BD10B5806BF8
:1015000000F0ADF910BD0000464910B54A6822F45C
:1015100040324A604A6843681A434A6001684A6830
:1015200022F480724A6001684A68036942EA032231
:101530004A6001684A6822F040724A6001684A685D
:1015400083681A434A6001688A6822F400628A60EC
:1015500001688A68C3681A438A60816A6FF07062A2
:10156000D14201688A6822F070628A6001688A68E4
:101570000CD0836A1A438A6001688A6822F040525C
:101580008A6001688A68C36A1A4301E022F0405207
:101590008A6001688A6822F002028A6001688A68AB
:1015A000037E42EA43028A6090F820100029016815
:1015B0004A680FD042F400624A6001684A6822F427
:1015C00060424A6001684A68174C436A04EB43333F
:1015D0001A4301E022F400624A600168CA6A22F4F8
:1015E0007002CA620168CA6A838B104C04EB035311
:1015F0001A43CA6201688A6822F400728A6001682C
:101600008A6890F8303042EA43228A6001688A682A
:1016100022F480628A6001688A68406942EA802018
:10162000886010BD0023014000E0FFFF0000F0FFD4
:10163000FEE70000014800F045BA00005406002013
:10164000014800F03FBA00000C0700200168182391
:10165000CAB2103AB2FBF3F2054B6FF30901032A49
:101660009B5CC36500D9091D816508467047000071
:101670001468000810B5014600208B698A6A4FF093
:10168000C07453B1B3F5005F15D072B1012A0CD00C
:10169000022A0AD0032A09D104E01AB1012A06D08D
:1016A000022A03D1C96AC90100D5012010BDC96A47
:1016B000A142FAD010BD002AF7D0012AF2D0022AA6
:1016C000F3D0032AF3D010BD30B50468256825F4A3
:1016D00080252560046863608368402B036803D01D
:1016E00099600068C26030BD9A600068C16030BD1A
:1016F000704772B6FEE7000078B50024009490F8B9
:101700003C20012A19D0012280F83C200A680723D6
:101710000568092A13D9EE680A3A02EB420293409F
:101720009E43EE600B788A680A3B03EB43039A40C2
:101730000368DD682A43DA6010E0022078BD2E6974
:1017400002EB420293409E432E610B788A6803EBC2
:1017500043039A4003681D692A431A614A681F239C
:10176000072A13D205686E6B521E02EB8202934069
:101770009E436E630A8893B20A79521E02EB82027C
:1017800093400268556B2B43536327E005680D2A8D
:1017900012D22E6BD21F02EB820293409E432E6325
:1017A0000B790A88DB1F92B203EB83039A4003682C
:1017B0001D6B2A431A6311E0EE6A0D3A02EB8202B6
:1017C00093409E43EE620B790A880D3B92B203EB85
:1017D00083039A400368DD6A2A43DA621B4B05687B
:1017E000194A9D420AD10D68122D07D1556825F47A
:1017F00000055560556845F48005556005689D42B3
:101800001DD1134D0B68AB4201D0112B17D153687A
:1018100023F480035360536843F400035360096862
:10182000A9420CD10B490C4A0968B1FBF2F101EB5A
:101830008101490000E0491E00910029FBD180F898
:101840003C40002078BD0000002301400020014002
:10185000120000107800002040420F0070477047CF
:10186000704770B504004FF0000503D0206C0026CF
:1018700010B107E0012070BD204600F01DF866643D
:1018800084F83C60206CC00610D4206C20F4885092
:1018900040F0020020642046FFF736FE6664206CAC
:1018A00020F0020040F00100206400E0012584F8EF
:1018B0003C60284670BD000070B586B00646142115
:1018C0006846FEF735FE24493068884242D12348F5
:1018D0000025016841F48071016000681F4900F42F
:1018E000807014390590086840F0010008600868AD
:1018F00000F001000590086840F0020008600868E8
:10190000032400F0020005900C208DE831006946A8
:10191000134800F049FA009469461248CDE90145A0
:1019200000F042FA114C1048C4E900050015A5600A
:10193000C4E90350800060618000A0618011C4E9A7
:1019400007052046656200F08DF908B1FFF7D1FE6A
:10195000B463A66306B070BD002001404438024065
:1019600000000240000402401064024054060020BF
:10197000F8B5044600200E46009094F83C1001296A
:1019800007D0012184F83C1021688B68DB0702D066
:1019900011E00220F8BD8B6843F001038B604049E1
:1019A000404B0968B1FBF3F101EB410100E0491E36
:1019B00000910029FBD121688B68DB0503D58B687A
:1019C00023F480738B6021688B68DB075DD0236C08
:1019D00040F20165AB4343F48073236449684905D1
:1019E00005D5216C21F4005141F480512164216C12
:1019F000C90404D5616C21F00601616400E06064F3
:101A000084F83C00A16B2948274DC863A16B284886
:101A10000864A16B2748C86421686FF02200086041
:101A20002068416841F0806141602068816841F42C
:101A3000807181602168134632464C31A06B00F002
:101A40007BF968681C49C006206806D0884224D10A
:101A5000816811F0405F13D01FE08842F8D0174A28
:101A6000904203D1D1F80423D206F1D0144A904217
:101A700013D1D1F8041301F01F011029E8D30CE0B1
:101A8000816841F08041816007E0206C40F01000E7
:101A90002064606C40F0010060640020F8BD00002C
:101AA0007800002040420F00002301407914000814
:101AB000FD140008E7140008002001400021014047
:101AC000002201402DE9F84304464FF00009CDF80B
:101AD000009063484FF41651A56D0068B0FBF1F714
:101AE0002E6894F85C10082000FA01F131420FD002
:101AF00021680A6852070BD50A6822F004020A60BE
:101B000094F85C108840A860606D40F0010060654A
:101B100094F85C104FF0010808FA01F0304208D048
:101B200021684969090604D5A860606D40F002008B
:101B3000606594F85C1004208840304208D0216829
:101B40000968890704D5A860606D40F004006065ED
:101B500094F85C1010208840304218D02168096841
:101B6000090714D5A86020680168490304D50068F6
:101B7000000308D5A16C07E00168C90503D401681A
:101B800021F008010160216C09B12046884794F8D2
:101B90005C1020208840304231D021680968C90695
:101BA0002DD5A86094F8350005282068016806D076
:101BB000490347D5006800031DD4616C1CE021F087
:101BC000160101602068416921F080014161206CAB
:101BD00008B9A06C20B12068016821F008010160FB
:101BE00094F85C103F208840A86084F8358084F821
:101BF0003490216D1FE0E16B09B120468847606D8C
:101C000000282BD0606DC00714D0052084F8350063
:101C10002068016821F0010101600098401C0090DB
:101C2000B84203D820680068C007F6D184F8358030
:101C300084F83490E16C002910D001B02046BDE852
:101C4000F04308470168C905D5D4016821F01001A7
:101C5000016084F8358084F83490CCE7BDE8F883DF
:101C6000780000202DE9F041044600F0C1F9064655
:101C70005CB1022084F83500002584F834502068D7
:101C8000016821F0010101600DE00120BDE8F08153
:101C900000F0AEF9801B052805D9202060650320DF
:101CA00084F83500F2E720680068C007F0D12268A8
:101CB000116820480140D4E901031843D4E90336F0
:101CC0003343184363691843A3691843E36918430E
:101CD000236A18430843616A042903D1D4E90B132A
:101CE00019430843106020684069666A20F00701C4
:101CF00030460E43012704280CD1A06A0643E06A4F
:101D000040B12046FFF7B6FC20B14020606584F862
:101D10003570BAE7206846612046FFF797FC94F8D3
:101D20005C203F2191408160656584F8357000201A
:101D3000ACE700003F8010F02DE9F0410446866DCD
:101D400090F83400002501280DD0012084F83400DB
:101D500094F835700020012F07D084F83400022554
:101D60002846BDE8F0810220FBE7022784F83570A1
:101D700060652046FFF7A8FC94F85C103F2088407F
:101D8000B0602068016841F016010160206C20B14C
:101D90002068016841F0080101602068016841F095
:101DA00001010160DCE700002DE9F84FDFF8F8A140
:101DB0000022012403254FF00F090AF1040BAAF1B8
:101DC000040E00BF0B6804FA02F63340B34270D130
:101DD0000F7907F00307012F01D0022F16D1876872
:101DE0004FEA420805FA08FC27EA0C07D1F80CC0B4
:101DF0000CFA08FC4CEA070CC0F808C04768B74367
:101E00000E79C6F3001696403E4346600E79F643BF
:101E1000B6070AD0C7684FEA420C05FA0CF6B7437A
:101E20008E6806FA0CF63E43C6600E7906F003068D
:101E3000022E10D1D60800EB8608D8F8206057078C
:101E40004FEAD76C09FA0CF7BE430F6907FA0CF793
:101E50003743C8F8207006684FEA420C05FA0CF7C1
:101E6000BE430F7907F0030707FA0CF73743076003
:101E70004E6816F4403F1CD04C4E376847F48047FC
:101E80003760366822F0030706F480460096484E15
:101E900007EB060CDCF8086897073F0F09FA07F80C
:101EA00026EA0806DFF80C81404503D14FF0000810
:101EB00041E072E0DFF80081404502D14FF00108B7
:101EC00039E0DFF8F880404502D14FF0020832E0F7
:101ED000DFF8EC80404502D14FF003082BE0DFF83B
:101EE000E480404502D14FF0040824E0DFF8D880B8
:101EF000404502D14FF005081DE0DFF8D080404595
:101F000002D14FF0060816E0DFF8C480404502D148
:101F10004FF007080FE0DFF8BC80404502D14FF0DA
:101F2000080808E0DFF8B080404502D14FF009080A
:101F300001E04FF00A0808FA07F848EA0608CCF86A
:101F40000888DAF800605746D1F804C09E435FEA7B
:101F5000CC2C00D51E433E60DBF800605F46D1F814
:101F600004C09E435FEA8C2C00D51E433E60DEF821
:101F700000607746D1F804C09E435FEA8C3C00D5F0
:101F80001E433E60084F083F3E68D1F804C09E43A0
:101F90005FEACC3C00D51E433E60521C102AFFF481
:101FA00011AFBDE8F88F0000083C01404438024002
:101FB00000300140000002400004024000080240DE
:101FC000000C0240001002400014024000180240C1
:101FD000001C02400020024000240240006908402A
:101FE00000D0012070470AB1816170470904FBE706
:101FF00001488068704700006C000020024881683A
:1020000002781144816070476C0000200B4810B5C5
:10201000016841F400710160016841F48061016070
:10202000016841F480710160032000F06FF80F2017
:1020300000F006F800F024F8002010BD003C02403B
:1020400070B50D4D04464FF47A712878B1FBF0F06D
:102050000A490968B1FBF0F000F072FC48B9102C95
:1020600007D200222146501E00F030F800206C609C
:1020700070BD012070BD00006C00002078000020C1
:102080000A4808B5016841F480410160006800F425
:10209000804000900548001F016841F080510160B8
:1020A000006800F08050009008BD000044380240F5
:1020B000002809DB00F01F02012191404009800047
:1020C00000F1E020C0F8001170470000F0B40E4BA2
:1020D0001B680C46C3F30223C3F10705042D00D986
:1020E0000425191D072901D2002300E0DB1E01266B
:1020F00006FA05F1491E214099409E40761E164081
:102100003143F0BC02F0FBBA0CED00E0064900F0F0
:10211000070208684FF6FF03184040EA0220034A0E
:1021200010430860704700000CED00E00000FA0565
:102130002DE9F8431748016841F0805101600068BB
:10214000154F00F08050012600903E64FFF750FFCD
:1021500005464FF47A78114C05E000BFFFF748FFC1
:10216000401B40450DD86068C003F7D57E64FFF77B
:102170003FFF0546464607E0FFF73AFF401BB042E7
:1021800002D90320BDE8F88360688003F4D50020FD
:10219000F8E700004038024000000E4200700040A6
:1021A0002DE9F0470E46050065D0DFF81481D8F818
:1021B0000000F7B200F00F00B04207D288F80070BC
:1021C000D8F8000000F00F00B04254D128683D4C10
:1021D000810712D5400703D5206840F4E050206005
:1021E0002878000703D5206840F46040206020680C
:1021F000A96820F0F000084320602878C0072DD09F
:10220000304968680839012812D0022813D0032801
:1022100011D00968890700292DDA216821F003010E
:1022200001432160FFF7E4FE814641F2883A0EE067
:1022300009688903EFE709688901ECE7FFF7D8FE31
:10224000A0EB0901514502D90320BDE8F0872068C1
:10225000696800F00C00B0EB810FEFD1D8F80010E6
:10226000404601F00F01B14207D90770006800F045
:102270000F00B04201D00120E7E72878400705D5DC
:102280002068E96820F4E0500843206028780007BF
:1022900006D52068296920F4604040EAC10020602A
:1022A00000F038F82168084AC1F30311515CC840B6
:1022B0000649086006480068FFF7C2FE0020C4E730
:1022C000003C0240083802401C68000878000020EA
:1022D000700000200448054900680968044AC1F3F9
:1022E0008221515CC84070477800002008380240C5
:1022F0002C6800080448054900680968044AC1F3CD
:102300004231515CC84070477800002008380240D4
:102310002C680008154810B5006810F00C0214482D
:1023200013D01449042A0FD0082A0ED10F4C241FB1
:102330002268236802F03F025B0207D52068C0F3E1
:102340008810A0FB010106E0084610BD2168C1F31A
:102350008811A1FB00010023FDF7A5FF2168C1F34F
:102360000141491C4900B0FBF1F010BD08380240A2
:102370000024F40040787D012DE9F84F04006ED070
:102380002078DFF84C93C007A9F104054AD009F181
:1023900004000168C1F38101012908D00068C0F37D
:1023A000810002280AD1D9F80000400206D5286829
:1023B000800337D560680028E1D033E06068B0F56D
:1023C000803F10D0B0F5A02F286810D020F48030C6
:1023D0002860286820F4802028606068A8B1FFF792
:1023E00007FE06460DE0286840F48030F4E740F42C
:1023F00080202860F7E700BFFFF7FAFD801B642804
:1024000073D828688003F7D50CE0FFF7F1FD064686
:1024100005E000BFFFF7ECFD801B6428F0D82868BA
:102420008003F7D42078DFF8AC8280074FF0000AF1
:102430003ED5A748001D016811F00C0F08D00068B8
:10244000C0F3810002280BD1D9F80000400207D464
:102450002868800716D5E068012800D112E033E132
:10246000E068B8B10120C8F80000FFF7C1FD0646DA
:1024700005E000BFFFF7BCFD801B0228C0D828681C
:102480008007F7D52868216920F0F80040EAC100EC
:1024900028600DE0C8F800A0FFF7AAFD064604E09A
:1024A000FFF7A6FD801B02281FD828688007F7D4F5
:1024B0002078000722D5864F87486169703771B14F
:1024C00001210160FFF794FD064604E0FFF790FD4F
:1024D000801B022809D838688007F7D50EE0C0F8BD
:1024E00000A0FFF785FD064605E082E0FFF780FDCE
:1024F000801B02287DD838688007F7D420784007F1
:1025000068D5DFF8CCB100270BF13C0BDBF80000FD
:10251000C0000BD4DBF8001041F08051CBF8001064
:10252000DBF80000012700F0805000906B4E30680F
:10253000C00510D4306840F480703060FFF758FD5B
:10254000009005E0FFF754FD0099401A022850D88A
:102550003068C005F6D55E4EA0686C3601280FD0F5
:102560000528306810D020F001003060306820F07D
:1025700004003060A068B8B1FFF73AFD00900FE0AA
:10258000306840F00100F4E740F004003060F7E705
:10259000FFF72EFD0099411A41F28830814266D83A
:1025A00030688007F4D50EE0FFF722FD009007E0C9
:1025B000FFF71EFD0099411A41F28830814256D83A
:1025C00030688007F4D42FB1DBF8001021F080517F
:1025D000CBF80010A069C8B33D49091D0968C1F3D3
:1025E000810102294AD00228504607D0C8F860006D
:1025F00000E03CE0FFF7FCFC04463BE04746C8F83F
:102600006000FFF7F5FC064605E000BFFFF7F0FCB1
:10261000801B02282BD828688001F7D4D4E9070151
:102620000843A16A2E4A490802EB0141626A41EA65
:102630008211084394F82C1040EA0161C9F8001097
:1026400001203866FFF7D4FC044606E03EE000BFF8
:10265000FFF7CEFC001B022809D828688001F7D5B7
:1026600034E000BFFFF7C4FC001B022802D903209E
:10267000BDE8F88F28688001F4D427E00128F7D05E
:10268000D9F80000E26900F4800191421CD1226A6D
:1026900000F03F01914217D147F6C071626A0140D4
:1026A000B1EB821F10D1A26A4FF0FF3300F440312A
:1026B00003EB5202B1EB024F06D194F82C1000F05C
:1026C0007060B0EB016F01D00120D1E70020CFE7AF
:1026D0000438024000004742800E4742007000402C
:1026E0000000FFFF704770B5040009D0606A002544
:1026F00040B125616561A56294F8510040B10CE0DC
:10270000012070BD6068B0F5827FF4D0E561F2E72A
:1027100084F85050204600F045F8022084F851001B
:102720002068016821F040010160A088218900F43F
:10273000827001F404410843A18901F40061084357
:10274000217C01F002010843217D01F001010843D1
:10275000218B01F400710843217F01F03801084307
:1027600094F8201001F080010843218D01F40051FC
:10277000084321680860A069042101EA104094F828
:10278000241001F010010843216848602068C169E5
:1027900021F40061C1616565012084F851000020C9
:1027A00070BD00002DE9F04186B006461421684650
:1027B000FDF7BEFE25493068884244D124480025F3
:1027C000016841F4805101600068214900F48050A3
:1027D00014390590086840F001000860086800F0AE
:1027E00001000590086840F00200086008680224B3
:1027F00000F002000590802003274FF005088DE8C7
:10280000B10169461348FFF7CFFA08208DE8B101FE
:1028100069461148FFF7C8FA114C10482060780645
:1028200060604020C4E902050001C4E90405A56117
:10283000E561256220466562FFF714FA08B1FEF7EC
:1028400058FFB464A66306B0BDE8F08100300140D3
:102850004438024000000240000402405864024034
:102860000C0700202DE9F041044690F850000026A6
:10287000012809D0012784F8507094F851000025F0
:10288000012804D002264EE00220BDE8F08189B183
:1028900082B1032084F8510065652163A286E28637
:1028A000A56365642564A587E587A068B0F5004F3A
:1028B00002D00BE0012636E02068016821F04001DB
:1028C00001602068016841F480410160A16C1848F2
:1028D0000864A16C1748C863A16C1748C864A06C51
:1028E0000565E38E2268216B0C32A06CFFF724FA99
:1028F00038B1606D40F010006065012684F85170B9
:1029000011E020680168490603D4016841F04001E4
:1029100001602068416841F0200141602068416801
:1029200041F00201416084F850503046ADE70000AC
:10293000393E0008433E0008173E000870477047C4
:1029400010B5401EB0F1807F01D3012010BD4FF0C3
:10295000E02460610F21601701F0D1FE0020A0612A
:1029600007202061002010BD7047704710B590F817
:102970003C20012A22D0012280F83C20CA688C68C1
:1029800022F4407222434C6822F4806222430C6895
:1029900022F4006222430C6922F4805222434C69E3
:1029A00022F400522243C969002322F480420A43E0
:1029B00001684A6480F83C30002010BD022010BD40
:1029C00070B590F83C20012A32D0012480F83C40B8
:1029D000022280F83D2003685A689D6822F0700644
:1029E0000A6832435A60134B02689A4214D0B2F11B
:1029F000804F11D0104B9A420ED0104B9A420BD000
:102A00000F4B9A4208D00F4B9A4205D00E4B9A4278
:102A100002D00E4B9A4204D1496825F08003194335
:102A2000916080F83D40002180F83C10084670BD60
:102A3000022070BD0000014000040040000800407A
:102A4000000C00400004014000400140001800401C
:102A500010B5040003D094F83D0010B107E0012048
:102A600010BD002084F83C00204600F01FF8022032
:102A700084F83D00211D206801F00AFB012084F844
:102A8000460084F83E0084F83F0084F8400084F853
:102A9000410084F8420084F8430084F8440084F83C
:102AA000450084F83D00002010BD000008B5016815
:102AB0001A48814209D11A48016841F001010160B8
:102AC000006800F00100009008BD1548154A001F7D
:102AD00091420ED1016841F00801016000680022B6
:102AE00000F00800009011463220FFF7EFFA322084
:102AF00010E00D4A9142E7D1016841F020010160E8
:102B00000068002200F02000009011463720FFF7F7
:102B1000DDFA3720BDE80840FFF7CABA00000140DF
:102B200044380240000C00400014004090F83D1072
:102B3000012901D001207047022180F83D10016871
:102B4000CA6842F00102CA6000681149884214D084
:102B5000B0F1804F11D00F4988420ED00E49884203
:102B60000BD00E49884208D00D49884205D00D4946
:102B7000884202D00C49884204D1816801F00701E3
:102B8000062903D0016841F001010160002070476F
:102B9000000001400004004000080040000C00401C
:102BA00000040140004001400018004070B5044698
:102BB00090F83C000025012817D0012684F83C60DD
:102BC000022084F83D002068826822F0770222F417
:102BD0007F4282600868502838D00DDC20284FD012
:102BE00005DC90B3102811D14AE0022070BD3028D6
:102BF00046D040280AD13BE060282FD070280DD065
:102C0000B0F5805F03D0B0F5005F12D0012584F8E5
:102C10003D60002084F83C00284670BDCB68D1E9B7
:102C20000121206801F0A5FA2068816841F0770150
:102C300009E0CB68D1E90121206801F09AFA206807
:102C4000816841F480418160E1E719E0CA68496820
:102C5000206801F063FB5021206806E0CA684968DB
:102C6000206801F06CFB6021206801F08CFACEE74F
:102C7000CA684968206801F051FB40212068F4E7E8
:102C8000226801461046F0E72DE9F0410D460400A8
:102C900003D094F83D0018B108E00120BDE8F081B0
:102CA000002084F83C00204600F040F8022084F820
:102CB0003D002068816844F2070291438160211D34
:102CC000206801F0E5F9226890689169166A2B681E
:102CD000AF69034340F20330814341EA0721A8680A
:102CE000EF6908434FF6FC418843E96840EA072052
:102CF000014328692F6A000140EA073008436968E8
:102D00006D6926F0AA0646EA0515294393602268F4
:102D1000906154F8460B0162012004F81F09E07528
:102D20002076E0762077A0750020B7E770B586B0F2
:102D3000044614216846FDF7FBFB2F492368002455
:102D40002D4A103902252D48B3F1804F37D02C4E33
:102D5000B34232D1136843F002031360126802F0E9
:102D6000020205920A6842F001020A600A6802F053
:102D7000010205920A6842F004020A60096801F043
:102D80000401059140210091CDE901546946CDE946
:102D90000345FFF709F880200090CDE9015469460A
:102DA0001848CDE90345FEF7FFFF002211461D201C
:102DB000FFF78CF91D20FFF77BF906B070BD136893
:102DC00043F001031360126802F0010205920A68E1
:102DD00042F001020A60096801F00101059148F220
:102DE00002010091CDE901540121CDE90341694679
:102DF000FEF7DAFFE1E70000403802400000024041
:102E0000000400400008024070B590F83E6004469F
:102E100090F83F5090F8423090F84320022021B1C2
:102E200004290ED0012E1BD114E0012E18D1012B44
:102E300016D184F83E0084F8420001220021206867
:102E400020E0012D0CD1012A0AD184F83F0084F83A
:102E5000430014E0012D03D1012B01D1012A01D03F
:102E6000012070BD84F83E0084F83F0084F84200E1
:102E700084F8430001220021206801F06DF901224D
:102E80000421206801F068F92068016841F001011F
:102E90000160002070BD704770B50446006801698C
:102EA0004FF00005C943890715D4C168C943890794
:102EB00011D4E91E01610120207720688069800714
:102EC000204602D0FFF7E7FF04E000F0C5F82046F7
:102ED00000F057F9257720680169C943490717D4DD
:102EE000C168C943490713D46FF00401016102208E
:102EF00020772068806910F4407F204602D0FFF7D9
:102F0000CAFF04E000F0A8F8204600F03AF925775F
:102F100020680169C943090716D4C168C943090774
:102F200012D46FF008010161042020772068C06985
:102F30008007204602D0FFF7AEFF04E000F08CF8D7
:102F4000204600F01EF9257720680169C943C906AB
:102F500017D4C168C943C90613D46FF010010161C9
:102F6000082020772068C06910F4407F204602D0F6
:102F7000FFF791FF04E000F06FF8204600F001F940
:102F8000257720680169C943C90708D1C168C943C9
:102F9000C90704D1891E0161204600F06DF920683F
:102FA0000169C943090609D4C168C943090605D4A2
:102FB0006FF0800101612046FFF7D6FC20680169AF
:102FC000C943490609D4C168C943490605D46FF00D
:102FD00040010161204600F0EFF920680169C94312
:102FE00089060BD4C168C943890607D46FF0200154
:102FF00001612046BDE87040FFF7B7BC70BD00001E
:1030000010B586B0044614216846FDF791FA0F49C1
:103010002068884217D10E480021026842F0010260
:103020000260006800F0010005904FF440700090CD
:103030000220CDE90101032003900120049069469C
:103040000448FEF7B1FE06B010BD000000000140CC
:103050003038024000000240704770B5044690F8D6
:103060003C0000260D4601280FD0012084F83C00CA
:103070006AB1042A1DD0082A2FD00C2A3FD001267D
:10308000002084F83C00304670BD022070BD2068EE
:1030900001F082F82068816941F0080181612068AF
:1030A000816921F004018161206881692A691143E5
:1030B00011E0206801F0A0F82068816941F4006106
:1030C00081612068816921F4806181612068816962
:1030D0002A6941EA02218161D2E7206801F0C2F841
:1030E0002068C16941F00801C1612068C16921F00F
:1030F0000401C1612068C1692A69114311E0206897
:1031000001F0E4F82068C16941F40061C161206800
:10311000C16921F48061C1612068C1692A6941EAFD
:103120000221C161ACE710B5040003D094F83D0062
:1031300010B107E0012010BD002084F83C002046BB
:1031400000F01EF8022084F83D00211D206800F0E8
:103150009FFF012084F8460084F83E0084F83F0079
:1031600084F8400084F8410084F8420084F8430069
:1031700084F8440084F8450084F83D00002010BD28
:103180007047704730B500250446022249B1042932
:1031900012D008294CD094F84100012853D00120C6
:1031A00030BD94F83E000128F9D184F83E20206813
:1031B000C26842F0020209E094F83F000128EED113
:1031C00084F83F202068C26842F00402C2600122F5
:1031D000206800F0C1FF21492068214A884201D0BF
:1031E000904203D1436C43F4004343642068884217
:1031F00013D0B0F1804F10D01A4988420DD01A492F
:1032000088420AD01949884207D0904205D018490F
:10321000884202D01749884204D1816801F0070131
:10322000062903D0016841F001010160284630BD44
:1032300094F840000128B2D184F840202068C26888
:1032400042F00802C2E784F841200C2901D0012590
:10325000ECE72068C26842F01002B7E700000140C6
:10326000000401400004004000080040000C004041
:1032700000400140001800402DE9F0410068464937
:1032800088424BD1454C0025E088401C80B2E0804C
:10329000618A491C6182E189491CE1812189491CBB
:1032A00021816189491C6181E169491CE161616B8E
:1032B000491C6163B0F5FA7F06D3208A401C208246
:1032C000E58037A0FDF766F801213948FEF786FE54
:1032D0000126012824D0A564A563A565354F4FF4C8
:1032E00080613846FEF77AFE012828D0E564E56360
:1032F000C4F85C504FF480513846FEF76FFE012849
:103300002CD02565256425664FF480413846FEF7AC
:1033100065FE012831D0656565646566BDE8F081AC
:10332000A06C401CA064072807DBA06D08B1A56451
:10333000D4E7A663A665A564D0E7A563CEE7E06CF5
:10334000401CE064072807DBE06D08B1E564D1E7C5
:10335000E663E665E564CDE7E563CBE7206D401CF9
:103360002065072807DB206E08B12565CCE72664B9
:1033700026662565C8E72564C6E7606D401C606564
:10338000072807DB606E08B16565C7E76664666697
:103390006565C3E76564C1E7000C004000000020DC
:1033A00068656C6C6F20776F726C640A00000000B7
:1033B000000002400004024070477047704770B53B
:1033C000040004D094F83D00002510B106E001206F
:1033D00070BD84F83C50204600F022F8242084F888
:1033E0003D002068C16821F40051C160204601F011
:1033F00061F82068016921F4904101612068416908
:1034000021F02A0141612068C16841F40051C16086
:103410002564202084F83D0084F83E00002070BD23
:10342000F0B587B0044614216846FDF781F81D49C0
:103430002068884233D11C480024016841F480117F
:103440000160006800F4801005901748103801688A
:1034500041F004010160016801F004010591016877
:1034600041F0080101600068022500F008000590A5
:103470004FF48050CDE9000502AA0326082782E810
:10348000D00069460948FEF78FFC0420CDE900050D
:1034900002AA694682E8D0000548FEF785FC07B01D
:1034A000F0BD0000005000404038024000080240DB
:1034B000000C024090F83E30202B0ED159B152B191
:1034C00090F83C30012B08D0012380F83C300023D9
:1034D000036301F075B80120704702207047704700
:1034E000704700002DE9F843044690F83D001F4660
:1034F00016460D4620284CD1C5B1BEB194F83C000B
:10350000012846D0012084F83C004FF00008C4F8A0
:103510004080212084F83D00FEF76AFDA6848146A4
:10352000E684A068B0F5805F03D004E00120BDE828
:10353000F883206928B12E465FF0000584F83C80AE
:103540000EE00026FAE78021204601F083F8A0B9BA
:10355000AEB116F8010B21684860E08C401EE08493
:10356000E08C4B464FF0000200970028EBD14FF063
:103570004001204601F06EF830B10320D7E735F85E
:10358000020BC0F30800E6E7202084F83D0000208D
:10359000CDE70220CBE7FEE77FB50021254800916B
:1035A00001910291224A0391026001244FF480327A
:1035B0000461C0E90121047680F820101E4AC0E9A8
:1035C0000A210425C561C16080F830404161FEF7E1
:1035D00048F908B1FEF78DF8022607200096CDE9DC
:1035E000014069461348FEF787F808B1FEF781F8F5
:1035F0000324CDE9004669460E48FEF77DF808B180
:10360000FEF777F80820CDE9000469460948FEF77F
:1036100073F808B1FEF76DF80920CDE90005694699
:103620000448FEF769F8002801D0FEF762F87FBD74
:10363000002001400C0600200100000F0D4808B5D5
:10364000016841F4800101600068002200F48000FC
:10365000009011463820FEF739FD3820FEF728FD8E
:10366000002211463B20FEF731FDBDE808403B201B
:10367000FEF71EBD303802402DE9F04F87B014210F
:103680006846FCF755FF63480024016841F01001CB
:103690000160016801F010010591016841F020010D
:1036A0000160016801F020010591016841F080018D
:1036B0000160016801F080010591016841F001019C
:1036C0000160016801F001010591016841F002010A
:1036D0000160016801F002010591016841F04001BB
:1036E0000160016801F040010591016841F00401A9
:1036F0000160016801F004010591016841F00801D1
:1037000001600068DFF810B100F0080005900022A9
:1037100008215846FEF767FC4FF4A077002239468F
:103720003E48FEF760FC4FF40078012241463B48DA
:10373000FEF759FC4FF44269002249463848FEF72B
:1037400052FC002208213748FEF74DFC4FF4407A26
:10375000002251463448FEF746FC002280213348BF
:10376000FEF741FC082601250096CDE90154694683
:1037700058460394FEF718FB0097CDE901546946BB
:1037800026480395FEF710FBCDF80080CDE90154E3
:10379000694622480394FEF707FBCDE9005402274F
:1037A00069461F480297FEF7FFFACDF80090CDE971
:1037B000015469461A480394FEF7F6FA4FF4A840FC
:1037C0008DE8910069461A48FEF7EEFA0096CDE9B9
:1037D0000154694613480394FEF7E6FACDF800A0B9
:1037E000CDE90154694610480394FEF7DDFAE8027A
:1037F0008DE8310069460C48FEF7D6FA802000902B
:10380000CDE90154694609480394FEF7CDFA07B0A3
:10381000BDE8F08F30380240001002400014024032
:10382000000002400018024000080240000C024064
:1038300000040240104810B50E4901604FF4827137
:10384000416000218160C1604FF400720161C0E9F4
:1038500005121822C0E90721416281620A21C16272
:10386000FEF741FF002803D0BDE81040FDF741BF3F
:1038700010BD000000300140B406002010B596B025
:1038800000240F9410941194129413941C216846F0
:103890001494FCF74DFE202107A8FCF749FE2D48A3
:1038A0002B490160B321C0E9011440F2E731C0E9BE
:1038B00003148021C0E90541FFF7CAF808B1FDF7FC
:1038C00018FF4FF480500F900FA92248FFF76EF9B0
:1038D00008B1FDF70EFF1F48FFF725FC08B1FDF703
:1038E00008FF139413A91B481494FFF769F808B153
:1038F000FDF7FFFE6020CDE90004029403940494D8
:1039000005940022694613480694FFF7A6FB08B108
:10391000FDF7EFFE042269460E48FFF79EFB08B153
:10392000FDF7E7FE0794089409944FF400500A94B9
:10393000CDE90B4007A907480E94FFF717F808B127
:10394000FDF7D7FE0348FFF75BFB16B010BD000084
:10395000000001406C07002010B58CB0242168469F
:10396000FCF7E6FD0024144809944FF080410A94C6
:10397000C0E90014611EC0E90241046184610120B4
:10398000CDE90004CDE902040494CDE90540079493
:10399000694609480894FFF777F908B1FDF7A9FED1
:1039A000099409A904480A94FFF70AF8002801D0ED
:1039B000FDF79FFE0CB010BDB407002010B58CB011
:1039C00024216846FCF7B4FD0024164809941449E4
:1039D0000A940160B321C0E901146321C0E9031412
:1039E000802181610120CDE90004CDE90204049425
:1039F000CDE90540079469460A480894FFF744F961
:103A000008B1FDF776FE099409A906480A94FEF765
:103A1000D7FF002801D0FDF76CFE0CB010BD0000F0
:103A200000040040FC07002010B586B000241748B1
:103A30000094019402940394049413490594016042
:103A4000B321C0E9011440F2F311C0E9031480214D
:103A50008161FEF7FDFF08B1FDF74BFE4FF480508A
:103A6000009069460948FFF7A1F808B1FDF741FE4B
:103A7000049404A905480594FEF7A2FF002801D08C
:103A8000FDF737FE06B010BD000C004044080020D2
:103A90001CB500240F4800940D4901940160B32126
:103AA000C0E9011440F2F311C16080218161FEF789
:103AB000CFFF08B1FDF71DFE00946946054801944B
:103AC000FEF77EFF002801D0FDF713FE1CBD0000AD
:103AD000001400408C0800200C4810B50A49016011
:103AE0004FF4E1314160002181600C22C160C0E9E6
:103AF00004128161C161FFF762FC002803D0BDE8B8
:103B00001040FDF7F6BD10BD00500040D408002065
:103B1000FEE7FEE710B50446B031C8B2012100F05F
:103B20005DF9102040EA1410012100F057F904F06B
:103B30000F00BDE8104040F00100012100F04EB937
:103B400070B5002404F1B000C0B2012100F046F9C4
:103B50000121002000F042F90121102000F03EF97F
:103B600000250021084600F039F96D1CEDB2802DCA
:103B7000F7D3641CE4B2082CE4D370BD10B5012166
:103B8000AE2000F02BF90121022000F027F90121DD
:103B9000102000F023F90121402000F01FF901213D
:103BA000812000F01BF90121FF2000F017F901210D
:103BB000A12000F013F90121C82000F00FF9012124
:103BC000A82000F00BF901213F2000F007F90121A6
:103BD000D32000F003F90121002000F0FFF80121BB
:103BE000D52000F0FBF80121802000F0F7F801213A
:103BF000D92000F0F3F80121F12000F0EFF80121C5
:103C0000DA2000F0EBF80121122000F0E7F80121A2
:103C1000DB2000F0E3F80121402000F0DFF8012173
:103C2000202000F0DBF80121022000F0D7F801216C
:103C30008D2000F0D3F80121142000F0CFF80121ED
:103C4000A42000F0CBF80121A62000F0C7F8012144
:103C5000AF2000F0C3F8BDE81040FFF771BF0000CF
:103C600070B50F4C0F48216899B1002240210646DB
:103C7000FEF7B9F90C4D2888062809D90122402100
:103C80003046FEF7B0F9FFF779FF0020206028806A
:103C900070BDBDE8704001224021FEF7A4B90000CC
:103CA00030000020001402400E0000202DE9F041F9
:103CB000203A0024D6B21D4607461A46062B21D0CC
:103CC0004D1C0C2A2ED0102B1AD13846FFF722FF9C
:103CD000234800EB06160021305D00F07FF8641CDD
:103CE000E4B2082CF7D3E9B23846FFF713FF0824F3
:103CF0000021305D00F072F8641CE4B2102CF7D3A0
:103D0000BDE8F081FFF706FF164806EB460100EB21
:103D100041060021305D00F061F8641CE4B2AC4261
:103D2000F7D3EDE73846FFF7F5FE0F4906EB4600FF
:103D300001EB80060021305D00F050F8641CE4B215
:103D4000062CF7D3E9B23846FFF7E4FE062400213B
:103D5000305D00F043F8641CE4B20C2CF7D3CFE7DD
:103D600084560008E84F0008105200082DE9F05F63
:103D7000002491468B4606461F46082B03D900BFF8
:103D80004FEAD70001E04FF00100824602D94FEA26
:103D9000570500E01D464FF08000B0FBF5F0A0F1A4
:103DA0000100C0B215FB00F0A0F101080FE03B4696
:103DB00059463046FFF77AFF7019C6B2B04504DAAB
:103DC0000BEB0A00002600F0FF0B641CE4B219F8AC
:103DD0000420002AEBD1BDE8F09F000073B50B4D25
:103DE0004FF4807409B1002200E0012221462846E8
:103DF000FEF7F9F8012269460548FEF733FD012276
:103E000021462846FEF7EFF87CBD00000014024072
:103E1000B4060020704710B5806B01684A6822F034
:103E200003024A60416D41F010014165012180F8B3
:103E30005110FEF757FC10BD10B5806BFEF77FFDEB
:103E400010BD38B50546846BFEF7D2F802462868E7
:103E50000068C00523D42068416821F0200141603A
:103E60002068416821F0020141606421204600F091
:103E70001BF818B1606D40F020006065A06800215B
:103E800018B92068C26880680090E186012084F833
:103E90005100606D18B12046FEF724FC38BD204665
:103EA000FEF74CFD38BD000038B504461248134BF0
:103EB0000068B0FBF3F04FF47A73584300906068E9
:103EC000B0F5827F0DD10B46009200228021204662
:103ED00000F016F870B1606D40F0200060650320BE
:103EE00038BD009830B1401E009020688068C04303
:103EF0000006F6D5002038BD7800002000366E019F
:103F00002DE9F8431E46914688460446089DFEF773
:103F10006FF8401B351AFEF76BF807462548006816
:103F2000C0F3CB30684338E0701C37D0FEF760F840
:103F3000C01BA84203D215B1009860B32CE02068E2
:103F4000416821F0E00141606068B0F5827F0BD1EB
:103F5000A068B0F5004F02D0B0F5806F04D12068A2
:103F6000016821F040010160A06AB0F5005F09D14D
:103F70002068016821F4005101602068016841F463
:103F800000510160012084F85100002084F85000A5
:103F90000320BDE8F8830025401E0090206881685A
:103FA00038EA010004D000214945BDD10020F0E7E6
:103FB0000121F9E7780000207047FEF71FB80000E4
:103FC00070B592B030216846FCF7B2FA14210CA803
:103FD000FCF7AEFA1F480025016841F080510160EE
:103FE000006800F0805011901B48016841F4404186
:103FF00001600068022400F440401190012000900C
:10400000000401908001CDE906400F260896D820D3
:10401000CDE9090404200B906846FEF7ADF908B11C
:1040200072B6FEE7FEF784F808B172B6FEE74FF409
:10403000A050CDE90E504FF48050CDE90C641090A3
:1040400005210CA8FEF7ACF8002801D072B6FEE7F7
:1040500012B070BD40380240007000400248016854
:1040600041F470010160704788ED00E00148FEF7FF
:1040700013BF0000FC0700200148FEF70DBF000041
:10408000440800200148FEF707BF00008C0800200C
:10409000F0B50268254C264D264E274F274B4FF092
:1040A000804CA04209D0604507D0A84205D0B0425C
:1040B00003D0B84201D0984204D122F0700E4A6871
:1040C00042EA0E02A0421BD0604519D0A84217D088
:1040D000B04215D0B84213D0984211D0184DA84222
:1040E0000ED0184DA8420BD0174DA84208D0174D3E
:1040F000A84205D0164DA84202D0164DA84203D1C1
:1041000022F44075CA682A434D6922F080022A438E
:1041100002608A68C2620A688262A04201D0984244
:1041200001D10969016301214161F0BD0000014035
:104130000004004000080040000C00400004014062
:104140000040014000440140004801400018004088
:10415000001C00400020004010B501F01F030121A9
:10416000046A99408C430462016A9A4011430162D7
:1041700010BD10B5846842EA032224F47F440A4348
:104180002243826010BD826822F070020A4342F02E
:104190000701816070470000F0B5026A22F0010259
:1041A0000262036A42688469124E24F073050C6847
:1041B0002C4323F002058B682B430D4DA84201D000
:1041C000B04205D123F00807CB683B4323F004033A
:1041D000A84201D0B04205D14D6922F44072154386
:1041E0008A692A4342608461496841630362F0BD81
:1041F0000000014000040140F0B5026A22F0100204
:104200000262026A436884690D6824F4E64444EA61
:1042100005248D6822F0200242EA05120F4D104E4F
:10422000A84201D0B04206D1CF6822F0800242EA13
:10423000071222F04002A84201D0B04207D14D69D6
:1042400023F4406343EA85038D6943EA85034360B1
:104250008461496881630262F0BD00000000014092
:1042600000040140F0B5026A22F480720262026A20
:104270004368C46922F4007224F073050C68124E7E
:104280002C438D6842EA05220E4DA84201D0B0426F
:1042900006D1CF6822F4006242EA072222F480624B
:1042A000A84201D0B04207D14D6923F4405343EAFC
:1042B00005138D6943EA05134360C4614968C1630E
:1042C0000262F0BD000001400004014030B5026A06
:1042D00022F480520262046A4268C3690D6823F4C2
:1042E000E64343EA05238D6824F4005444EA053488
:1042F000084DA84202D0084DA84204D14D6922F4CD
:10430000804242EA85124260C361496801640462E6
:1043100030BD0000000001400004014010B5036AF8
:10432000046A24F001040462846924F0F00444EA7D
:10433000021423F00A020A438461026210BD10B520
:10434000036A23F0100303628369046A23F4704351
:1043500043EA023224F0A00343EA011182610162C0
:1043600010BD70B5846B2068406994F83D10C0F3AF
:10437000C0100025212904D118B1E584204600F0A1
:104380008AF82068406994F83E10C0F38010222912
:1043900004D118B1E585204600F056F8206C40F0B5
:1043A000100020642046FFF709F870BD10B50146E3
:1043B000806B09680968C9052FD40021C18501688F
:1043C0000C3151E8002F22F4807241E80023002BC9
:1043D000F5D10168143151E8002F22F0010241E8C3
:1043E0000023002BF5D10168143151E8002F22F091
:1043F000400241E80023002BF5D1202180F83E1037
:10440000016B012909D101680C3151E8002F22F01C
:10441000100241E80023002BF5D1016B012902D0E5
:10442000FFF75DF810BD818DFEF7C7FF10BD10B519
:10443000806B016B012902D0FFF752F810BD818D0E
:104440004908FEF7BAFF10BD01680C3151E8002F92
:1044500022F4907241E80023002BF5D10168143159
:1044600051E8002F22F0010241E80023002BF5D192
:10447000016B012909D101680C3151E8002F22F0AC
:10448000100241E80023002BF5D1202180F83E10D6
:1044900000210163704701680C3151E8002F22F0C0
:1044A000C00241E80023002BF5D1202180F83D1007
:1044B0007047000070B5044600680169E26821F4A5
:1044C0004051114301612169A068E26908436169B3
:1044D000114308432168CA6849F20C639A430243B6
:1044E000CA6020684169A26921F4407111434161A9
:1044F00031492068884202D03049884202D1FDF714
:10450000F9FE01E0FDF7E6FEE269002319216425CA
:104510003226B2F5004F626828D0A0FB0101930F4C
:104520009200FBF7C0FE0146B0FBF5F06FF01802F9
:10453000504301EB800006EB0010B0FBF5F000F0FB
:10454000F002B1FBF5F002EB0012B1FBF5F06FF0F9
:104550001803584301EB800006EB0010B0FBF5F0A8
:1045600000F00F0021681044886070BDA0FB0101BD
:1045700092185B41FBF797FE0146B0FBF5F0020194
:10458000B1FBF5F06FF01803584301EB800006EB28
:10459000C000B0FBF5F000F0F80002EB4002B1FB08
:1045A000F5F0584301EB800006EBC000B0FBF5F0DE
:1045B00000F00700D6E700000010014000140140A1
:1045C00038B58162828500251346044605642220A1
:1045D00084F83E00A26B1C48D063A26B1B48106499
:1045E000A26B1B48D064A06B0A4605652168A06BCE
:1045F000091DFDF7A1FB206801684068009084F860
:104600003C50206948B120680C3050E8001F41F44C
:10461000807140E80012002AF5D12068143050E87B
:10462000001F41F0010140E80012002AF5D1206886
:10463000143050E8001F41F0400140E80012002A09
:10464000F5D1002038BD0000AD4300082F4400081C
:10465000634300082DE9F041984617460E4604468C
:10466000069D27E0681C25D02DB1FDF7C1FCA0EB0D
:104670000800A8421ED920680C3050E8001F21F421
:10468000D07140E80012002AF5D12068143050E8BB
:10469000001F21F0010140E80012002AF5D120207E
:1046A00084F83D0084F83E00002084F83C0003209C
:1046B000BDE8F0812068006836EA000004D00020E0
:1046C000B842CFD00020F3E70120F9E7FEE703B4BA
:1046D00001984100009850EAC12018BF04204A0DFB
:1046E00018BF40F0010040F2FF72B2EB515F08BF0B
:1046F00040F00200012808BF052002B070470907FA
:10470000090E002804DB00F1E02080F80014704757
:1047100000F00F0000F1E02080F8141D70473038E1
:104720000A2801D20120704700207047704700001E
:1047300013B54FF6FF73012269460248FEF7D2FE19
:1047400000981CBDD40800202DED028BFDF75EFC07
:10475000FFF736FCFEF790FFFEF770FFFFF798F9C2
:10476000FFF72CF9FFF78AF8FFF75EF9FEF714FF61
:10477000FFF760F8FFF7F0F8FFF7AEF9FB48FEF738
:10478000D5F9FB48FEF7D2F9FA48FEF7CFF9FA4817
:10479000FEF7CCF90021F548FEF7F4FC0421F348BC
:1047A000FEF7F0FC3C21F248FEF72EFB3C21F148DD
:1047B000FEF72AFB0222F149F148FEF77BFE642254
:1047C000F049F148FDF7D4F8FFF7D8F99FEDEF8AEB
:1047D000EC4FDFF8BC83DFF8BCA340F2DC594FF4A8
:1047E000FA6BE64C0026B0EE481A143CF0EE411A83
:1047F000667184ED0A1A84ED0B1A84ED081A84EDB3
:10480000091AF0EE410AB0EE410A607957F820101B
:10481000401C02EE101AC0B2B8EE422A57F820101F
:1048200072EE211A02EE101A401CC0B2B8EE422AF3
:1048300057F8201032EE011A02EE101A401CC0B2D6
:10484000B8EE422A57F8201072EE200A02EE101A33
:10485000401CC0B2B8EE422A60713C2832EE000A19
:10486000D3D3B2EE0E2AC1EE822AC1EE021AC4EDF3
:10487000082A80EE821AC4ED091AC0EE020A84EDFD
:104880000A1AC4ED0B0AFFF7EBF9606B7B2844DDD5
:10489000206A00F031FB41EC100BBFA153EC102B50
:1048A000C148FBF783FD606A00F026FB41EC100B6A
:1048B000BEA153EC102BC148FBF778FDA06A00F0B5
:1048C0001BFB41EC100BBEA153EC102BBF48FBF7B8
:1048D0006DFDE06A00F010FB41EC100BBCA153EC45
:1048E000102BBE48FBF762FD00211023AE4A08469C
:1048F000FFF73CFA1023B14A02210020FFF736FAF5
:104900001023B24A04210020FFF730FA1023B34AE3
:1049100006210020FFF72AFA6663A078A0B3D4ED41
:10492000080A94ED091A30EEC10AB0EEC00A10EE82
:10493000100A40450CDBF4EEC10AF1EE10FA03DD7B
:104940004FF44871A64823E0A5494FF448701FE092
:1049500010EE100AA34988420BDBF4EEC10AF1EE17
:1049600010FA02DD4FF4FA710CE000214FF4FA70F6
:104970000EE010EE901A514507DA11EE101A51456B
:1049800003DA0021002003E02FE04FF4FA70014623
:1049900000F02AFAA089254620B10021084600F03F
:1049A00023FA6E70D5E90601814211D9002108462B
:1049B00000F01AFA00224FF400718B48FDF713FB48
:1049C000287858B3002028706E702E812E82EE61F8
:1049D0004FF400618548FDF701FB08B35FF0010269
:1049E0004FF400718048FDF7FEFA2079002877D057
:1049F00094ED081A94ED090A71EE400AF0EEE00A0F
:104A000010EE900A404512DBB4EEC01AF1EE10FA37
:104A100008DD73484FF46171643865E00120D2E726
:104A20000022DDE76E494FF4617064395CE010EEFE
:104A3000900A6F4988420CDBB4EEC01AF1EE10FA0E
:104A400004DD67484FF4FA7164304DE06449643125
:104A500034E010EE900A674988420BDBB4EEC01ACE
:104A6000F1EE10FA02DD4FF42A7116E000214FF446
:104A70002A7039E010EE900A5F49884204DA10EE9D
:104A8000900A5E4988420DDBB4EEC01AF1EE10FACE
:104A900005DC00214FF4487026E0002024E04FF4AC
:104AA0004871FAE710EE900A554988420EDBB4EEE1
:104AB000C01AF1EE10FA04DD4FF45C714FF4FA7095
:104AC00012E04FF4FA714FF45C700DE011EE101A21
:104AD000514506DA10EE101A514502DA0021DCE7E2
:104AE00022E04FF44870014600F07EF9A089254687
:104AF00020B10021084600F077F9EE70D5E90601F3
:104B0000814211D90021084600F06EF900224FF4CD
:104B100000713548FDF767FA287848B10020287001
:104B2000EE706E812E82EE61E06B012802D011E002
:104B30000120F4E72078A8B1002020706078254695
:104B400088B1002068702E8100210846EE6300F0D5
:104B50004BF92E82607838B12089B0F5FA7F55D2B2
:104B6000002258E04EE04FE07DE000006C0700209E
:104B7000B4070020FC070020440800201400002097
:104B8000D40800207C0400200C0600200000000057
:104B90000000C8440000B042584A5F4C203D202528
:104BA000342E3266200000007C000020584A5F52FC
:104BB000203D2025342E3266200000007C0100209C
:104BC0005231203D2025342E326620007C02002008
:104BD0005232203D2025342E326620007C030020F6
:104BE0000CFEFFFF0000704200140240000802406B
:104BF00000005C440000FA43000096430000484374
:104C00000000C842012098E701209BE72546B0F547
:104C10007A7F06D201224FF400716D48FDF7E3F967
:104C200025E048459CD35845F4D340F6C41188424A
:104C300003D20120EE61A07092E740F6B8318842BD
:104C4000E8D342F210718842E4D34FF40061614826
:104C5000FDF7C4F920B1AE814FF69870288106E0C7
:104C60000120A881F8E7A6704FF698702081206C8B
:104C700001280FD12078A8B100202070E0782546C7
:104C800090B10020E8706E81002108462E6400F08B
:104C9000ABF82E82E07870B36089B0F5FA7F05D268
:104CA000002207E00120E8E70120EBE7B0F57A7F7A
:104CB00006D201224FF400714548FDF794F91FE038
:104CC0002546484502D201202071E9E75845F0D336
:104CD000298942F210708142EBD34FF400613D48C4
:104CE000FDF77CF920B1AE814FF69870688107E03E
:104CF0000120A881F8E7FFE726714FF698706081E0
:104D0000606C012802D12063E6816664A06B0128F3
:104D100005D121782046C9B100210170A663207811
:104D20000028608A3AD0FA2812D2002208212A48A4
:104D3000FDF759F9002280212848FDF754F9002297
:104D400008212748FDF74FF9012222E00121E4E77D
:104D5000B0F5FA7F2BD340F2EE21884206D2002232
:104D600008211D48FDF73FF9012208E0B0F57A7FE0
:104D70002CD2012208211848FDF735F900228021A4
:104D80001648FDF730F9002208211548FDF72BF9E8
:104D9000002220211348FDF726F922E5FA28E8D35E
:104DA000B0F5FA7FDBD340F2EE2188420BD200222D
:104DB00008210948FDF717F9002280210748FDF76F
:104DC00012F90122E0E7B0F57A7FAED3668208E5FA
:104DD000001402400008024000100240000C024093
:104DE000001802400000024010B50C4601460120A8
:104DF00000F006F82146BDE810400220AFF3008025
:104E00002DE9F0410C462B49294D4A42012818D082
:104E1000022814D1C301284E0702002C38DA8C4234
:104E200000DA0C46002219463046FDF7DCF8012274
:104E300039463046FDF7D7F8296860428863BDE8F7
:104E4000F0814FF480631D4E5F00002C10DA8C421D
:104E500000DA0C46002219463046FDF7C4F801225C
:104E600039463046FDF7BFF8296860424863E6E7F7
:104E7000944200DD1446012219463046FDF7B3F88E
:104E8000002239463046FDF7AEF828684463D6E77D
:104E9000944200DD1446012219463046FDF7A3F87E
:104EA000002239463046FDF79EF828688463C6E73D
:104EB0006C07002018FCFFFF0008024000000240C1
:104EC00010B500290AD00878002807D00548784492
:104ED000FBF7CAFE002801D0002010BD024878442C
:104EE00010BD00001A1A0000121A00000808A0F5F0
:104EF00000114FEA3101704743004FEAD30C4FEAEB
:104F00003C0C43401FBF40070CF1605113F0FE4FB3
:104F100070471CF0006F03D100200CF00041704777
:104F20000CF0004343EA507010B540EACC0000F0AA
:104F30000EF800BF000000924FEA0001FFF7D6BF55
:104F40004FF000414FF00000A1F5002170470EF135
:104F5000020E2EF0030E5EF8044B244204D44FEAF6
:104F60004102B2F17F4F11D84FEA4003B3F17F4FB6
:104F70000CD80ED14FEAD07CB2F17F4F0CEB4C0C29
:104F80000CF1020C08BF4CEBD17C04E04FF0080C94
:104F900001E04FEAD17C0CEB4C0324FA03F404F05B
:104FA0000704B4F1040C06D20EEB840CBDE81040EB
:104FB0004CF0010C6047DFE80CF0070802024FF0EC
:104FC0000040A0F5800010BD0846420018BFD2F195
:104FD000807288BF00F0004010BD4FF04070E1EEDD
:104FE000100A7047FBF7A8BB00000000000000009B
:104FF000002F000000000700070000147F147F143A
:1050000000242A7F2A1200626408132300364955BF
:10501000225000000503000000001C224100000097
:1050200041221C000014083E08140008083E08082D
:10503000000000A060000008080808080000606088
:105040000000002010080402003E5149453E0000C7
:10505000427F4000004261514946002141454B31A9
:10506000001814127F10002745454539003C4A4975
:1050700049300001710905030036494949360006E7
:105080004949291E0000363600000000563600004F
:1050900000081422410000141414141400004122CA
:1050A000140800020151090600324959513E007CA2
:1050B0001211127C007F49494936003E414141228C
:1050C000007F4141221C007F49494941007F090975
:1050D0000901003E4149497A007F0808087F000025
:1050E000417F4100002040413F01007F08142241E0
:1050F000007F40404040007F020C027F007F040898
:10510000107F003E4141413E007F09090906003EF3
:105110004151215E007F091929460046494949311C
:105120000001017F0101003F4040403F001F20403F
:10513000201F003F4038403F0063140814630007FD
:105140000870080700615149454300007F41410054
:1051500000552A552A55000041417F0000040201F4
:1051600002040040404040400000010204000020D2
:1051700054545478007F4844443800384444442010
:1051800000384444487F00385454541800087E09BD
:1051900001020018A4A4A47C007F08040478000085
:1051A000447D4000004080847D00007F1028440042
:1051B0000000417F4000007C04180478007C080453
:1051C000047800384444443800FC2424241800188F
:1051D000242418FC007C080404080048545454207B
:1051E00000043F444020003C4040207C001C204004
:1051F000201C003C4030403C004428102844001C47
:10520000A0A0A07C004464544C441414141414143E
:1052100000000000000000000000000000007C0012
:10522000000000000200000000040304030000006E
:105230000000000090FC90FC9000000300030000C0
:105240001824FE4488000102070201003844F8D007
:105250002CC0000300010201C038E418E020010264
:105260000201020104030000000000000000000031
:105270000000F8060100000000030400000106F829
:1052800000000004030000009060F860900000003F
:1052900001000000002020F8202000000000000095
:1052A0000000000000000403000000002020202077
:1052B00020200000000000000000000000000002AC
:1052C000000000000000C0300C02040300000000D9
:1052D000F8040404F8000102020201000008FC00C6
:1052E0000000000203020000188444241800030296
:1052F0000202020008042424D80001020202010074
:10530000C0A098FC80000000020302007C2424243A
:10531000C400010202020100F0482424C800010276
:10532000020201000004C4340C000000030000006D
:10533000D8242424D8000102020201003844442465
:10534000F80001020201000000001000000000004F
:105350000200000000002000000000000600000025
:1053600000609008040000000001020050505050FE
:10537000505000000000000000040890600000028F
:10538000010000001804C4241800000002000000FE
:10539000F008E4F4847800010202020100E09CF0CD
:1053A000800002030000030204FC2424D80002034E
:1053B00002020100F80404040C00010202020100D0
:1053C00004FC0404F80002030202010004FC24743B
:1053D0000C0002030202030004FC24740C0002030C
:1053E00002000000F0080444CC4000010202010069
:1053F00004FC2020FC040203000003020404FC045B
:105400000400020203020200000404FC04040C086D
:105410000807000004FC24508C040203020003026D
:1054200004FC04000000020302020203FC3CC03C36
:10543000FC0403000300030204FC30C4FC04020368
:1054400002000300F8040404F80001020202010053
:1054500004FC24241800020302000000F8848404E1
:10546000F80001020207050004FC2464980002030E
:1054700002000302182424448C00030202020100EB
:105480000C04FC040C0000020302000004FC0000F9
:10549000FC04000102020100047C80E01C04000006
:1054A000030000003CC07CC03C000003000300007F
:1054B000049C609C0400020300030200043CC03C06
:1054C00004000002030200000C84641C04000203B8
:1054D000020203000000FF010100000007040400B5
:1054E000000638C00000000000010600000101FFB6
:1054F0000000000404070000000201020000000098
:10550000000000000000000000000808080808086B
:105510000001020000000000000000000040A0A008
:10552000C00000010202030202FE2020C0000003AE
:105530000202010000C02020600000010202010000
:1055400000C02022FE0000010202030200C0A0A051
:10555000C0000001020202000020FC22220400021E
:10556000030202000040A0A0602000050A0A0A040D
:1055700002FE2020C0000203020003020020E60019
:105580000000000203020000000020E600000808FE
:105590000807000002FE80602000020300010200F4
:1055A0000202FE000000020203020200E020E020EE
:1055B000C00003000300030020E02020C00002031D
:1055C0000200030200C02020C0000001020201000E
:1055D00020E02020C000080F0A02010000C02020A7
:1055E000E0000001020A0F0820E040202000020332
:1055F000020000000060A0A02000000202020300E0
:105600000020F820200000000302020020E000201B
:10561000E00000010202030220E000E020000000A0
:10562000030000006080E0806000000300030000D1
:1056300020608060200002030003020020E00000E0
:10564000E0200808050300000020A0602000000200
:1056500003020200000020FF010000000007040018
:10566000000000FF00000000000F00000001DF202C
:105670000000000407000000020101020100000018
:10568000000000000000000000000000000000001A
:1056900000000000000000F80000000000000033DF
:1056A0000000000000100C02100C020000000000BE
:1056B000000000000040C07840C0780000043F04B3
:1056C000043F040000708888FC0830000018202087
:1056D000FF211E00F008F0806018000000310C036C
:1056E0001E211E0000F00888700000001E21232CDF
:1056F0001927211000120E00000000000000000019
:1057000000000000000000E0180402000000000794
:105710001820400000020418E0000000004020189B
:1057200007000000404080F0804040000202010F6E
:105730000102020000000000E00000000001010181
:105740000F01010100000000000000000090700047
:105750000000000000000000000000000001010146
:1057600001010100000000000000000000303000D6
:105770000000000000000000C038040000601807AE
:105780000000000000E010080810E000000F1020EA
:1057900020100F0000001010F80000000000202072
:1057A0003F202000007008080808F000003028247E
:1057B00022213000003008080888700000182021DD
:1057C00021221C000000804030F800000006052463
:1057D000243F242400F88888880808000019202025
:1057E00020110E0000E0108888900000000F1120AA
:1057F00020201F0000180808886818000000003EDC
:10580000010000000070880808887000001C222138
:1058100021221C0000F008080810E00000011222FC
:1058200022110F00000000C0C00000000000003086
:10583000300000000000008000000000000000E0D8
:105840000000000000008040201008000001020459
:10585000081020000040404040404000000202028A
:105860000202020000081020408000000020100802
:105870000402010000704808088870000000003031
:1058800037000000C030C828E810E00007182728BB
:105890002F2817000000C038E0000000203C230241
:1058A0000227382008F8888888700000203F2020D0
:1058B00020110E00C0300808080838000718202002
:1058C0002010080008F808080810E000203F2020F9
:1058D00020100F0008F88888E8081000203F2020DA
:1058E0002320180008F88888E8081000203F2000CE
:1058F00003000000C0300808083800000718202006
:10590000221E020008F808000008F808203F2101C4
:1059100001213F20000808F8080800000020203F6F
:105920002020000000000808F8080800C0808080DF
:105930007F00000008F888C028180800203F2001D8
:105940002638200008F8080000000000203F202032
:105950002020300008F8F800F8F80800203F013E49
:10596000013F200008F830C00008F808203F200060
:1059700007183F00E01008080810E0000F10202072
:1059800020100F0008F808080808F000203F210147
:1059900001010000E01008080810E0000F1028289E
:1059A00030504F0008F8888888887000203F200019
:1059B000030C3020007088080808380000382021C7
:1059C00021221C00180808F8080818000000203FD1
:1059D0002000000008F808000008F808001F202038
:1059E00020201F000878880000C838080000073809
:1059F0000E01000008F800F800F8080000033E015E
:105A00003E030000081868808068180820302C03C6
:105A1000032C30200838C800C83808000000203F98
:105A20002000000010080808C83808002038262187
:105A300020201800000000FE020202000000007F8B
:105A400040404000000438C0000000000000000199
:105A50000638C00000020202FE0000000040404084
:105A60007F000000000004020204000000000000AB
:105A70000000000000000000000000008080808026
:105A8000808080800002020400000000000000000E
:105A90000000000000008080800000000019242425
:105AA000123F200010F0008080000000003F112015
:105AB00020110E000000008080800000000E1120E8
:105AC00020201100000080808090F000001F202026
:105AD00020103F200000808080800000001F2424D0
